{
	"LinkBin/giveaway.sol": {
		"VRFv2Consumer": {
			"abi": [
				{
					"inputs": [
						{
							"internalType": "uint64",
							"name": "subscriptionId",
							"type": "uint64"
						}
					],
					"stateMutability": "nonpayable",
					"type": "constructor"
				},
				{
					"inputs": [
						{
							"internalType": "address",
							"name": "have",
							"type": "address"
						},
						{
							"internalType": "address",
							"name": "want",
							"type": "address"
						}
					],
					"name": "OnlyCoordinatorCanFulfill",
					"type": "error"
				},
				{
					"anonymous": false,
					"inputs": [
						{
							"indexed": true,
							"internalType": "address",
							"name": "from",
							"type": "address"
						},
						{
							"indexed": true,
							"internalType": "address",
							"name": "to",
							"type": "address"
						}
					],
					"name": "OwnershipTransferRequested",
					"type": "event"
				},
				{
					"anonymous": false,
					"inputs": [
						{
							"indexed": true,
							"internalType": "address",
							"name": "from",
							"type": "address"
						},
						{
							"indexed": true,
							"internalType": "address",
							"name": "to",
							"type": "address"
						}
					],
					"name": "OwnershipTransferred",
					"type": "event"
				},
				{
					"anonymous": false,
					"inputs": [
						{
							"indexed": false,
							"internalType": "uint256",
							"name": "requestId",
							"type": "uint256"
						},
						{
							"indexed": false,
							"internalType": "uint256[]",
							"name": "randomWords",
							"type": "uint256[]"
						}
					],
					"name": "RequestFulfilled",
					"type": "event"
				},
				{
					"anonymous": false,
					"inputs": [
						{
							"indexed": false,
							"internalType": "uint256",
							"name": "requestId",
							"type": "uint256"
						},
						{
							"indexed": false,
							"internalType": "uint32",
							"name": "numWords",
							"type": "uint32"
						}
					],
					"name": "RequestSent",
					"type": "event"
				},
				{
					"inputs": [],
					"name": "acceptOwnership",
					"outputs": [],
					"stateMutability": "nonpayable",
					"type": "function"
				},
				{
					"inputs": [
						{
							"internalType": "uint256",
							"name": "_requestId",
							"type": "uint256"
						}
					],
					"name": "getRequestStatus",
					"outputs": [
						{
							"internalType": "bool",
							"name": "fulfilled",
							"type": "bool"
						},
						{
							"internalType": "uint256[]",
							"name": "randomWords",
							"type": "uint256[]"
						}
					],
					"stateMutability": "view",
					"type": "function"
				},
				{
					"inputs": [],
					"name": "lastRequestId",
					"outputs": [
						{
							"internalType": "uint256",
							"name": "",
							"type": "uint256"
						}
					],
					"stateMutability": "view",
					"type": "function"
				},
				{
					"inputs": [],
					"name": "owner",
					"outputs": [
						{
							"internalType": "address",
							"name": "",
							"type": "address"
						}
					],
					"stateMutability": "view",
					"type": "function"
				},
				{
					"inputs": [
						{
							"internalType": "uint256",
							"name": "requestId",
							"type": "uint256"
						},
						{
							"internalType": "uint256[]",
							"name": "randomWords",
							"type": "uint256[]"
						}
					],
					"name": "rawFulfillRandomWords",
					"outputs": [],
					"stateMutability": "nonpayable",
					"type": "function"
				},
				{
					"inputs": [
						{
							"internalType": "uint256",
							"name": "",
							"type": "uint256"
						}
					],
					"name": "requestIds",
					"outputs": [
						{
							"internalType": "uint256",
							"name": "",
							"type": "uint256"
						}
					],
					"stateMutability": "view",
					"type": "function"
				},
				{
					"inputs": [],
					"name": "requestRandomWords",
					"outputs": [
						{
							"internalType": "uint256",
							"name": "requestId",
							"type": "uint256"
						}
					],
					"stateMutability": "nonpayable",
					"type": "function"
				},
				{
					"inputs": [
						{
							"internalType": "uint256",
							"name": "",
							"type": "uint256"
						}
					],
					"name": "s_requests",
					"outputs": [
						{
							"internalType": "bool",
							"name": "fulfilled",
							"type": "bool"
						},
						{
							"internalType": "bool",
							"name": "exists",
							"type": "bool"
						}
					],
					"stateMutability": "view",
					"type": "function"
				},
				{
					"inputs": [
						{
							"internalType": "address",
							"name": "to",
							"type": "address"
						}
					],
					"name": "transferOwnership",
					"outputs": [],
					"stateMutability": "nonpayable",
					"type": "function"
				}
			],
			"devdoc": {
				"kind": "dev",
				"methods": {},
				"version": 1
			},
			"evm": {
				"assembly": "    /* \"LinkBin/giveaway.sol\":734:4302  contract VRFv2Consumer is VRFConsumerBaseV2, ConfirmedOwner {... */\n  mstore(0x40, 0xa0)\n    /* \"LinkBin/giveaway.sol\":1676:1742  0x474e34a077df58807dbe9c96d3c009b23b3c6d0cce433e59bbf5b34f823bc56c */\n  0x474e34a077df58807dbe9c96d3c009b23b3c6d0cce433e59bbf5b34f823bc56c\n    /* \"LinkBin/giveaway.sol\":1650:1742  bytes32 keyHash =... */\n  0x00\n  shl\n  0x06\n  sstore\n    /* \"LinkBin/giveaway.sol\":2185:2191  100000 */\n  0x0186a0\n    /* \"LinkBin/giveaway.sol\":2159:2191  uint32 callbackGasLimit = 100000 */\n  0x07\n  exp(0x0100, 0x00)\n  dup2\n  sload\n  dup2\n  0xffffffff\n  mul\n  not\n  and\n  swap1\n  dup4\n  0xffffffff\n  and\n  mul\n  or\n  swap1\n  sstore\n  pop\n    /* \"LinkBin/giveaway.sol\":2282:2283  3 */\n  0x03\n    /* \"LinkBin/giveaway.sol\":2252:2283  uint16 requestConfirmations = 3 */\n  0x07\n  exp(0x0100, 0x04)\n  dup2\n  sload\n  dup2\n  0xffff\n  mul\n  not\n  and\n  swap1\n  dup4\n  0xffff\n  and\n  mul\n  or\n  swap1\n  sstore\n  pop\n    /* \"LinkBin/giveaway.sol\":2427:2428  1 */\n  0x01\n    /* \"LinkBin/giveaway.sol\":2409:2428  uint32 numWords = 1 */\n  0x07\n  exp(0x0100, 0x06)\n  dup2\n  sload\n  dup2\n  0xffffffff\n  mul\n  not\n  and\n  swap1\n  dup4\n  0xffffffff\n  and\n  mul\n  or\n  swap1\n  sstore\n  pop\n    /* \"LinkBin/giveaway.sol\":2543:2866  constructor(... */\n  callvalue\n  dup1\n  iszero\n  tag_1\n  jumpi\n  0x00\n  dup1\n  revert\ntag_1:\n  pop\n  mload(0x40)\n  sub(codesize, bytecodeSize)\n  dup1\n  bytecodeSize\n  dup4\n  codecopy\n  dup2\n  dup2\n  add\n  0x40\n  mstore\n  dup2\n  add\n  swap1\n  tag_2\n  swap2\n  swap1\n  tag_3\n  jump\t// in\ntag_2:\n    /* \"LinkBin/giveaway.sol\":2685:2695  msg.sender */\n  caller\n    /* \"@chainlink/contracts/src/v0.8/ConfirmedOwner.sol\":327:335  newOwner */\n  dup1\n    /* \"@chainlink/contracts/src/v0.8/ConfirmedOwner.sol\":345:346  0 */\n  0x00\n    /* \"LinkBin/giveaway.sol\":2618:2660  0x8103B0A8A00be2DDC778e6e7eaa21791Cd364625 */\n  0x8103b0a8a00be2ddc778e6e7eaa21791cd364625\n    /* \"@chainlink/contracts/src/v0.8/VRFConsumerBaseV2.sol\":5616:5631  _vrfCoordinator */\n  dup1\n    /* \"@chainlink/contracts/src/v0.8/VRFConsumerBaseV2.sol\":5599:5631  vrfCoordinator = _vrfCoordinator */\n  0xffffffffffffffffffffffffffffffffffffffff\n  and\n  0x80\n  dup2\n  0xffffffffffffffffffffffffffffffffffffffff\n  and\n  dup2\n  mstore\n  pop\n  pop\n    /* \"@chainlink/contracts/src/v0.8/VRFConsumerBaseV2.sol\":5556:5636  constructor(address _vrfCoordinator) {... */\n  pop\n    /* \"@chainlink/contracts/src/v0.8/ConfirmedOwnerWithProposal.sol\":572:573  0 */\n  0x00\n    /* \"@chainlink/contracts/src/v0.8/ConfirmedOwnerWithProposal.sol\":552:574  newOwner != address(0) */\n  0xffffffffffffffffffffffffffffffffffffffff\n  and\n    /* \"@chainlink/contracts/src/v0.8/ConfirmedOwnerWithProposal.sol\":552:560  newOwner */\n  dup3\n    /* \"@chainlink/contracts/src/v0.8/ConfirmedOwnerWithProposal.sol\":552:574  newOwner != address(0) */\n  0xffffffffffffffffffffffffffffffffffffffff\n  and\n  sub\n    /* \"@chainlink/contracts/src/v0.8/ConfirmedOwnerWithProposal.sol\":544:603  require(newOwner != address(0), \"Cannot set owner to zero\") */\n  tag_10\n  jumpi\n  mload(0x40)\n  0x08c379a000000000000000000000000000000000000000000000000000000000\n  dup2\n  mstore\n  0x04\n  add\n  tag_11\n  swap1\n  tag_12\n  jump\t// in\ntag_11:\n  mload(0x40)\n  dup1\n  swap2\n  sub\n  swap1\n  revert\ntag_10:\n    /* \"@chainlink/contracts/src/v0.8/ConfirmedOwnerWithProposal.sol\":620:628  newOwner */\n  dup2\n    /* \"@chainlink/contracts/src/v0.8/ConfirmedOwnerWithProposal.sol\":610:617  s_owner */\n  0x00\n  dup1\n    /* \"@chainlink/contracts/src/v0.8/ConfirmedOwnerWithProposal.sol\":610:628  s_owner = newOwner */\n  0x0100\n  exp\n  dup2\n  sload\n  dup2\n  0xffffffffffffffffffffffffffffffffffffffff\n  mul\n  not\n  and\n  swap1\n  dup4\n  0xffffffffffffffffffffffffffffffffffffffff\n  and\n  mul\n  or\n  swap1\n  sstore\n  pop\n    /* \"@chainlink/contracts/src/v0.8/ConfirmedOwnerWithProposal.sol\":662:663  0 */\n  0x00\n    /* \"@chainlink/contracts/src/v0.8/ConfirmedOwnerWithProposal.sol\":638:664  pendingOwner != address(0) */\n  0xffffffffffffffffffffffffffffffffffffffff\n  and\n    /* \"@chainlink/contracts/src/v0.8/ConfirmedOwnerWithProposal.sol\":638:650  pendingOwner */\n  dup2\n    /* \"@chainlink/contracts/src/v0.8/ConfirmedOwnerWithProposal.sol\":638:664  pendingOwner != address(0) */\n  0xffffffffffffffffffffffffffffffffffffffff\n  and\n  eq\n    /* \"@chainlink/contracts/src/v0.8/ConfirmedOwnerWithProposal.sol\":634:713  if (pendingOwner != address(0)) {... */\n  tag_13\n  jumpi\n    /* \"@chainlink/contracts/src/v0.8/ConfirmedOwnerWithProposal.sol\":674:706  _transferOwnership(pendingOwner) */\n  tag_14\n    /* \"@chainlink/contracts/src/v0.8/ConfirmedOwnerWithProposal.sol\":693:705  pendingOwner */\n  dup2\n    /* \"@chainlink/contracts/src/v0.8/ConfirmedOwnerWithProposal.sol\":674:692  _transferOwnership */\n  shl(0x20, tag_15)\n    /* \"@chainlink/contracts/src/v0.8/ConfirmedOwnerWithProposal.sol\":674:706  _transferOwnership(pendingOwner) */\n  0x20\n  shr\n  jump\t// in\ntag_14:\n    /* \"@chainlink/contracts/src/v0.8/ConfirmedOwnerWithProposal.sol\":634:713  if (pendingOwner != address(0)) {... */\ntag_13:\n    /* \"@chainlink/contracts/src/v0.8/ConfirmedOwnerWithProposal.sol\":486:717  constructor(address newOwner, address pendingOwner) {... */\n  pop\n  pop\n    /* \"@chainlink/contracts/src/v0.8/ConfirmedOwner.sol\":270:351  constructor(address newOwner) ConfirmedOwnerWithProposal(newOwner, address(0)) {} */\n  pop\n    /* \"LinkBin/giveaway.sol\":2764:2806  0x8103B0A8A00be2DDC778e6e7eaa21791Cd364625 */\n  0x8103b0a8a00be2ddc778e6e7eaa21791cd364625\n    /* \"LinkBin/giveaway.sol\":2711:2722  COORDINATOR */\n  0x03\n  0x00\n    /* \"LinkBin/giveaway.sol\":2711:2816  COORDINATOR = VRFCoordinatorV2Interface(... */\n  0x0100\n  exp\n  dup2\n  sload\n  dup2\n  0xffffffffffffffffffffffffffffffffffffffff\n  mul\n  not\n  and\n  swap1\n  dup4\n  0xffffffffffffffffffffffffffffffffffffffff\n  and\n  mul\n  or\n  swap1\n  sstore\n  pop\n    /* \"LinkBin/giveaway.sol\":2845:2859  subscriptionId */\n  dup1\n    /* \"LinkBin/giveaway.sol\":2826:2842  s_subscriptionId */\n  0x03\n  0x14\n    /* \"LinkBin/giveaway.sol\":2826:2859  s_subscriptionId = subscriptionId */\n  0x0100\n  exp\n  dup2\n  sload\n  dup2\n  0xffffffffffffffff\n  mul\n  not\n  and\n  swap1\n  dup4\n  0xffffffffffffffff\n  and\n  mul\n  or\n  swap1\n  sstore\n  pop\n    /* \"LinkBin/giveaway.sol\":2543:2866  constructor(... */\n  pop\n    /* \"LinkBin/giveaway.sol\":734:4302  contract VRFv2Consumer is VRFConsumerBaseV2, ConfirmedOwner {... */\n  jump(tag_18)\n    /* \"@chainlink/contracts/src/v0.8/ConfirmedOwnerWithProposal.sol\":1497:1685  function _transferOwnership(address to) private {... */\ntag_15:\n    /* \"@chainlink/contracts/src/v0.8/ConfirmedOwnerWithProposal.sol\":1565:1575  msg.sender */\n  caller\n    /* \"@chainlink/contracts/src/v0.8/ConfirmedOwnerWithProposal.sol\":1559:1575  to != msg.sender */\n  0xffffffffffffffffffffffffffffffffffffffff\n  and\n    /* \"@chainlink/contracts/src/v0.8/ConfirmedOwnerWithProposal.sol\":1559:1561  to */\n  dup2\n    /* \"@chainlink/contracts/src/v0.8/ConfirmedOwnerWithProposal.sol\":1559:1575  to != msg.sender */\n  0xffffffffffffffffffffffffffffffffffffffff\n  and\n  sub\n    /* \"@chainlink/contracts/src/v0.8/ConfirmedOwnerWithProposal.sol\":1551:1603  require(to != msg.sender, \"Cannot transfer to self\") */\n  tag_20\n  jumpi\n  mload(0x40)\n  0x08c379a000000000000000000000000000000000000000000000000000000000\n  dup2\n  mstore\n  0x04\n  add\n  tag_21\n  swap1\n  tag_22\n  jump\t// in\ntag_21:\n  mload(0x40)\n  dup1\n  swap2\n  sub\n  swap1\n  revert\ntag_20:\n    /* \"@chainlink/contracts/src/v0.8/ConfirmedOwnerWithProposal.sol\":1627:1629  to */\n  dup1\n    /* \"@chainlink/contracts/src/v0.8/ConfirmedOwnerWithProposal.sol\":1610:1624  s_pendingOwner */\n  0x01\n  0x00\n    /* \"@chainlink/contracts/src/v0.8/ConfirmedOwnerWithProposal.sol\":1610:1629  s_pendingOwner = to */\n  0x0100\n  exp\n  dup2\n  sload\n  dup2\n  0xffffffffffffffffffffffffffffffffffffffff\n  mul\n  not\n  and\n  swap1\n  dup4\n  0xffffffffffffffffffffffffffffffffffffffff\n  and\n  mul\n  or\n  swap1\n  sstore\n  pop\n    /* \"@chainlink/contracts/src/v0.8/ConfirmedOwnerWithProposal.sol\":1677:1679  to */\n  dup1\n    /* \"@chainlink/contracts/src/v0.8/ConfirmedOwnerWithProposal.sol\":1641:1680  OwnershipTransferRequested(s_owner, to) */\n  0xffffffffffffffffffffffffffffffffffffffff\n  and\n    /* \"@chainlink/contracts/src/v0.8/ConfirmedOwnerWithProposal.sol\":1668:1675  s_owner */\n  0x00\n  dup1\n  sload\n  swap1\n  0x0100\n  exp\n  swap1\n  div\n  0xffffffffffffffffffffffffffffffffffffffff\n  and\n    /* \"@chainlink/contracts/src/v0.8/ConfirmedOwnerWithProposal.sol\":1641:1680  OwnershipTransferRequested(s_owner, to) */\n  0xffffffffffffffffffffffffffffffffffffffff\n  and\n  0xed8889f560326eb138920d842192f0eb3dd22b4f139c87a2c57538e05bae1278\n  mload(0x40)\n  mload(0x40)\n  dup1\n  swap2\n  sub\n  swap1\n  log3\n    /* \"@chainlink/contracts/src/v0.8/ConfirmedOwnerWithProposal.sol\":1497:1685  function _transferOwnership(address to) private {... */\n  pop\n  jump\t// out\n    /* \"#utility.yul\":88:205   */\ntag_24:\n    /* \"#utility.yul\":197:198   */\n  0x00\n    /* \"#utility.yul\":194:195   */\n  dup1\n    /* \"#utility.yul\":187:199   */\n  revert\n    /* \"#utility.yul\":334:435   */\ntag_26:\n    /* \"#utility.yul\":370:377   */\n  0x00\n    /* \"#utility.yul\":410:428   */\n  0xffffffffffffffff\n    /* \"#utility.yul\":403:408   */\n  dup3\n    /* \"#utility.yul\":399:429   */\n  and\n    /* \"#utility.yul\":388:429   */\n  swap1\n  pop\n    /* \"#utility.yul\":334:435   */\n  swap2\n  swap1\n  pop\n  jump\t// out\n    /* \"#utility.yul\":441:561   */\ntag_27:\n    /* \"#utility.yul\":513:536   */\n  tag_40\n    /* \"#utility.yul\":530:535   */\n  dup2\n    /* \"#utility.yul\":513:536   */\n  tag_26\n  jump\t// in\ntag_40:\n    /* \"#utility.yul\":506:511   */\n  dup2\n    /* \"#utility.yul\":503:537   */\n  eq\n    /* \"#utility.yul\":493:555   */\n  tag_41\n  jumpi\n    /* \"#utility.yul\":551:552   */\n  0x00\n    /* \"#utility.yul\":548:549   */\n  dup1\n    /* \"#utility.yul\":541:553   */\n  revert\n    /* \"#utility.yul\":493:555   */\ntag_41:\n    /* \"#utility.yul\":441:561   */\n  pop\n  jump\t// out\n    /* \"#utility.yul\":567:708   */\ntag_28:\n    /* \"#utility.yul\":623:628   */\n  0x00\n    /* \"#utility.yul\":654:660   */\n  dup2\n    /* \"#utility.yul\":648:661   */\n  mload\n    /* \"#utility.yul\":639:661   */\n  swap1\n  pop\n    /* \"#utility.yul\":670:702   */\n  tag_43\n    /* \"#utility.yul\":696:701   */\n  dup2\n    /* \"#utility.yul\":670:702   */\n  tag_27\n  jump\t// in\ntag_43:\n    /* \"#utility.yul\":567:708   */\n  swap3\n  swap2\n  pop\n  pop\n  jump\t// out\n    /* \"#utility.yul\":714:1063   */\ntag_3:\n    /* \"#utility.yul\":783:789   */\n  0x00\n    /* \"#utility.yul\":832:834   */\n  0x20\n    /* \"#utility.yul\":820:829   */\n  dup3\n    /* \"#utility.yul\":811:818   */\n  dup5\n    /* \"#utility.yul\":807:830   */\n  sub\n    /* \"#utility.yul\":803:835   */\n  slt\n    /* \"#utility.yul\":800:919   */\n  iszero\n  tag_45\n  jumpi\n    /* \"#utility.yul\":838:917   */\n  tag_46\n  tag_24\n  jump\t// in\ntag_46:\n    /* \"#utility.yul\":800:919   */\ntag_45:\n    /* \"#utility.yul\":958:959   */\n  0x00\n    /* \"#utility.yul\":983:1046   */\n  tag_47\n    /* \"#utility.yul\":1038:1045   */\n  dup5\n    /* \"#utility.yul\":1029:1035   */\n  dup3\n    /* \"#utility.yul\":1018:1027   */\n  dup6\n    /* \"#utility.yul\":1014:1036   */\n  add\n    /* \"#utility.yul\":983:1046   */\n  tag_28\n  jump\t// in\ntag_47:\n    /* \"#utility.yul\":973:1046   */\n  swap2\n  pop\n    /* \"#utility.yul\":929:1056   */\n  pop\n    /* \"#utility.yul\":714:1063   */\n  swap3\n  swap2\n  pop\n  pop\n  jump\t// out\n    /* \"#utility.yul\":1069:1238   */\ntag_29:\n    /* \"#utility.yul\":1153:1164   */\n  0x00\n    /* \"#utility.yul\":1187:1193   */\n  dup3\n    /* \"#utility.yul\":1182:1185   */\n  dup3\n    /* \"#utility.yul\":1175:1194   */\n  mstore\n    /* \"#utility.yul\":1227:1231   */\n  0x20\n    /* \"#utility.yul\":1222:1225   */\n  dup3\n    /* \"#utility.yul\":1218:1232   */\n  add\n    /* \"#utility.yul\":1203:1232   */\n  swap1\n  pop\n    /* \"#utility.yul\":1069:1238   */\n  swap3\n  swap2\n  pop\n  pop\n  jump\t// out\n    /* \"#utility.yul\":1244:1418   */\ntag_30:\n    /* \"#utility.yul\":1384:1410   */\n  0x43616e6e6f7420736574206f776e657220746f207a65726f0000000000000000\n    /* \"#utility.yul\":1380:1381   */\n  0x00\n    /* \"#utility.yul\":1372:1378   */\n  dup3\n    /* \"#utility.yul\":1368:1382   */\n  add\n    /* \"#utility.yul\":1361:1411   */\n  mstore\n    /* \"#utility.yul\":1244:1418   */\n  pop\n  jump\t// out\n    /* \"#utility.yul\":1424:1790   */\ntag_31:\n    /* \"#utility.yul\":1566:1569   */\n  0x00\n    /* \"#utility.yul\":1587:1654   */\n  tag_51\n    /* \"#utility.yul\":1651:1653   */\n  0x18\n    /* \"#utility.yul\":1646:1649   */\n  dup4\n    /* \"#utility.yul\":1587:1654   */\n  tag_29\n  jump\t// in\ntag_51:\n    /* \"#utility.yul\":1580:1654   */\n  swap2\n  pop\n    /* \"#utility.yul\":1663:1756   */\n  tag_52\n    /* \"#utility.yul\":1752:1755   */\n  dup3\n    /* \"#utility.yul\":1663:1756   */\n  tag_30\n  jump\t// in\ntag_52:\n    /* \"#utility.yul\":1781:1783   */\n  0x20\n    /* \"#utility.yul\":1776:1779   */\n  dup3\n    /* \"#utility.yul\":1772:1784   */\n  add\n    /* \"#utility.yul\":1765:1784   */\n  swap1\n  pop\n    /* \"#utility.yul\":1424:1790   */\n  swap2\n  swap1\n  pop\n  jump\t// out\n    /* \"#utility.yul\":1796:2215   */\ntag_12:\n    /* \"#utility.yul\":1962:1966   */\n  0x00\n    /* \"#utility.yul\":2000:2002   */\n  0x20\n    /* \"#utility.yul\":1989:1998   */\n  dup3\n    /* \"#utility.yul\":1985:2003   */\n  add\n    /* \"#utility.yul\":1977:2003   */\n  swap1\n  pop\n    /* \"#utility.yul\":2049:2058   */\n  dup2\n    /* \"#utility.yul\":2043:2047   */\n  dup2\n    /* \"#utility.yul\":2039:2059   */\n  sub\n    /* \"#utility.yul\":2035:2036   */\n  0x00\n    /* \"#utility.yul\":2024:2033   */\n  dup4\n    /* \"#utility.yul\":2020:2037   */\n  add\n    /* \"#utility.yul\":2013:2060   */\n  mstore\n    /* \"#utility.yul\":2077:2208   */\n  tag_54\n    /* \"#utility.yul\":2203:2207   */\n  dup2\n    /* \"#utility.yul\":2077:2208   */\n  tag_31\n  jump\t// in\ntag_54:\n    /* \"#utility.yul\":2069:2208   */\n  swap1\n  pop\n    /* \"#utility.yul\":1796:2215   */\n  swap2\n  swap1\n  pop\n  jump\t// out\n    /* \"#utility.yul\":2221:2394   */\ntag_32:\n    /* \"#utility.yul\":2361:2386   */\n  0x43616e6e6f74207472616e7366657220746f2073656c66000000000000000000\n    /* \"#utility.yul\":2357:2358   */\n  0x00\n    /* \"#utility.yul\":2349:2355   */\n  dup3\n    /* \"#utility.yul\":2345:2359   */\n  add\n    /* \"#utility.yul\":2338:2387   */\n  mstore\n    /* \"#utility.yul\":2221:2394   */\n  pop\n  jump\t// out\n    /* \"#utility.yul\":2400:2766   */\ntag_33:\n    /* \"#utility.yul\":2542:2545   */\n  0x00\n    /* \"#utility.yul\":2563:2630   */\n  tag_57\n    /* \"#utility.yul\":2627:2629   */\n  0x17\n    /* \"#utility.yul\":2622:2625   */\n  dup4\n    /* \"#utility.yul\":2563:2630   */\n  tag_29\n  jump\t// in\ntag_57:\n    /* \"#utility.yul\":2556:2630   */\n  swap2\n  pop\n    /* \"#utility.yul\":2639:2732   */\n  tag_58\n    /* \"#utility.yul\":2728:2731   */\n  dup3\n    /* \"#utility.yul\":2639:2732   */\n  tag_32\n  jump\t// in\ntag_58:\n    /* \"#utility.yul\":2757:2759   */\n  0x20\n    /* \"#utility.yul\":2752:2755   */\n  dup3\n    /* \"#utility.yul\":2748:2760   */\n  add\n    /* \"#utility.yul\":2741:2760   */\n  swap1\n  pop\n    /* \"#utility.yul\":2400:2766   */\n  swap2\n  swap1\n  pop\n  jump\t// out\n    /* \"#utility.yul\":2772:3191   */\ntag_22:\n    /* \"#utility.yul\":2938:2942   */\n  0x00\n    /* \"#utility.yul\":2976:2978   */\n  0x20\n    /* \"#utility.yul\":2965:2974   */\n  dup3\n    /* \"#utility.yul\":2961:2979   */\n  add\n    /* \"#utility.yul\":2953:2979   */\n  swap1\n  pop\n    /* \"#utility.yul\":3025:3034   */\n  dup2\n    /* \"#utility.yul\":3019:3023   */\n  dup2\n    /* \"#utility.yul\":3015:3035   */\n  sub\n    /* \"#utility.yul\":3011:3012   */\n  0x00\n    /* \"#utility.yul\":3000:3009   */\n  dup4\n    /* \"#utility.yul\":2996:3013   */\n  add\n    /* \"#utility.yul\":2989:3036   */\n  mstore\n    /* \"#utility.yul\":3053:3184   */\n  tag_60\n    /* \"#utility.yul\":3179:3183   */\n  dup2\n    /* \"#utility.yul\":3053:3184   */\n  tag_33\n  jump\t// in\ntag_60:\n    /* \"#utility.yul\":3045:3184   */\n  swap1\n  pop\n    /* \"#utility.yul\":2772:3191   */\n  swap2\n  swap1\n  pop\n  jump\t// out\n    /* \"LinkBin/giveaway.sol\":734:4302  contract VRFv2Consumer is VRFConsumerBaseV2, ConfirmedOwner {... */\ntag_18:\n  mload(0x80)\n  codecopy(0x00, dataOffset(sub_0), dataSize(sub_0))\n  0x00\n  assignImmutable(\"0xa75e2cf51d42f4164e4624f425e61448777a748393b6f6a5bcb1d94d1e8e5e98\")\n  return(0x00, dataSize(sub_0))\nstop\n\nsub_0: assembly {\n        /* \"LinkBin/giveaway.sol\":734:4302  contract VRFv2Consumer is VRFConsumerBaseV2, ConfirmedOwner {... */\n      mstore(0x40, 0x80)\n      callvalue\n      dup1\n      iszero\n      tag_1\n      jumpi\n      0x00\n      dup1\n      revert\n    tag_1:\n      pop\n      jumpi(tag_2, lt(calldatasize, 0x04))\n      shr(0xe0, calldataload(0x00))\n      dup1\n      0xa168fa89\n      gt\n      tag_12\n      jumpi\n      dup1\n      0xa168fa89\n      eq\n      tag_7\n      jumpi\n      dup1\n      0xd8a4676f\n      eq\n      tag_8\n      jumpi\n      dup1\n      0xe0c86289\n      eq\n      tag_9\n      jumpi\n      dup1\n      0xf2fde38b\n      eq\n      tag_10\n      jumpi\n      dup1\n      0xfc2a88c3\n      eq\n      tag_11\n      jumpi\n      jump(tag_2)\n    tag_12:\n      dup1\n      0x1fe543e3\n      eq\n      tag_3\n      jumpi\n      dup1\n      0x79ba5097\n      eq\n      tag_4\n      jumpi\n      dup1\n      0x8796ba8c\n      eq\n      tag_5\n      jumpi\n      dup1\n      0x8da5cb5b\n      eq\n      tag_6\n      jumpi\n    tag_2:\n      0x00\n      dup1\n      revert\n        /* \"@chainlink/contracts/src/v0.8/VRFConsumerBaseV2.sol\":6618:6874  function rawFulfillRandomWords(uint256 requestId, uint256[] memory randomWords) external {... */\n    tag_3:\n      tag_13\n      0x04\n      dup1\n      calldatasize\n      sub\n      dup2\n      add\n      swap1\n      tag_14\n      swap2\n      swap1\n      tag_15\n      jump\t// in\n    tag_14:\n      tag_16\n      jump\t// in\n    tag_13:\n      stop\n        /* \"@chainlink/contracts/src/v0.8/ConfirmedOwnerWithProposal.sol\":1016:1281  function acceptOwnership() external override {... */\n    tag_4:\n      tag_17\n      tag_18\n      jump\t// in\n    tag_17:\n      stop\n        /* \"LinkBin/giveaway.sol\":1351:1378  uint256[] public requestIds */\n    tag_5:\n      tag_19\n      0x04\n      dup1\n      calldatasize\n      sub\n      dup2\n      add\n      swap1\n      tag_20\n      swap2\n      swap1\n      tag_21\n      jump\t// in\n    tag_20:\n      tag_22\n      jump\t// in\n    tag_19:\n      mload(0x40)\n      tag_23\n      swap2\n      swap1\n      tag_24\n      jump\t// in\n    tag_23:\n      mload(0x40)\n      dup1\n      swap2\n      sub\n      swap1\n      return\n        /* \"@chainlink/contracts/src/v0.8/ConfirmedOwnerWithProposal.sol\":1332:1413  function owner() public view override returns (address) {... */\n    tag_6:\n      tag_25\n      tag_26\n      jump\t// in\n    tag_25:\n      mload(0x40)\n      tag_27\n      swap2\n      swap1\n      tag_28\n      jump\t// in\n    tag_27:\n      mload(0x40)\n      dup1\n      swap2\n      sub\n      swap1\n      return\n        /* \"LinkBin/giveaway.sol\":1124:1183  mapping(uint256 => RequestStatus)... */\n    tag_7:\n      tag_29\n      0x04\n      dup1\n      calldatasize\n      sub\n      dup2\n      add\n      swap1\n      tag_30\n      swap2\n      swap1\n      tag_21\n      jump\t// in\n    tag_30:\n      tag_31\n      jump\t// in\n    tag_29:\n      mload(0x40)\n      tag_32\n      swap3\n      swap2\n      swap1\n      tag_33\n      jump\t// in\n    tag_32:\n      mload(0x40)\n      dup1\n      swap2\n      sub\n      swap1\n      return\n        /* \"LinkBin/giveaway.sol\":3975:4300  function getRequestStatus(... */\n    tag_8:\n      tag_34\n      0x04\n      dup1\n      calldatasize\n      sub\n      dup2\n      add\n      swap1\n      tag_35\n      swap2\n      swap1\n      tag_21\n      jump\t// in\n    tag_35:\n      tag_36\n      jump\t// in\n    tag_34:\n      mload(0x40)\n      tag_37\n      swap3\n      swap2\n      swap1\n      tag_38\n      jump\t// in\n    tag_37:\n      mload(0x40)\n      dup1\n      swap2\n      sub\n      swap1\n      return\n        /* \"LinkBin/giveaway.sol\":2928:3603  function requestRandomWords()... */\n    tag_9:\n      tag_39\n      tag_40\n      jump\t// in\n    tag_39:\n      mload(0x40)\n      tag_41\n      swap2\n      swap1\n      tag_24\n      jump\t// in\n    tag_41:\n      mload(0x40)\n      dup1\n      swap2\n      sub\n      swap1\n      return\n        /* \"@chainlink/contracts/src/v0.8/ConfirmedOwnerWithProposal.sol\":826:924  function transferOwnership(address to) public override onlyOwner {... */\n    tag_10:\n      tag_42\n      0x04\n      dup1\n      calldatasize\n      sub\n      dup2\n      add\n      swap1\n      tag_43\n      swap2\n      swap1\n      tag_44\n      jump\t// in\n    tag_43:\n      tag_45\n      jump\t// in\n    tag_42:\n      stop\n        /* \"LinkBin/giveaway.sol\":1384:1412  uint256 public lastRequestId */\n    tag_11:\n      tag_46\n      tag_47\n      jump\t// in\n    tag_46:\n      mload(0x40)\n      tag_48\n      swap2\n      swap1\n      tag_24\n      jump\t// in\n    tag_48:\n      mload(0x40)\n      dup1\n      swap2\n      sub\n      swap1\n      return\n        /* \"@chainlink/contracts/src/v0.8/VRFConsumerBaseV2.sol\":6618:6874  function rawFulfillRandomWords(uint256 requestId, uint256[] memory randomWords) external {... */\n    tag_16:\n        /* \"@chainlink/contracts/src/v0.8/VRFConsumerBaseV2.sol\":6731:6745  vrfCoordinator */\n      immutable(\"0xa75e2cf51d42f4164e4624f425e61448777a748393b6f6a5bcb1d94d1e8e5e98\")\n        /* \"@chainlink/contracts/src/v0.8/VRFConsumerBaseV2.sol\":6717:6745  msg.sender != vrfCoordinator */\n      0xffffffffffffffffffffffffffffffffffffffff\n      and\n        /* \"@chainlink/contracts/src/v0.8/VRFConsumerBaseV2.sol\":6717:6727  msg.sender */\n      caller\n        /* \"@chainlink/contracts/src/v0.8/VRFConsumerBaseV2.sol\":6717:6745  msg.sender != vrfCoordinator */\n      0xffffffffffffffffffffffffffffffffffffffff\n      and\n      eq\n        /* \"@chainlink/contracts/src/v0.8/VRFConsumerBaseV2.sol\":6713:6822  if (msg.sender != vrfCoordinator) {... */\n      tag_50\n      jumpi\n        /* \"@chainlink/contracts/src/v0.8/VRFConsumerBaseV2.sol\":6788:6798  msg.sender */\n      caller\n        /* \"@chainlink/contracts/src/v0.8/VRFConsumerBaseV2.sol\":6800:6814  vrfCoordinator */\n      immutable(\"0xa75e2cf51d42f4164e4624f425e61448777a748393b6f6a5bcb1d94d1e8e5e98\")\n        /* \"@chainlink/contracts/src/v0.8/VRFConsumerBaseV2.sol\":6762:6815  OnlyCoordinatorCanFulfill(msg.sender, vrfCoordinator) */\n      mload(0x40)\n      0x1cf993f400000000000000000000000000000000000000000000000000000000\n      dup2\n      mstore\n      0x04\n      add\n      tag_51\n      swap3\n      swap2\n      swap1\n      tag_52\n      jump\t// in\n    tag_51:\n      mload(0x40)\n      dup1\n      swap2\n      sub\n      swap1\n      revert\n        /* \"@chainlink/contracts/src/v0.8/VRFConsumerBaseV2.sol\":6713:6822  if (msg.sender != vrfCoordinator) {... */\n    tag_50:\n        /* \"@chainlink/contracts/src/v0.8/VRFConsumerBaseV2.sol\":6827:6869  fulfillRandomWords(requestId, randomWords) */\n      tag_53\n        /* \"@chainlink/contracts/src/v0.8/VRFConsumerBaseV2.sol\":6846:6855  requestId */\n      dup3\n        /* \"@chainlink/contracts/src/v0.8/VRFConsumerBaseV2.sol\":6857:6868  randomWords */\n      dup3\n        /* \"@chainlink/contracts/src/v0.8/VRFConsumerBaseV2.sol\":6827:6845  fulfillRandomWords */\n      tag_54\n        /* \"@chainlink/contracts/src/v0.8/VRFConsumerBaseV2.sol\":6827:6869  fulfillRandomWords(requestId, randomWords) */\n      jump\t// in\n    tag_53:\n        /* \"@chainlink/contracts/src/v0.8/VRFConsumerBaseV2.sol\":6618:6874  function rawFulfillRandomWords(uint256 requestId, uint256[] memory randomWords) external {... */\n      pop\n      pop\n      jump\t// out\n        /* \"@chainlink/contracts/src/v0.8/ConfirmedOwnerWithProposal.sol\":1016:1281  function acceptOwnership() external override {... */\n    tag_18:\n        /* \"@chainlink/contracts/src/v0.8/ConfirmedOwnerWithProposal.sol\":1089:1103  s_pendingOwner */\n      0x01\n      0x00\n      swap1\n      sload\n      swap1\n      0x0100\n      exp\n      swap1\n      div\n      0xffffffffffffffffffffffffffffffffffffffff\n      and\n        /* \"@chainlink/contracts/src/v0.8/ConfirmedOwnerWithProposal.sol\":1075:1103  msg.sender == s_pendingOwner */\n      0xffffffffffffffffffffffffffffffffffffffff\n      and\n        /* \"@chainlink/contracts/src/v0.8/ConfirmedOwnerWithProposal.sol\":1075:1085  msg.sender */\n      caller\n        /* \"@chainlink/contracts/src/v0.8/ConfirmedOwnerWithProposal.sol\":1075:1103  msg.sender == s_pendingOwner */\n      0xffffffffffffffffffffffffffffffffffffffff\n      and\n      eq\n        /* \"@chainlink/contracts/src/v0.8/ConfirmedOwnerWithProposal.sol\":1067:1130  require(msg.sender == s_pendingOwner, \"Must be proposed owner\") */\n      tag_56\n      jumpi\n      mload(0x40)\n      0x08c379a000000000000000000000000000000000000000000000000000000000\n      dup2\n      mstore\n      0x04\n      add\n      tag_57\n      swap1\n      tag_58\n      jump\t// in\n    tag_57:\n      mload(0x40)\n      dup1\n      swap2\n      sub\n      swap1\n      revert\n    tag_56:\n        /* \"@chainlink/contracts/src/v0.8/ConfirmedOwnerWithProposal.sol\":1137:1153  address oldOwner */\n      0x00\n        /* \"@chainlink/contracts/src/v0.8/ConfirmedOwnerWithProposal.sol\":1156:1163  s_owner */\n      dup1\n      0x00\n      swap1\n      sload\n      swap1\n      0x0100\n      exp\n      swap1\n      div\n      0xffffffffffffffffffffffffffffffffffffffff\n      and\n        /* \"@chainlink/contracts/src/v0.8/ConfirmedOwnerWithProposal.sol\":1137:1163  address oldOwner = s_owner */\n      swap1\n      pop\n        /* \"@chainlink/contracts/src/v0.8/ConfirmedOwnerWithProposal.sol\":1179:1189  msg.sender */\n      caller\n        /* \"@chainlink/contracts/src/v0.8/ConfirmedOwnerWithProposal.sol\":1169:1176  s_owner */\n      0x00\n      dup1\n        /* \"@chainlink/contracts/src/v0.8/ConfirmedOwnerWithProposal.sol\":1169:1189  s_owner = msg.sender */\n      0x0100\n      exp\n      dup2\n      sload\n      dup2\n      0xffffffffffffffffffffffffffffffffffffffff\n      mul\n      not\n      and\n      swap1\n      dup4\n      0xffffffffffffffffffffffffffffffffffffffff\n      and\n      mul\n      or\n      swap1\n      sstore\n      pop\n        /* \"@chainlink/contracts/src/v0.8/ConfirmedOwnerWithProposal.sol\":1220:1221  0 */\n      0x00\n        /* \"@chainlink/contracts/src/v0.8/ConfirmedOwnerWithProposal.sol\":1195:1209  s_pendingOwner */\n      0x01\n      0x00\n        /* \"@chainlink/contracts/src/v0.8/ConfirmedOwnerWithProposal.sol\":1195:1222  s_pendingOwner = address(0) */\n      0x0100\n      exp\n      dup2\n      sload\n      dup2\n      0xffffffffffffffffffffffffffffffffffffffff\n      mul\n      not\n      and\n      swap1\n      dup4\n      0xffffffffffffffffffffffffffffffffffffffff\n      and\n      mul\n      or\n      swap1\n      sstore\n      pop\n        /* \"@chainlink/contracts/src/v0.8/ConfirmedOwnerWithProposal.sol\":1265:1275  msg.sender */\n      caller\n        /* \"@chainlink/contracts/src/v0.8/ConfirmedOwnerWithProposal.sol\":1234:1276  OwnershipTransferred(oldOwner, msg.sender) */\n      0xffffffffffffffffffffffffffffffffffffffff\n      and\n        /* \"@chainlink/contracts/src/v0.8/ConfirmedOwnerWithProposal.sol\":1255:1263  oldOwner */\n      dup2\n        /* \"@chainlink/contracts/src/v0.8/ConfirmedOwnerWithProposal.sol\":1234:1276  OwnershipTransferred(oldOwner, msg.sender) */\n      0xffffffffffffffffffffffffffffffffffffffff\n      and\n      0x8be0079c531659141344cd1fd0a4f28419497f9722a3daafe3b4186f6b6457e0\n      mload(0x40)\n      mload(0x40)\n      dup1\n      swap2\n      sub\n      swap1\n      log3\n        /* \"@chainlink/contracts/src/v0.8/ConfirmedOwnerWithProposal.sol\":1061:1281  {... */\n      pop\n        /* \"@chainlink/contracts/src/v0.8/ConfirmedOwnerWithProposal.sol\":1016:1281  function acceptOwnership() external override {... */\n      jump\t// out\n        /* \"LinkBin/giveaway.sol\":1351:1378  uint256[] public requestIds */\n    tag_22:\n      0x04\n      dup2\n      dup2\n      sload\n      dup2\n      lt\n      tag_59\n      jumpi\n      0x00\n      dup1\n      revert\n    tag_59:\n      swap1\n      0x00\n      mstore\n      keccak256(0x00, 0x20)\n      add\n      0x00\n      swap2\n      pop\n      swap1\n      pop\n      sload\n      dup2\n      jump\t// out\n        /* \"@chainlink/contracts/src/v0.8/ConfirmedOwnerWithProposal.sol\":1332:1413  function owner() public view override returns (address) {... */\n    tag_26:\n        /* \"@chainlink/contracts/src/v0.8/ConfirmedOwnerWithProposal.sol\":1379:1386  address */\n      0x00\n        /* \"@chainlink/contracts/src/v0.8/ConfirmedOwnerWithProposal.sol\":1401:1408  s_owner */\n      dup1\n      0x00\n      swap1\n      sload\n      swap1\n      0x0100\n      exp\n      swap1\n      div\n      0xffffffffffffffffffffffffffffffffffffffff\n      and\n        /* \"@chainlink/contracts/src/v0.8/ConfirmedOwnerWithProposal.sol\":1394:1408  return s_owner */\n      swap1\n      pop\n        /* \"@chainlink/contracts/src/v0.8/ConfirmedOwnerWithProposal.sol\":1332:1413  function owner() public view override returns (address) {... */\n      swap1\n      jump\t// out\n        /* \"LinkBin/giveaway.sol\":1124:1183  mapping(uint256 => RequestStatus)... */\n    tag_31:\n      mstore(0x20, 0x02)\n      dup1\n      0x00\n      mstore\n      keccak256(0x00, 0x40)\n      0x00\n      swap2\n      pop\n      swap1\n      pop\n      dup1\n      0x00\n      add\n      0x00\n      swap1\n      sload\n      swap1\n      0x0100\n      exp\n      swap1\n      div\n      0xff\n      and\n      swap1\n      dup1\n      0x00\n      add\n      0x01\n      swap1\n      sload\n      swap1\n      0x0100\n      exp\n      swap1\n      div\n      0xff\n      and\n      swap1\n      pop\n      dup3\n      jump\t// out\n        /* \"LinkBin/giveaway.sol\":3975:4300  function getRequestStatus(... */\n    tag_36:\n        /* \"LinkBin/giveaway.sol\":4058:4072  bool fulfilled */\n      0x00\n        /* \"LinkBin/giveaway.sol\":4074:4102  uint256[] memory randomWords */\n      0x60\n        /* \"LinkBin/giveaway.sol\":4122:4132  s_requests */\n      0x02\n        /* \"LinkBin/giveaway.sol\":4122:4144  s_requests[_requestId] */\n      0x00\n        /* \"LinkBin/giveaway.sol\":4133:4143  _requestId */\n      dup5\n        /* \"LinkBin/giveaway.sol\":4122:4144  s_requests[_requestId] */\n      dup2\n      mstore\n      0x20\n      add\n      swap1\n      dup2\n      mstore\n      0x20\n      add\n      0x00\n      keccak256\n        /* \"LinkBin/giveaway.sol\":4122:4151  s_requests[_requestId].exists */\n      0x00\n      add\n      0x01\n      swap1\n      sload\n      swap1\n      0x0100\n      exp\n      swap1\n      div\n      0xff\n      and\n        /* \"LinkBin/giveaway.sol\":4114:4173  require(s_requests[_requestId].exists, \"request not found\") */\n      tag_63\n      jumpi\n      mload(0x40)\n      0x08c379a000000000000000000000000000000000000000000000000000000000\n      dup2\n      mstore\n      0x04\n      add\n      tag_64\n      swap1\n      tag_65\n      jump\t// in\n    tag_64:\n      mload(0x40)\n      dup1\n      swap2\n      sub\n      swap1\n      revert\n    tag_63:\n        /* \"LinkBin/giveaway.sol\":4183:4211  RequestStatus memory request */\n      0x00\n        /* \"LinkBin/giveaway.sol\":4214:4224  s_requests */\n      0x02\n        /* \"LinkBin/giveaway.sol\":4214:4236  s_requests[_requestId] */\n      0x00\n        /* \"LinkBin/giveaway.sol\":4225:4235  _requestId */\n      dup6\n        /* \"LinkBin/giveaway.sol\":4214:4236  s_requests[_requestId] */\n      dup2\n      mstore\n      0x20\n      add\n      swap1\n      dup2\n      mstore\n      0x20\n      add\n      0x00\n      keccak256\n        /* \"LinkBin/giveaway.sol\":4183:4236  RequestStatus memory request = s_requests[_requestId] */\n      mload(0x40)\n      dup1\n      0x60\n      add\n      0x40\n      mstore\n      swap1\n      dup2\n      0x00\n      dup3\n      add\n      0x00\n      swap1\n      sload\n      swap1\n      0x0100\n      exp\n      swap1\n      div\n      0xff\n      and\n      iszero\n      iszero\n      iszero\n      iszero\n      dup2\n      mstore\n      0x20\n      add\n      0x00\n      dup3\n      add\n      0x01\n      swap1\n      sload\n      swap1\n      0x0100\n      exp\n      swap1\n      div\n      0xff\n      and\n      iszero\n      iszero\n      iszero\n      iszero\n      dup2\n      mstore\n      0x20\n      add\n      0x01\n      dup3\n      add\n      dup1\n      sload\n      dup1\n      0x20\n      mul\n      0x20\n      add\n      mload(0x40)\n      swap1\n      dup2\n      add\n      0x40\n      mstore\n      dup1\n      swap3\n      swap2\n      swap1\n      dup2\n      dup2\n      mstore\n      0x20\n      add\n      dup3\n      dup1\n      sload\n      dup1\n      iszero\n      tag_66\n      jumpi\n      0x20\n      mul\n      dup3\n      add\n      swap2\n      swap1\n      0x00\n      mstore\n      keccak256(0x00, 0x20)\n      swap1\n    tag_67:\n      dup2\n      sload\n      dup2\n      mstore\n      0x20\n      add\n      swap1\n      0x01\n      add\n      swap1\n      dup1\n      dup4\n      gt\n      tag_67\n      jumpi\n    tag_66:\n      pop\n      pop\n      pop\n      pop\n      pop\n      dup2\n      mstore\n      pop\n      pop\n      swap1\n      pop\n        /* \"LinkBin/giveaway.sol\":4254:4261  request */\n      dup1\n        /* \"LinkBin/giveaway.sol\":4254:4271  request.fulfilled */\n      0x00\n      add\n      mload\n        /* \"LinkBin/giveaway.sol\":4273:4280  request */\n      dup2\n        /* \"LinkBin/giveaway.sol\":4273:4292  request.randomWords */\n      0x40\n      add\n      mload\n        /* \"LinkBin/giveaway.sol\":4246:4293  return (request.fulfilled, request.randomWords) */\n      swap3\n      pop\n      swap3\n      pop\n      pop\n        /* \"LinkBin/giveaway.sol\":3975:4300  function getRequestStatus(... */\n      swap2\n      pop\n      swap2\n      jump\t// out\n        /* \"LinkBin/giveaway.sol\":2928:3603  function requestRandomWords()... */\n    tag_40:\n        /* \"LinkBin/giveaway.sol\":3010:3027  uint256 requestId */\n      0x00\n        /* \"@chainlink/contracts/src/v0.8/ConfirmedOwnerWithProposal.sol\":1956:1976  _validateOwnership() */\n      tag_69\n        /* \"@chainlink/contracts/src/v0.8/ConfirmedOwnerWithProposal.sol\":1956:1974  _validateOwnership */\n      tag_70\n        /* \"@chainlink/contracts/src/v0.8/ConfirmedOwnerWithProposal.sol\":1956:1976  _validateOwnership() */\n      jump\t// in\n    tag_69:\n        /* \"LinkBin/giveaway.sol\":3117:3128  COORDINATOR */\n      0x03\n      0x00\n      swap1\n      sload\n      swap1\n      0x0100\n      exp\n      swap1\n      div\n      0xffffffffffffffffffffffffffffffffffffffff\n      and\n        /* \"LinkBin/giveaway.sol\":3117:3147  COORDINATOR.requestRandomWords */\n      0xffffffffffffffffffffffffffffffffffffffff\n      and\n      0x5d3b1d30\n        /* \"LinkBin/giveaway.sol\":3161:3168  keyHash */\n      sload(0x06)\n        /* \"LinkBin/giveaway.sol\":3182:3198  s_subscriptionId */\n      0x03\n      0x14\n      swap1\n      sload\n      swap1\n      0x0100\n      exp\n      swap1\n      div\n      0xffffffffffffffff\n      and\n        /* \"LinkBin/giveaway.sol\":3212:3232  requestConfirmations */\n      0x07\n      0x04\n      swap1\n      sload\n      swap1\n      0x0100\n      exp\n      swap1\n      div\n      0xffff\n      and\n        /* \"LinkBin/giveaway.sol\":3246:3262  callbackGasLimit */\n      0x07\n      0x00\n      swap1\n      sload\n      swap1\n      0x0100\n      exp\n      swap1\n      div\n      0xffffffff\n      and\n        /* \"LinkBin/giveaway.sol\":3276:3284  numWords */\n      0x07\n      0x06\n      swap1\n      sload\n      swap1\n      0x0100\n      exp\n      swap1\n      div\n      0xffffffff\n      and\n        /* \"LinkBin/giveaway.sol\":3117:3294  COORDINATOR.requestRandomWords(... */\n      mload(0x40)\n      dup7\n      0xffffffff\n      and\n      0xe0\n      shl\n      dup2\n      mstore\n      0x04\n      add\n      tag_72\n      swap6\n      swap5\n      swap4\n      swap3\n      swap2\n      swap1\n      tag_73\n      jump\t// in\n    tag_72:\n      0x20\n      mload(0x40)\n      dup1\n      dup4\n      sub\n      dup2\n      0x00\n      dup8\n      gas\n      call\n      iszero\n      dup1\n      iszero\n      tag_75\n      jumpi\n      returndatasize\n      0x00\n      dup1\n      returndatacopy\n      revert(0x00, returndatasize)\n    tag_75:\n      pop\n      pop\n      pop\n      pop\n      mload(0x40)\n      returndatasize\n      not(0x1f)\n      0x1f\n      dup3\n      add\n      and\n      dup3\n      add\n      dup1\n      0x40\n      mstore\n      pop\n      dup2\n      add\n      swap1\n      tag_76\n      swap2\n      swap1\n      tag_77\n      jump\t// in\n    tag_76:\n        /* \"LinkBin/giveaway.sol\":3105:3294  requestId = COORDINATOR.requestRandomWords(... */\n      swap1\n      pop\n        /* \"LinkBin/giveaway.sol\":3328:3452  RequestStatus({... */\n      mload(0x40)\n      dup1\n      0x60\n      add\n      0x40\n      mstore\n      dup1\n        /* \"LinkBin/giveaway.sol\":3436:3441  false */\n      0x00\n        /* \"LinkBin/giveaway.sol\":3328:3452  RequestStatus({... */\n      iszero\n      iszero\n      dup2\n      mstore\n      0x20\n      add\n        /* \"LinkBin/giveaway.sol\":3407:3411  true */\n      0x01\n        /* \"LinkBin/giveaway.sol\":3328:3452  RequestStatus({... */\n      iszero\n      iszero\n      dup2\n      mstore\n      0x20\n      add\n        /* \"LinkBin/giveaway.sol\":3383:3384  0 */\n      0x00\n        /* \"LinkBin/giveaway.sol\":3369:3385  new uint256[](0) */\n      0xffffffffffffffff\n      dup2\n      gt\n      iszero\n      tag_78\n      jumpi\n      tag_79\n      tag_80\n      jump\t// in\n    tag_79:\n    tag_78:\n      mload(0x40)\n      swap1\n      dup1\n      dup3\n      mstore\n      dup1\n      0x20\n      mul\n      0x20\n      add\n      dup3\n      add\n      0x40\n      mstore\n      dup1\n      iszero\n      tag_81\n      jumpi\n      dup2\n      0x20\n      add\n      0x20\n      dup3\n      mul\n      dup1\n      calldatasize\n      dup4\n      calldatacopy\n      dup1\n      dup3\n      add\n      swap2\n      pop\n      pop\n      swap1\n      pop\n    tag_81:\n      pop\n        /* \"LinkBin/giveaway.sol\":3328:3452  RequestStatus({... */\n      dup2\n      mstore\n      pop\n        /* \"LinkBin/giveaway.sol\":3304:3314  s_requests */\n      0x02\n        /* \"LinkBin/giveaway.sol\":3304:3325  s_requests[requestId] */\n      0x00\n        /* \"LinkBin/giveaway.sol\":3315:3324  requestId */\n      dup4\n        /* \"LinkBin/giveaway.sol\":3304:3325  s_requests[requestId] */\n      dup2\n      mstore\n      0x20\n      add\n      swap1\n      dup2\n      mstore\n      0x20\n      add\n      0x00\n      keccak256\n        /* \"LinkBin/giveaway.sol\":3304:3452  s_requests[requestId] = RequestStatus({... */\n      0x00\n      dup3\n      add\n      mload\n      dup2\n      0x00\n      add\n      exp(0x0100, 0x00)\n      dup2\n      sload\n      dup2\n      0xff\n      mul\n      not\n      and\n      swap1\n      dup4\n      iszero\n      iszero\n      mul\n      or\n      swap1\n      sstore\n      pop\n      0x20\n      dup3\n      add\n      mload\n      dup2\n      0x00\n      add\n      exp(0x0100, 0x01)\n      dup2\n      sload\n      dup2\n      0xff\n      mul\n      not\n      and\n      swap1\n      dup4\n      iszero\n      iszero\n      mul\n      or\n      swap1\n      sstore\n      pop\n      0x40\n      dup3\n      add\n      mload\n      dup2\n      0x01\n      add\n      swap1\n      dup1\n      mload\n      swap1\n      0x20\n      add\n      swap1\n      tag_82\n      swap3\n      swap2\n      swap1\n      tag_83\n      jump\t// in\n    tag_82:\n      pop\n      swap1\n      pop\n      pop\n        /* \"LinkBin/giveaway.sol\":3462:3472  requestIds */\n      0x04\n        /* \"LinkBin/giveaway.sol\":3478:3487  requestId */\n      dup2\n        /* \"LinkBin/giveaway.sol\":3462:3488  requestIds.push(requestId) */\n      swap1\n      dup1\n      0x01\n      dup2\n      sload\n      add\n      dup1\n      dup3\n      sstore\n      dup1\n      swap2\n      pop\n      pop\n      0x01\n      swap1\n      sub\n      swap1\n      0x00\n      mstore\n      keccak256(0x00, 0x20)\n      add\n      0x00\n      swap1\n      swap2\n      swap1\n      swap2\n      swap1\n      swap2\n      pop\n      sstore\n        /* \"LinkBin/giveaway.sol\":3514:3523  requestId */\n      dup1\n        /* \"LinkBin/giveaway.sol\":3498:3511  lastRequestId */\n      0x05\n        /* \"LinkBin/giveaway.sol\":3498:3523  lastRequestId = requestId */\n      dup2\n      swap1\n      sstore\n      pop\n        /* \"LinkBin/giveaway.sol\":3538:3570  RequestSent(requestId, numWords) */\n      0xcc58b13ad3eab50626c6a6300b1d139cd6ebb1688a7cced9461c2f7e762665ee\n        /* \"LinkBin/giveaway.sol\":3550:3559  requestId */\n      dup2\n        /* \"LinkBin/giveaway.sol\":3561:3569  numWords */\n      0x07\n      0x06\n      swap1\n      sload\n      swap1\n      0x0100\n      exp\n      swap1\n      div\n      0xffffffff\n      and\n        /* \"LinkBin/giveaway.sol\":3538:3570  RequestSent(requestId, numWords) */\n      mload(0x40)\n      tag_85\n      swap3\n      swap2\n      swap1\n      tag_86\n      jump\t// in\n    tag_85:\n      mload(0x40)\n      dup1\n      swap2\n      sub\n      swap1\n      log1\n        /* \"LinkBin/giveaway.sol\":2928:3603  function requestRandomWords()... */\n      swap1\n      jump\t// out\n        /* \"@chainlink/contracts/src/v0.8/ConfirmedOwnerWithProposal.sol\":826:924  function transferOwnership(address to) public override onlyOwner {... */\n    tag_45:\n        /* \"@chainlink/contracts/src/v0.8/ConfirmedOwnerWithProposal.sol\":1956:1976  _validateOwnership() */\n      tag_88\n        /* \"@chainlink/contracts/src/v0.8/ConfirmedOwnerWithProposal.sol\":1956:1974  _validateOwnership */\n      tag_70\n        /* \"@chainlink/contracts/src/v0.8/ConfirmedOwnerWithProposal.sol\":1956:1976  _validateOwnership() */\n      jump\t// in\n    tag_88:\n        /* \"@chainlink/contracts/src/v0.8/ConfirmedOwnerWithProposal.sol\":897:919  _transferOwnership(to) */\n      tag_90\n        /* \"@chainlink/contracts/src/v0.8/ConfirmedOwnerWithProposal.sol\":916:918  to */\n      dup2\n        /* \"@chainlink/contracts/src/v0.8/ConfirmedOwnerWithProposal.sol\":897:915  _transferOwnership */\n      tag_91\n        /* \"@chainlink/contracts/src/v0.8/ConfirmedOwnerWithProposal.sol\":897:919  _transferOwnership(to) */\n      jump\t// in\n    tag_90:\n        /* \"@chainlink/contracts/src/v0.8/ConfirmedOwnerWithProposal.sol\":826:924  function transferOwnership(address to) public override onlyOwner {... */\n      pop\n      jump\t// out\n        /* \"LinkBin/giveaway.sol\":1384:1412  uint256 public lastRequestId */\n    tag_47:\n      sload(0x05)\n      dup2\n      jump\t// out\n        /* \"LinkBin/giveaway.sol\":3609:3969  function fulfillRandomWords(... */\n    tag_54:\n        /* \"LinkBin/giveaway.sol\":3746:3756  s_requests */\n      0x02\n        /* \"LinkBin/giveaway.sol\":3746:3768  s_requests[_requestId] */\n      0x00\n        /* \"LinkBin/giveaway.sol\":3757:3767  _requestId */\n      dup4\n        /* \"LinkBin/giveaway.sol\":3746:3768  s_requests[_requestId] */\n      dup2\n      mstore\n      0x20\n      add\n      swap1\n      dup2\n      mstore\n      0x20\n      add\n      0x00\n      keccak256\n        /* \"LinkBin/giveaway.sol\":3746:3775  s_requests[_requestId].exists */\n      0x00\n      add\n      0x01\n      swap1\n      sload\n      swap1\n      0x0100\n      exp\n      swap1\n      div\n      0xff\n      and\n        /* \"LinkBin/giveaway.sol\":3738:3797  require(s_requests[_requestId].exists, \"request not found\") */\n      tag_93\n      jumpi\n      mload(0x40)\n      0x08c379a000000000000000000000000000000000000000000000000000000000\n      dup2\n      mstore\n      0x04\n      add\n      tag_94\n      swap1\n      tag_65\n      jump\t// in\n    tag_94:\n      mload(0x40)\n      dup1\n      swap2\n      sub\n      swap1\n      revert\n    tag_93:\n        /* \"LinkBin/giveaway.sol\":3842:3846  true */\n      0x01\n        /* \"LinkBin/giveaway.sol\":3807:3817  s_requests */\n      0x02\n        /* \"LinkBin/giveaway.sol\":3807:3829  s_requests[_requestId] */\n      0x00\n        /* \"LinkBin/giveaway.sol\":3818:3828  _requestId */\n      dup5\n        /* \"LinkBin/giveaway.sol\":3807:3829  s_requests[_requestId] */\n      dup2\n      mstore\n      0x20\n      add\n      swap1\n      dup2\n      mstore\n      0x20\n      add\n      0x00\n      keccak256\n        /* \"LinkBin/giveaway.sol\":3807:3839  s_requests[_requestId].fulfilled */\n      0x00\n      add\n      0x00\n        /* \"LinkBin/giveaway.sol\":3807:3846  s_requests[_requestId].fulfilled = true */\n      0x0100\n      exp\n      dup2\n      sload\n      dup2\n      0xff\n      mul\n      not\n      and\n      swap1\n      dup4\n      iszero\n      iszero\n      mul\n      or\n      swap1\n      sstore\n      pop\n        /* \"LinkBin/giveaway.sol\":3893:3905  _randomWords */\n      dup1\n        /* \"LinkBin/giveaway.sol\":3856:3866  s_requests */\n      0x02\n        /* \"LinkBin/giveaway.sol\":3856:3878  s_requests[_requestId] */\n      0x00\n        /* \"LinkBin/giveaway.sol\":3867:3877  _requestId */\n      dup5\n        /* \"LinkBin/giveaway.sol\":3856:3878  s_requests[_requestId] */\n      dup2\n      mstore\n      0x20\n      add\n      swap1\n      dup2\n      mstore\n      0x20\n      add\n      0x00\n      keccak256\n        /* \"LinkBin/giveaway.sol\":3856:3890  s_requests[_requestId].randomWords */\n      0x01\n      add\n        /* \"LinkBin/giveaway.sol\":3856:3905  s_requests[_requestId].randomWords = _randomWords */\n      swap1\n      dup1\n      mload\n      swap1\n      0x20\n      add\n      swap1\n      tag_95\n      swap3\n      swap2\n      swap1\n      tag_83\n      jump\t// in\n    tag_95:\n      pop\n        /* \"LinkBin/giveaway.sol\":3920:3962  RequestFulfilled(_requestId, _randomWords) */\n      0xfe2e2d779dba245964d4e3ef9b994be63856fd568bf7d3ca9e224755cb1bd54d\n        /* \"LinkBin/giveaway.sol\":3937:3947  _requestId */\n      dup3\n        /* \"LinkBin/giveaway.sol\":3949:3961  _randomWords */\n      dup3\n        /* \"LinkBin/giveaway.sol\":3920:3962  RequestFulfilled(_requestId, _randomWords) */\n      mload(0x40)\n      tag_96\n      swap3\n      swap2\n      swap1\n      tag_97\n      jump\t// in\n    tag_96:\n      mload(0x40)\n      dup1\n      swap2\n      sub\n      swap1\n      log1\n        /* \"LinkBin/giveaway.sol\":3609:3969  function fulfillRandomWords(... */\n      pop\n      pop\n      jump\t// out\n        /* \"@chainlink/contracts/src/v0.8/ConfirmedOwnerWithProposal.sol\":1730:1841  function _validateOwnership() internal view {... */\n    tag_70:\n        /* \"@chainlink/contracts/src/v0.8/ConfirmedOwnerWithProposal.sol\":1802:1809  s_owner */\n      0x00\n      dup1\n      sload\n      swap1\n      0x0100\n      exp\n      swap1\n      div\n      0xffffffffffffffffffffffffffffffffffffffff\n      and\n        /* \"@chainlink/contracts/src/v0.8/ConfirmedOwnerWithProposal.sol\":1788:1809  msg.sender == s_owner */\n      0xffffffffffffffffffffffffffffffffffffffff\n      and\n        /* \"@chainlink/contracts/src/v0.8/ConfirmedOwnerWithProposal.sol\":1788:1798  msg.sender */\n      caller\n        /* \"@chainlink/contracts/src/v0.8/ConfirmedOwnerWithProposal.sol\":1788:1809  msg.sender == s_owner */\n      0xffffffffffffffffffffffffffffffffffffffff\n      and\n      eq\n        /* \"@chainlink/contracts/src/v0.8/ConfirmedOwnerWithProposal.sol\":1780:1836  require(msg.sender == s_owner, \"Only callable by owner\") */\n      tag_99\n      jumpi\n      mload(0x40)\n      0x08c379a000000000000000000000000000000000000000000000000000000000\n      dup2\n      mstore\n      0x04\n      add\n      tag_100\n      swap1\n      tag_101\n      jump\t// in\n    tag_100:\n      mload(0x40)\n      dup1\n      swap2\n      sub\n      swap1\n      revert\n    tag_99:\n        /* \"@chainlink/contracts/src/v0.8/ConfirmedOwnerWithProposal.sol\":1730:1841  function _validateOwnership() internal view {... */\n      jump\t// out\n        /* \"@chainlink/contracts/src/v0.8/ConfirmedOwnerWithProposal.sol\":1497:1685  function _transferOwnership(address to) private {... */\n    tag_91:\n        /* \"@chainlink/contracts/src/v0.8/ConfirmedOwnerWithProposal.sol\":1565:1575  msg.sender */\n      caller\n        /* \"@chainlink/contracts/src/v0.8/ConfirmedOwnerWithProposal.sol\":1559:1575  to != msg.sender */\n      0xffffffffffffffffffffffffffffffffffffffff\n      and\n        /* \"@chainlink/contracts/src/v0.8/ConfirmedOwnerWithProposal.sol\":1559:1561  to */\n      dup2\n        /* \"@chainlink/contracts/src/v0.8/ConfirmedOwnerWithProposal.sol\":1559:1575  to != msg.sender */\n      0xffffffffffffffffffffffffffffffffffffffff\n      and\n      sub\n        /* \"@chainlink/contracts/src/v0.8/ConfirmedOwnerWithProposal.sol\":1551:1603  require(to != msg.sender, \"Cannot transfer to self\") */\n      tag_103\n      jumpi\n      mload(0x40)\n      0x08c379a000000000000000000000000000000000000000000000000000000000\n      dup2\n      mstore\n      0x04\n      add\n      tag_104\n      swap1\n      tag_105\n      jump\t// in\n    tag_104:\n      mload(0x40)\n      dup1\n      swap2\n      sub\n      swap1\n      revert\n    tag_103:\n        /* \"@chainlink/contracts/src/v0.8/ConfirmedOwnerWithProposal.sol\":1627:1629  to */\n      dup1\n        /* \"@chainlink/contracts/src/v0.8/ConfirmedOwnerWithProposal.sol\":1610:1624  s_pendingOwner */\n      0x01\n      0x00\n        /* \"@chainlink/contracts/src/v0.8/ConfirmedOwnerWithProposal.sol\":1610:1629  s_pendingOwner = to */\n      0x0100\n      exp\n      dup2\n      sload\n      dup2\n      0xffffffffffffffffffffffffffffffffffffffff\n      mul\n      not\n      and\n      swap1\n      dup4\n      0xffffffffffffffffffffffffffffffffffffffff\n      and\n      mul\n      or\n      swap1\n      sstore\n      pop\n        /* \"@chainlink/contracts/src/v0.8/ConfirmedOwnerWithProposal.sol\":1677:1679  to */\n      dup1\n        /* \"@chainlink/contracts/src/v0.8/ConfirmedOwnerWithProposal.sol\":1641:1680  OwnershipTransferRequested(s_owner, to) */\n      0xffffffffffffffffffffffffffffffffffffffff\n      and\n        /* \"@chainlink/contracts/src/v0.8/ConfirmedOwnerWithProposal.sol\":1668:1675  s_owner */\n      0x00\n      dup1\n      sload\n      swap1\n      0x0100\n      exp\n      swap1\n      div\n      0xffffffffffffffffffffffffffffffffffffffff\n      and\n        /* \"@chainlink/contracts/src/v0.8/ConfirmedOwnerWithProposal.sol\":1641:1680  OwnershipTransferRequested(s_owner, to) */\n      0xffffffffffffffffffffffffffffffffffffffff\n      and\n      0xed8889f560326eb138920d842192f0eb3dd22b4f139c87a2c57538e05bae1278\n      mload(0x40)\n      mload(0x40)\n      dup1\n      swap2\n      sub\n      swap1\n      log3\n        /* \"@chainlink/contracts/src/v0.8/ConfirmedOwnerWithProposal.sol\":1497:1685  function _transferOwnership(address to) private {... */\n      pop\n      jump\t// out\n    tag_83:\n      dup3\n      dup1\n      sload\n      dup3\n      dup3\n      sstore\n      swap1\n      0x00\n      mstore\n      keccak256(0x00, 0x20)\n      swap1\n      dup2\n      add\n      swap3\n      dup3\n      iszero\n      tag_106\n      jumpi\n      swap2\n      0x20\n      mul\n      dup3\n      add\n    tag_107:\n      dup3\n      dup2\n      gt\n      iszero\n      tag_108\n      jumpi\n      dup3\n      mload\n      dup3\n      sstore\n      swap2\n      0x20\n      add\n      swap2\n      swap1\n      0x01\n      add\n      swap1\n      jump(tag_107)\n    tag_108:\n    tag_106:\n      pop\n      swap1\n      pop\n      tag_109\n      swap2\n      swap1\n      tag_110\n      jump\t// in\n    tag_109:\n      pop\n      swap1\n      jump\t// out\n    tag_110:\n    tag_111:\n      dup1\n      dup3\n      gt\n      iszero\n      tag_112\n      jumpi\n      0x00\n      dup2\n      0x00\n      swap1\n      sstore\n      pop\n      0x01\n      add\n      jump(tag_111)\n    tag_112:\n      pop\n      swap1\n      jump\t// out\n        /* \"#utility.yul\":7:82   */\n    tag_113:\n        /* \"#utility.yul\":40:46   */\n      0x00\n        /* \"#utility.yul\":73:75   */\n      0x40\n        /* \"#utility.yul\":67:76   */\n      mload\n        /* \"#utility.yul\":57:76   */\n      swap1\n      pop\n        /* \"#utility.yul\":7:82   */\n      swap1\n      jump\t// out\n        /* \"#utility.yul\":88:205   */\n    tag_114:\n        /* \"#utility.yul\":197:198   */\n      0x00\n        /* \"#utility.yul\":194:195   */\n      dup1\n        /* \"#utility.yul\":187:199   */\n      revert\n        /* \"#utility.yul\":211:328   */\n    tag_115:\n        /* \"#utility.yul\":320:321   */\n      0x00\n        /* \"#utility.yul\":317:318   */\n      dup1\n        /* \"#utility.yul\":310:322   */\n      revert\n        /* \"#utility.yul\":334:411   */\n    tag_116:\n        /* \"#utility.yul\":371:378   */\n      0x00\n        /* \"#utility.yul\":400:405   */\n      dup2\n        /* \"#utility.yul\":389:405   */\n      swap1\n      pop\n        /* \"#utility.yul\":334:411   */\n      swap2\n      swap1\n      pop\n      jump\t// out\n        /* \"#utility.yul\":417:539   */\n    tag_117:\n        /* \"#utility.yul\":490:514   */\n      tag_166\n        /* \"#utility.yul\":508:513   */\n      dup2\n        /* \"#utility.yul\":490:514   */\n      tag_116\n      jump\t// in\n    tag_166:\n        /* \"#utility.yul\":483:488   */\n      dup2\n        /* \"#utility.yul\":480:515   */\n      eq\n        /* \"#utility.yul\":470:533   */\n      tag_167\n      jumpi\n        /* \"#utility.yul\":529:530   */\n      0x00\n        /* \"#utility.yul\":526:527   */\n      dup1\n        /* \"#utility.yul\":519:531   */\n      revert\n        /* \"#utility.yul\":470:533   */\n    tag_167:\n        /* \"#utility.yul\":417:539   */\n      pop\n      jump\t// out\n        /* \"#utility.yul\":545:684   */\n    tag_118:\n        /* \"#utility.yul\":591:596   */\n      0x00\n        /* \"#utility.yul\":629:635   */\n      dup2\n        /* \"#utility.yul\":616:636   */\n      calldataload\n        /* \"#utility.yul\":607:636   */\n      swap1\n      pop\n        /* \"#utility.yul\":645:678   */\n      tag_169\n        /* \"#utility.yul\":672:677   */\n      dup2\n        /* \"#utility.yul\":645:678   */\n      tag_117\n      jump\t// in\n    tag_169:\n        /* \"#utility.yul\":545:684   */\n      swap3\n      swap2\n      pop\n      pop\n      jump\t// out\n        /* \"#utility.yul\":690:807   */\n    tag_119:\n        /* \"#utility.yul\":799:800   */\n      0x00\n        /* \"#utility.yul\":796:797   */\n      dup1\n        /* \"#utility.yul\":789:801   */\n      revert\n        /* \"#utility.yul\":813:915   */\n    tag_120:\n        /* \"#utility.yul\":854:860   */\n      0x00\n        /* \"#utility.yul\":905:907   */\n      0x1f\n        /* \"#utility.yul\":901:908   */\n      not\n        /* \"#utility.yul\":896:898   */\n      0x1f\n        /* \"#utility.yul\":889:894   */\n      dup4\n        /* \"#utility.yul\":885:899   */\n      add\n        /* \"#utility.yul\":881:909   */\n      and\n        /* \"#utility.yul\":871:909   */\n      swap1\n      pop\n        /* \"#utility.yul\":813:915   */\n      swap2\n      swap1\n      pop\n      jump\t// out\n        /* \"#utility.yul\":921:1101   */\n    tag_80:\n        /* \"#utility.yul\":969:1046   */\n      0x4e487b7100000000000000000000000000000000000000000000000000000000\n        /* \"#utility.yul\":966:967   */\n      0x00\n        /* \"#utility.yul\":959:1047   */\n      mstore\n        /* \"#utility.yul\":1066:1070   */\n      0x41\n        /* \"#utility.yul\":1063:1064   */\n      0x04\n        /* \"#utility.yul\":1056:1071   */\n      mstore\n        /* \"#utility.yul\":1090:1094   */\n      0x24\n        /* \"#utility.yul\":1087:1088   */\n      0x00\n        /* \"#utility.yul\":1080:1095   */\n      revert\n        /* \"#utility.yul\":1107:1388   */\n    tag_121:\n        /* \"#utility.yul\":1190:1217   */\n      tag_174\n        /* \"#utility.yul\":1212:1216   */\n      dup3\n        /* \"#utility.yul\":1190:1217   */\n      tag_120\n      jump\t// in\n    tag_174:\n        /* \"#utility.yul\":1182:1188   */\n      dup2\n        /* \"#utility.yul\":1178:1218   */\n      add\n        /* \"#utility.yul\":1320:1326   */\n      dup2\n        /* \"#utility.yul\":1308:1318   */\n      dup2\n        /* \"#utility.yul\":1305:1327   */\n      lt\n        /* \"#utility.yul\":1284:1302   */\n      0xffffffffffffffff\n        /* \"#utility.yul\":1272:1282   */\n      dup3\n        /* \"#utility.yul\":1269:1303   */\n      gt\n        /* \"#utility.yul\":1266:1328   */\n      or\n        /* \"#utility.yul\":1263:1351   */\n      iszero\n      tag_175\n      jumpi\n        /* \"#utility.yul\":1331:1349   */\n      tag_176\n      tag_80\n      jump\t// in\n    tag_176:\n        /* \"#utility.yul\":1263:1351   */\n    tag_175:\n        /* \"#utility.yul\":1371:1381   */\n      dup1\n        /* \"#utility.yul\":1367:1369   */\n      0x40\n        /* \"#utility.yul\":1360:1382   */\n      mstore\n        /* \"#utility.yul\":1150:1388   */\n      pop\n        /* \"#utility.yul\":1107:1388   */\n      pop\n      pop\n      jump\t// out\n        /* \"#utility.yul\":1394:1523   */\n    tag_122:\n        /* \"#utility.yul\":1428:1434   */\n      0x00\n        /* \"#utility.yul\":1455:1475   */\n      tag_178\n      tag_113\n      jump\t// in\n    tag_178:\n        /* \"#utility.yul\":1445:1475   */\n      swap1\n      pop\n        /* \"#utility.yul\":1484:1517   */\n      tag_179\n        /* \"#utility.yul\":1512:1516   */\n      dup3\n        /* \"#utility.yul\":1504:1510   */\n      dup3\n        /* \"#utility.yul\":1484:1517   */\n      tag_121\n      jump\t// in\n    tag_179:\n        /* \"#utility.yul\":1394:1523   */\n      swap2\n      swap1\n      pop\n      jump\t// out\n        /* \"#utility.yul\":1529:1840   */\n    tag_123:\n        /* \"#utility.yul\":1606:1610   */\n      0x00\n        /* \"#utility.yul\":1696:1714   */\n      0xffffffffffffffff\n        /* \"#utility.yul\":1688:1694   */\n      dup3\n        /* \"#utility.yul\":1685:1715   */\n      gt\n        /* \"#utility.yul\":1682:1738   */\n      iszero\n      tag_181\n      jumpi\n        /* \"#utility.yul\":1718:1736   */\n      tag_182\n      tag_80\n      jump\t// in\n    tag_182:\n        /* \"#utility.yul\":1682:1738   */\n    tag_181:\n        /* \"#utility.yul\":1768:1772   */\n      0x20\n        /* \"#utility.yul\":1760:1766   */\n      dup3\n        /* \"#utility.yul\":1756:1773   */\n      mul\n        /* \"#utility.yul\":1748:1773   */\n      swap1\n      pop\n        /* \"#utility.yul\":1828:1832   */\n      0x20\n        /* \"#utility.yul\":1822:1826   */\n      dup2\n        /* \"#utility.yul\":1818:1833   */\n      add\n        /* \"#utility.yul\":1810:1833   */\n      swap1\n      pop\n        /* \"#utility.yul\":1529:1840   */\n      swap2\n      swap1\n      pop\n      jump\t// out\n        /* \"#utility.yul\":1846:1963   */\n    tag_124:\n        /* \"#utility.yul\":1955:1956   */\n      0x00\n        /* \"#utility.yul\":1952:1953   */\n      dup1\n        /* \"#utility.yul\":1945:1957   */\n      revert\n        /* \"#utility.yul\":1986:2696   */\n    tag_125:\n        /* \"#utility.yul\":2082:2087   */\n      0x00\n        /* \"#utility.yul\":2107:2188   */\n      tag_185\n        /* \"#utility.yul\":2123:2187   */\n      tag_186\n        /* \"#utility.yul\":2180:2186   */\n      dup5\n        /* \"#utility.yul\":2123:2187   */\n      tag_123\n      jump\t// in\n    tag_186:\n        /* \"#utility.yul\":2107:2188   */\n      tag_122\n      jump\t// in\n    tag_185:\n        /* \"#utility.yul\":2098:2188   */\n      swap1\n      pop\n        /* \"#utility.yul\":2208:2213   */\n      dup1\n        /* \"#utility.yul\":2237:2243   */\n      dup4\n        /* \"#utility.yul\":2230:2235   */\n      dup3\n        /* \"#utility.yul\":2223:2244   */\n      mstore\n        /* \"#utility.yul\":2271:2275   */\n      0x20\n        /* \"#utility.yul\":2264:2269   */\n      dup3\n        /* \"#utility.yul\":2260:2276   */\n      add\n        /* \"#utility.yul\":2253:2276   */\n      swap1\n      pop\n        /* \"#utility.yul\":2324:2328   */\n      0x20\n        /* \"#utility.yul\":2316:2322   */\n      dup5\n        /* \"#utility.yul\":2312:2329   */\n      mul\n        /* \"#utility.yul\":2304:2310   */\n      dup4\n        /* \"#utility.yul\":2300:2330   */\n      add\n        /* \"#utility.yul\":2353:2356   */\n      dup6\n        /* \"#utility.yul\":2345:2351   */\n      dup2\n        /* \"#utility.yul\":2342:2357   */\n      gt\n        /* \"#utility.yul\":2339:2461   */\n      iszero\n      tag_187\n      jumpi\n        /* \"#utility.yul\":2372:2451   */\n      tag_188\n      tag_124\n      jump\t// in\n    tag_188:\n        /* \"#utility.yul\":2339:2461   */\n    tag_187:\n        /* \"#utility.yul\":2487:2493   */\n      dup4\n        /* \"#utility.yul\":2470:2690   */\n    tag_189:\n        /* \"#utility.yul\":2504:2510   */\n      dup2\n        /* \"#utility.yul\":2499:2502   */\n      dup2\n        /* \"#utility.yul\":2496:2511   */\n      lt\n        /* \"#utility.yul\":2470:2690   */\n      iszero\n      tag_191\n      jumpi\n        /* \"#utility.yul\":2579:2582   */\n      dup1\n        /* \"#utility.yul\":2608:2645   */\n      tag_192\n        /* \"#utility.yul\":2641:2644   */\n      dup9\n        /* \"#utility.yul\":2629:2639   */\n      dup3\n        /* \"#utility.yul\":2608:2645   */\n      tag_118\n      jump\t// in\n    tag_192:\n        /* \"#utility.yul\":2603:2606   */\n      dup5\n        /* \"#utility.yul\":2596:2646   */\n      mstore\n        /* \"#utility.yul\":2675:2679   */\n      0x20\n        /* \"#utility.yul\":2670:2673   */\n      dup5\n        /* \"#utility.yul\":2666:2680   */\n      add\n        /* \"#utility.yul\":2659:2680   */\n      swap4\n      pop\n        /* \"#utility.yul\":2546:2690   */\n      pop\n        /* \"#utility.yul\":2530:2534   */\n      0x20\n        /* \"#utility.yul\":2525:2528   */\n      dup2\n        /* \"#utility.yul\":2521:2535   */\n      add\n        /* \"#utility.yul\":2514:2535   */\n      swap1\n      pop\n        /* \"#utility.yul\":2470:2690   */\n      jump(tag_189)\n    tag_191:\n        /* \"#utility.yul\":2474:2495   */\n      pop\n        /* \"#utility.yul\":2088:2696   */\n      pop\n      pop\n        /* \"#utility.yul\":1986:2696   */\n      swap4\n      swap3\n      pop\n      pop\n      pop\n      jump\t// out\n        /* \"#utility.yul\":2719:3089   */\n    tag_126:\n        /* \"#utility.yul\":2790:2795   */\n      0x00\n        /* \"#utility.yul\":2839:2842   */\n      dup3\n        /* \"#utility.yul\":2832:2836   */\n      0x1f\n        /* \"#utility.yul\":2824:2830   */\n      dup4\n        /* \"#utility.yul\":2820:2837   */\n      add\n        /* \"#utility.yul\":2816:2843   */\n      slt\n        /* \"#utility.yul\":2806:2928   */\n      tag_194\n      jumpi\n        /* \"#utility.yul\":2847:2926   */\n      tag_195\n      tag_119\n      jump\t// in\n    tag_195:\n        /* \"#utility.yul\":2806:2928   */\n    tag_194:\n        /* \"#utility.yul\":2964:2970   */\n      dup2\n        /* \"#utility.yul\":2951:2971   */\n      calldataload\n        /* \"#utility.yul\":2989:3083   */\n      tag_196\n        /* \"#utility.yul\":3079:3082   */\n      dup5\n        /* \"#utility.yul\":3071:3077   */\n      dup3\n        /* \"#utility.yul\":3064:3068   */\n      0x20\n        /* \"#utility.yul\":3056:3062   */\n      dup7\n        /* \"#utility.yul\":3052:3069   */\n      add\n        /* \"#utility.yul\":2989:3083   */\n      tag_125\n      jump\t// in\n    tag_196:\n        /* \"#utility.yul\":2980:3083   */\n      swap2\n      pop\n        /* \"#utility.yul\":2796:3089   */\n      pop\n        /* \"#utility.yul\":2719:3089   */\n      swap3\n      swap2\n      pop\n      pop\n      jump\t// out\n        /* \"#utility.yul\":3095:3779   */\n    tag_15:\n        /* \"#utility.yul\":3188:3194   */\n      0x00\n        /* \"#utility.yul\":3196:3202   */\n      dup1\n        /* \"#utility.yul\":3245:3247   */\n      0x40\n        /* \"#utility.yul\":3233:3242   */\n      dup4\n        /* \"#utility.yul\":3224:3231   */\n      dup6\n        /* \"#utility.yul\":3220:3243   */\n      sub\n        /* \"#utility.yul\":3216:3248   */\n      slt\n        /* \"#utility.yul\":3213:3332   */\n      iszero\n      tag_198\n      jumpi\n        /* \"#utility.yul\":3251:3330   */\n      tag_199\n      tag_114\n      jump\t// in\n    tag_199:\n        /* \"#utility.yul\":3213:3332   */\n    tag_198:\n        /* \"#utility.yul\":3371:3372   */\n      0x00\n        /* \"#utility.yul\":3396:3449   */\n      tag_200\n        /* \"#utility.yul\":3441:3448   */\n      dup6\n        /* \"#utility.yul\":3432:3438   */\n      dup3\n        /* \"#utility.yul\":3421:3430   */\n      dup7\n        /* \"#utility.yul\":3417:3439   */\n      add\n        /* \"#utility.yul\":3396:3449   */\n      tag_118\n      jump\t// in\n    tag_200:\n        /* \"#utility.yul\":3386:3449   */\n      swap3\n      pop\n        /* \"#utility.yul\":3342:3459   */\n      pop\n        /* \"#utility.yul\":3526:3528   */\n      0x20\n        /* \"#utility.yul\":3515:3524   */\n      dup4\n        /* \"#utility.yul\":3511:3529   */\n      add\n        /* \"#utility.yul\":3498:3530   */\n      calldataload\n        /* \"#utility.yul\":3557:3575   */\n      0xffffffffffffffff\n        /* \"#utility.yul\":3549:3555   */\n      dup2\n        /* \"#utility.yul\":3546:3576   */\n      gt\n        /* \"#utility.yul\":3543:3660   */\n      iszero\n      tag_201\n      jumpi\n        /* \"#utility.yul\":3579:3658   */\n      tag_202\n      tag_115\n      jump\t// in\n    tag_202:\n        /* \"#utility.yul\":3543:3660   */\n    tag_201:\n        /* \"#utility.yul\":3684:3762   */\n      tag_203\n        /* \"#utility.yul\":3754:3761   */\n      dup6\n        /* \"#utility.yul\":3745:3751   */\n      dup3\n        /* \"#utility.yul\":3734:3743   */\n      dup7\n        /* \"#utility.yul\":3730:3752   */\n      add\n        /* \"#utility.yul\":3684:3762   */\n      tag_126\n      jump\t// in\n    tag_203:\n        /* \"#utility.yul\":3674:3762   */\n      swap2\n      pop\n        /* \"#utility.yul\":3469:3772   */\n      pop\n        /* \"#utility.yul\":3095:3779   */\n      swap3\n      pop\n      swap3\n      swap1\n      pop\n      jump\t// out\n        /* \"#utility.yul\":3785:4114   */\n    tag_21:\n        /* \"#utility.yul\":3844:3850   */\n      0x00\n        /* \"#utility.yul\":3893:3895   */\n      0x20\n        /* \"#utility.yul\":3881:3890   */\n      dup3\n        /* \"#utility.yul\":3872:3879   */\n      dup5\n        /* \"#utility.yul\":3868:3891   */\n      sub\n        /* \"#utility.yul\":3864:3896   */\n      slt\n        /* \"#utility.yul\":3861:3980   */\n      iszero\n      tag_205\n      jumpi\n        /* \"#utility.yul\":3899:3978   */\n      tag_206\n      tag_114\n      jump\t// in\n    tag_206:\n        /* \"#utility.yul\":3861:3980   */\n    tag_205:\n        /* \"#utility.yul\":4019:4020   */\n      0x00\n        /* \"#utility.yul\":4044:4097   */\n      tag_207\n        /* \"#utility.yul\":4089:4096   */\n      dup5\n        /* \"#utility.yul\":4080:4086   */\n      dup3\n        /* \"#utility.yul\":4069:4078   */\n      dup6\n        /* \"#utility.yul\":4065:4087   */\n      add\n        /* \"#utility.yul\":4044:4097   */\n      tag_118\n      jump\t// in\n    tag_207:\n        /* \"#utility.yul\":4034:4097   */\n      swap2\n      pop\n        /* \"#utility.yul\":3990:4107   */\n      pop\n        /* \"#utility.yul\":3785:4114   */\n      swap3\n      swap2\n      pop\n      pop\n      jump\t// out\n        /* \"#utility.yul\":4120:4238   */\n    tag_127:\n        /* \"#utility.yul\":4207:4231   */\n      tag_209\n        /* \"#utility.yul\":4225:4230   */\n      dup2\n        /* \"#utility.yul\":4207:4231   */\n      tag_116\n      jump\t// in\n    tag_209:\n        /* \"#utility.yul\":4202:4205   */\n      dup3\n        /* \"#utility.yul\":4195:4232   */\n      mstore\n        /* \"#utility.yul\":4120:4238   */\n      pop\n      pop\n      jump\t// out\n        /* \"#utility.yul\":4244:4466   */\n    tag_24:\n        /* \"#utility.yul\":4337:4341   */\n      0x00\n        /* \"#utility.yul\":4375:4377   */\n      0x20\n        /* \"#utility.yul\":4364:4373   */\n      dup3\n        /* \"#utility.yul\":4360:4378   */\n      add\n        /* \"#utility.yul\":4352:4378   */\n      swap1\n      pop\n        /* \"#utility.yul\":4388:4459   */\n      tag_211\n        /* \"#utility.yul\":4456:4457   */\n      0x00\n        /* \"#utility.yul\":4445:4454   */\n      dup4\n        /* \"#utility.yul\":4441:4458   */\n      add\n        /* \"#utility.yul\":4432:4438   */\n      dup5\n        /* \"#utility.yul\":4388:4459   */\n      tag_127\n      jump\t// in\n    tag_211:\n        /* \"#utility.yul\":4244:4466   */\n      swap3\n      swap2\n      pop\n      pop\n      jump\t// out\n        /* \"#utility.yul\":4472:4598   */\n    tag_128:\n        /* \"#utility.yul\":4509:4516   */\n      0x00\n        /* \"#utility.yul\":4549:4591   */\n      0xffffffffffffffffffffffffffffffffffffffff\n        /* \"#utility.yul\":4542:4547   */\n      dup3\n        /* \"#utility.yul\":4538:4592   */\n      and\n        /* \"#utility.yul\":4527:4592   */\n      swap1\n      pop\n        /* \"#utility.yul\":4472:4598   */\n      swap2\n      swap1\n      pop\n      jump\t// out\n        /* \"#utility.yul\":4604:4700   */\n    tag_129:\n        /* \"#utility.yul\":4641:4648   */\n      0x00\n        /* \"#utility.yul\":4670:4694   */\n      tag_214\n        /* \"#utility.yul\":4688:4693   */\n      dup3\n        /* \"#utility.yul\":4670:4694   */\n      tag_128\n      jump\t// in\n    tag_214:\n        /* \"#utility.yul\":4659:4694   */\n      swap1\n      pop\n        /* \"#utility.yul\":4604:4700   */\n      swap2\n      swap1\n      pop\n      jump\t// out\n        /* \"#utility.yul\":4706:4824   */\n    tag_130:\n        /* \"#utility.yul\":4793:4817   */\n      tag_216\n        /* \"#utility.yul\":4811:4816   */\n      dup2\n        /* \"#utility.yul\":4793:4817   */\n      tag_129\n      jump\t// in\n    tag_216:\n        /* \"#utility.yul\":4788:4791   */\n      dup3\n        /* \"#utility.yul\":4781:4818   */\n      mstore\n        /* \"#utility.yul\":4706:4824   */\n      pop\n      pop\n      jump\t// out\n        /* \"#utility.yul\":4830:5052   */\n    tag_28:\n        /* \"#utility.yul\":4923:4927   */\n      0x00\n        /* \"#utility.yul\":4961:4963   */\n      0x20\n        /* \"#utility.yul\":4950:4959   */\n      dup3\n        /* \"#utility.yul\":4946:4964   */\n      add\n        /* \"#utility.yul\":4938:4964   */\n      swap1\n      pop\n        /* \"#utility.yul\":4974:5045   */\n      tag_218\n        /* \"#utility.yul\":5042:5043   */\n      0x00\n        /* \"#utility.yul\":5031:5040   */\n      dup4\n        /* \"#utility.yul\":5027:5044   */\n      add\n        /* \"#utility.yul\":5018:5024   */\n      dup5\n        /* \"#utility.yul\":4974:5045   */\n      tag_130\n      jump\t// in\n    tag_218:\n        /* \"#utility.yul\":4830:5052   */\n      swap3\n      swap2\n      pop\n      pop\n      jump\t// out\n        /* \"#utility.yul\":5058:5148   */\n    tag_131:\n        /* \"#utility.yul\":5092:5099   */\n      0x00\n        /* \"#utility.yul\":5135:5140   */\n      dup2\n        /* \"#utility.yul\":5128:5141   */\n      iszero\n        /* \"#utility.yul\":5121:5142   */\n      iszero\n        /* \"#utility.yul\":5110:5142   */\n      swap1\n      pop\n        /* \"#utility.yul\":5058:5148   */\n      swap2\n      swap1\n      pop\n      jump\t// out\n        /* \"#utility.yul\":5154:5263   */\n    tag_132:\n        /* \"#utility.yul\":5235:5256   */\n      tag_221\n        /* \"#utility.yul\":5250:5255   */\n      dup2\n        /* \"#utility.yul\":5235:5256   */\n      tag_131\n      jump\t// in\n    tag_221:\n        /* \"#utility.yul\":5230:5233   */\n      dup3\n        /* \"#utility.yul\":5223:5257   */\n      mstore\n        /* \"#utility.yul\":5154:5263   */\n      pop\n      pop\n      jump\t// out\n        /* \"#utility.yul\":5269:5577   */\n    tag_33:\n        /* \"#utility.yul\":5378:5382   */\n      0x00\n        /* \"#utility.yul\":5416:5418   */\n      0x40\n        /* \"#utility.yul\":5405:5414   */\n      dup3\n        /* \"#utility.yul\":5401:5419   */\n      add\n        /* \"#utility.yul\":5393:5419   */\n      swap1\n      pop\n        /* \"#utility.yul\":5429:5494   */\n      tag_223\n        /* \"#utility.yul\":5491:5492   */\n      0x00\n        /* \"#utility.yul\":5480:5489   */\n      dup4\n        /* \"#utility.yul\":5476:5493   */\n      add\n        /* \"#utility.yul\":5467:5473   */\n      dup6\n        /* \"#utility.yul\":5429:5494   */\n      tag_132\n      jump\t// in\n    tag_223:\n        /* \"#utility.yul\":5504:5570   */\n      tag_224\n        /* \"#utility.yul\":5566:5568   */\n      0x20\n        /* \"#utility.yul\":5555:5564   */\n      dup4\n        /* \"#utility.yul\":5551:5569   */\n      add\n        /* \"#utility.yul\":5542:5548   */\n      dup5\n        /* \"#utility.yul\":5504:5570   */\n      tag_132\n      jump\t// in\n    tag_224:\n        /* \"#utility.yul\":5269:5577   */\n      swap4\n      swap3\n      pop\n      pop\n      pop\n      jump\t// out\n        /* \"#utility.yul\":5583:5697   */\n    tag_133:\n        /* \"#utility.yul\":5650:5656   */\n      0x00\n        /* \"#utility.yul\":5684:5689   */\n      dup2\n        /* \"#utility.yul\":5678:5690   */\n      mload\n        /* \"#utility.yul\":5668:5690   */\n      swap1\n      pop\n        /* \"#utility.yul\":5583:5697   */\n      swap2\n      swap1\n      pop\n      jump\t// out\n        /* \"#utility.yul\":5703:5887   */\n    tag_134:\n        /* \"#utility.yul\":5802:5813   */\n      0x00\n        /* \"#utility.yul\":5836:5842   */\n      dup3\n        /* \"#utility.yul\":5831:5834   */\n      dup3\n        /* \"#utility.yul\":5824:5843   */\n      mstore\n        /* \"#utility.yul\":5876:5880   */\n      0x20\n        /* \"#utility.yul\":5871:5874   */\n      dup3\n        /* \"#utility.yul\":5867:5881   */\n      add\n        /* \"#utility.yul\":5852:5881   */\n      swap1\n      pop\n        /* \"#utility.yul\":5703:5887   */\n      swap3\n      swap2\n      pop\n      pop\n      jump\t// out\n        /* \"#utility.yul\":5893:6025   */\n    tag_135:\n        /* \"#utility.yul\":5960:5964   */\n      0x00\n        /* \"#utility.yul\":5983:5986   */\n      dup2\n        /* \"#utility.yul\":5975:5986   */\n      swap1\n      pop\n        /* \"#utility.yul\":6013:6017   */\n      0x20\n        /* \"#utility.yul\":6008:6011   */\n      dup3\n        /* \"#utility.yul\":6004:6018   */\n      add\n        /* \"#utility.yul\":5996:6018   */\n      swap1\n      pop\n        /* \"#utility.yul\":5893:6025   */\n      swap2\n      swap1\n      pop\n      jump\t// out\n        /* \"#utility.yul\":6031:6139   */\n    tag_136:\n        /* \"#utility.yul\":6108:6132   */\n      tag_229\n        /* \"#utility.yul\":6126:6131   */\n      dup2\n        /* \"#utility.yul\":6108:6132   */\n      tag_116\n      jump\t// in\n    tag_229:\n        /* \"#utility.yul\":6103:6106   */\n      dup3\n        /* \"#utility.yul\":6096:6133   */\n      mstore\n        /* \"#utility.yul\":6031:6139   */\n      pop\n      pop\n      jump\t// out\n        /* \"#utility.yul\":6145:6324   */\n    tag_137:\n        /* \"#utility.yul\":6214:6224   */\n      0x00\n        /* \"#utility.yul\":6235:6281   */\n      tag_231\n        /* \"#utility.yul\":6277:6280   */\n      dup4\n        /* \"#utility.yul\":6269:6275   */\n      dup4\n        /* \"#utility.yul\":6235:6281   */\n      tag_136\n      jump\t// in\n    tag_231:\n        /* \"#utility.yul\":6313:6317   */\n      0x20\n        /* \"#utility.yul\":6308:6311   */\n      dup4\n        /* \"#utility.yul\":6304:6318   */\n      add\n        /* \"#utility.yul\":6290:6318   */\n      swap1\n      pop\n        /* \"#utility.yul\":6145:6324   */\n      swap3\n      swap2\n      pop\n      pop\n      jump\t// out\n        /* \"#utility.yul\":6330:6443   */\n    tag_138:\n        /* \"#utility.yul\":6400:6404   */\n      0x00\n        /* \"#utility.yul\":6432:6436   */\n      0x20\n        /* \"#utility.yul\":6427:6430   */\n      dup3\n        /* \"#utility.yul\":6423:6437   */\n      add\n        /* \"#utility.yul\":6415:6437   */\n      swap1\n      pop\n        /* \"#utility.yul\":6330:6443   */\n      swap2\n      swap1\n      pop\n      jump\t// out\n        /* \"#utility.yul\":6479:7211   */\n    tag_139:\n        /* \"#utility.yul\":6598:6601   */\n      0x00\n        /* \"#utility.yul\":6627:6681   */\n      tag_234\n        /* \"#utility.yul\":6675:6680   */\n      dup3\n        /* \"#utility.yul\":6627:6681   */\n      tag_133\n      jump\t// in\n    tag_234:\n        /* \"#utility.yul\":6697:6783   */\n      tag_235\n        /* \"#utility.yul\":6776:6782   */\n      dup2\n        /* \"#utility.yul\":6771:6774   */\n      dup6\n        /* \"#utility.yul\":6697:6783   */\n      tag_134\n      jump\t// in\n    tag_235:\n        /* \"#utility.yul\":6690:6783   */\n      swap4\n      pop\n        /* \"#utility.yul\":6807:6863   */\n      tag_236\n        /* \"#utility.yul\":6857:6862   */\n      dup4\n        /* \"#utility.yul\":6807:6863   */\n      tag_135\n      jump\t// in\n    tag_236:\n        /* \"#utility.yul\":6886:6893   */\n      dup1\n        /* \"#utility.yul\":6917:6918   */\n      0x00\n        /* \"#utility.yul\":6902:7186   */\n    tag_237:\n        /* \"#utility.yul\":6927:6933   */\n      dup4\n        /* \"#utility.yul\":6924:6925   */\n      dup2\n        /* \"#utility.yul\":6921:6934   */\n      lt\n        /* \"#utility.yul\":6902:7186   */\n      iszero\n      tag_239\n      jumpi\n        /* \"#utility.yul\":7003:7009   */\n      dup2\n        /* \"#utility.yul\":6997:7010   */\n      mload\n        /* \"#utility.yul\":7030:7093   */\n      tag_240\n        /* \"#utility.yul\":7089:7092   */\n      dup9\n        /* \"#utility.yul\":7074:7087   */\n      dup3\n        /* \"#utility.yul\":7030:7093   */\n      tag_137\n      jump\t// in\n    tag_240:\n        /* \"#utility.yul\":7023:7093   */\n      swap8\n      pop\n        /* \"#utility.yul\":7116:7176   */\n      tag_241\n        /* \"#utility.yul\":7169:7175   */\n      dup4\n        /* \"#utility.yul\":7116:7176   */\n      tag_138\n      jump\t// in\n    tag_241:\n        /* \"#utility.yul\":7106:7176   */\n      swap3\n      pop\n        /* \"#utility.yul\":6962:7186   */\n      pop\n        /* \"#utility.yul\":6949:6950   */\n      0x01\n        /* \"#utility.yul\":6946:6947   */\n      dup2\n        /* \"#utility.yul\":6942:6951   */\n      add\n        /* \"#utility.yul\":6937:6951   */\n      swap1\n      pop\n        /* \"#utility.yul\":6902:7186   */\n      jump(tag_237)\n    tag_239:\n        /* \"#utility.yul\":6906:6920   */\n      pop\n        /* \"#utility.yul\":7202:7205   */\n      dup6\n        /* \"#utility.yul\":7195:7205   */\n      swap4\n      pop\n        /* \"#utility.yul\":6603:7211   */\n      pop\n      pop\n      pop\n        /* \"#utility.yul\":6479:7211   */\n      swap3\n      swap2\n      pop\n      pop\n      jump\t// out\n        /* \"#utility.yul\":7217:7688   */\n    tag_38:\n        /* \"#utility.yul\":7382:7386   */\n      0x00\n        /* \"#utility.yul\":7420:7422   */\n      0x40\n        /* \"#utility.yul\":7409:7418   */\n      dup3\n        /* \"#utility.yul\":7405:7423   */\n      add\n        /* \"#utility.yul\":7397:7423   */\n      swap1\n      pop\n        /* \"#utility.yul\":7433:7498   */\n      tag_243\n        /* \"#utility.yul\":7495:7496   */\n      0x00\n        /* \"#utility.yul\":7484:7493   */\n      dup4\n        /* \"#utility.yul\":7480:7497   */\n      add\n        /* \"#utility.yul\":7471:7477   */\n      dup6\n        /* \"#utility.yul\":7433:7498   */\n      tag_132\n      jump\t// in\n    tag_243:\n        /* \"#utility.yul\":7545:7554   */\n      dup2\n        /* \"#utility.yul\":7539:7543   */\n      dup2\n        /* \"#utility.yul\":7535:7555   */\n      sub\n        /* \"#utility.yul\":7530:7532   */\n      0x20\n        /* \"#utility.yul\":7519:7528   */\n      dup4\n        /* \"#utility.yul\":7515:7533   */\n      add\n        /* \"#utility.yul\":7508:7556   */\n      mstore\n        /* \"#utility.yul\":7573:7681   */\n      tag_244\n        /* \"#utility.yul\":7676:7680   */\n      dup2\n        /* \"#utility.yul\":7667:7673   */\n      dup5\n        /* \"#utility.yul\":7573:7681   */\n      tag_139\n      jump\t// in\n    tag_244:\n        /* \"#utility.yul\":7565:7681   */\n      swap1\n      pop\n        /* \"#utility.yul\":7217:7688   */\n      swap4\n      swap3\n      pop\n      pop\n      pop\n      jump\t// out\n        /* \"#utility.yul\":7694:7816   */\n    tag_140:\n        /* \"#utility.yul\":7767:7791   */\n      tag_246\n        /* \"#utility.yul\":7785:7790   */\n      dup2\n        /* \"#utility.yul\":7767:7791   */\n      tag_129\n      jump\t// in\n    tag_246:\n        /* \"#utility.yul\":7760:7765   */\n      dup2\n        /* \"#utility.yul\":7757:7792   */\n      eq\n        /* \"#utility.yul\":7747:7810   */\n      tag_247\n      jumpi\n        /* \"#utility.yul\":7806:7807   */\n      0x00\n        /* \"#utility.yul\":7803:7804   */\n      dup1\n        /* \"#utility.yul\":7796:7808   */\n      revert\n        /* \"#utility.yul\":7747:7810   */\n    tag_247:\n        /* \"#utility.yul\":7694:7816   */\n      pop\n      jump\t// out\n        /* \"#utility.yul\":7822:7961   */\n    tag_141:\n        /* \"#utility.yul\":7868:7873   */\n      0x00\n        /* \"#utility.yul\":7906:7912   */\n      dup2\n        /* \"#utility.yul\":7893:7913   */\n      calldataload\n        /* \"#utility.yul\":7884:7913   */\n      swap1\n      pop\n        /* \"#utility.yul\":7922:7955   */\n      tag_249\n        /* \"#utility.yul\":7949:7954   */\n      dup2\n        /* \"#utility.yul\":7922:7955   */\n      tag_140\n      jump\t// in\n    tag_249:\n        /* \"#utility.yul\":7822:7961   */\n      swap3\n      swap2\n      pop\n      pop\n      jump\t// out\n        /* \"#utility.yul\":7967:8296   */\n    tag_44:\n        /* \"#utility.yul\":8026:8032   */\n      0x00\n        /* \"#utility.yul\":8075:8077   */\n      0x20\n        /* \"#utility.yul\":8063:8072   */\n      dup3\n        /* \"#utility.yul\":8054:8061   */\n      dup5\n        /* \"#utility.yul\":8050:8073   */\n      sub\n        /* \"#utility.yul\":8046:8078   */\n      slt\n        /* \"#utility.yul\":8043:8162   */\n      iszero\n      tag_251\n      jumpi\n        /* \"#utility.yul\":8081:8160   */\n      tag_252\n      tag_114\n      jump\t// in\n    tag_252:\n        /* \"#utility.yul\":8043:8162   */\n    tag_251:\n        /* \"#utility.yul\":8201:8202   */\n      0x00\n        /* \"#utility.yul\":8226:8279   */\n      tag_253\n        /* \"#utility.yul\":8271:8278   */\n      dup5\n        /* \"#utility.yul\":8262:8268   */\n      dup3\n        /* \"#utility.yul\":8251:8260   */\n      dup6\n        /* \"#utility.yul\":8247:8269   */\n      add\n        /* \"#utility.yul\":8226:8279   */\n      tag_141\n      jump\t// in\n    tag_253:\n        /* \"#utility.yul\":8216:8279   */\n      swap2\n      pop\n        /* \"#utility.yul\":8172:8289   */\n      pop\n        /* \"#utility.yul\":7967:8296   */\n      swap3\n      swap2\n      pop\n      pop\n      jump\t// out\n        /* \"#utility.yul\":8302:8634   */\n    tag_52:\n        /* \"#utility.yul\":8423:8427   */\n      0x00\n        /* \"#utility.yul\":8461:8463   */\n      0x40\n        /* \"#utility.yul\":8450:8459   */\n      dup3\n        /* \"#utility.yul\":8446:8464   */\n      add\n        /* \"#utility.yul\":8438:8464   */\n      swap1\n      pop\n        /* \"#utility.yul\":8474:8545   */\n      tag_255\n        /* \"#utility.yul\":8542:8543   */\n      0x00\n        /* \"#utility.yul\":8531:8540   */\n      dup4\n        /* \"#utility.yul\":8527:8544   */\n      add\n        /* \"#utility.yul\":8518:8524   */\n      dup6\n        /* \"#utility.yul\":8474:8545   */\n      tag_130\n      jump\t// in\n    tag_255:\n        /* \"#utility.yul\":8555:8627   */\n      tag_256\n        /* \"#utility.yul\":8623:8625   */\n      0x20\n        /* \"#utility.yul\":8612:8621   */\n      dup4\n        /* \"#utility.yul\":8608:8626   */\n      add\n        /* \"#utility.yul\":8599:8605   */\n      dup5\n        /* \"#utility.yul\":8555:8627   */\n      tag_130\n      jump\t// in\n    tag_256:\n        /* \"#utility.yul\":8302:8634   */\n      swap4\n      swap3\n      pop\n      pop\n      pop\n      jump\t// out\n        /* \"#utility.yul\":8640:8809   */\n    tag_142:\n        /* \"#utility.yul\":8724:8735   */\n      0x00\n        /* \"#utility.yul\":8758:8764   */\n      dup3\n        /* \"#utility.yul\":8753:8756   */\n      dup3\n        /* \"#utility.yul\":8746:8765   */\n      mstore\n        /* \"#utility.yul\":8798:8802   */\n      0x20\n        /* \"#utility.yul\":8793:8796   */\n      dup3\n        /* \"#utility.yul\":8789:8803   */\n      add\n        /* \"#utility.yul\":8774:8803   */\n      swap1\n      pop\n        /* \"#utility.yul\":8640:8809   */\n      swap3\n      swap2\n      pop\n      pop\n      jump\t// out\n        /* \"#utility.yul\":8815:8987   */\n    tag_143:\n        /* \"#utility.yul\":8955:8979   */\n      0x4d7573742062652070726f706f736564206f776e657200000000000000000000\n        /* \"#utility.yul\":8951:8952   */\n      0x00\n        /* \"#utility.yul\":8943:8949   */\n      dup3\n        /* \"#utility.yul\":8939:8953   */\n      add\n        /* \"#utility.yul\":8932:8980   */\n      mstore\n        /* \"#utility.yul\":8815:8987   */\n      pop\n      jump\t// out\n        /* \"#utility.yul\":8993:9359   */\n    tag_144:\n        /* \"#utility.yul\":9135:9138   */\n      0x00\n        /* \"#utility.yul\":9156:9223   */\n      tag_260\n        /* \"#utility.yul\":9220:9222   */\n      0x16\n        /* \"#utility.yul\":9215:9218   */\n      dup4\n        /* \"#utility.yul\":9156:9223   */\n      tag_142\n      jump\t// in\n    tag_260:\n        /* \"#utility.yul\":9149:9223   */\n      swap2\n      pop\n        /* \"#utility.yul\":9232:9325   */\n      tag_261\n        /* \"#utility.yul\":9321:9324   */\n      dup3\n        /* \"#utility.yul\":9232:9325   */\n      tag_143\n      jump\t// in\n    tag_261:\n        /* \"#utility.yul\":9350:9352   */\n      0x20\n        /* \"#utility.yul\":9345:9348   */\n      dup3\n        /* \"#utility.yul\":9341:9353   */\n      add\n        /* \"#utility.yul\":9334:9353   */\n      swap1\n      pop\n        /* \"#utility.yul\":8993:9359   */\n      swap2\n      swap1\n      pop\n      jump\t// out\n        /* \"#utility.yul\":9365:9784   */\n    tag_58:\n        /* \"#utility.yul\":9531:9535   */\n      0x00\n        /* \"#utility.yul\":9569:9571   */\n      0x20\n        /* \"#utility.yul\":9558:9567   */\n      dup3\n        /* \"#utility.yul\":9554:9572   */\n      add\n        /* \"#utility.yul\":9546:9572   */\n      swap1\n      pop\n        /* \"#utility.yul\":9618:9627   */\n      dup2\n        /* \"#utility.yul\":9612:9616   */\n      dup2\n        /* \"#utility.yul\":9608:9628   */\n      sub\n        /* \"#utility.yul\":9604:9605   */\n      0x00\n        /* \"#utility.yul\":9593:9602   */\n      dup4\n        /* \"#utility.yul\":9589:9606   */\n      add\n        /* \"#utility.yul\":9582:9629   */\n      mstore\n        /* \"#utility.yul\":9646:9777   */\n      tag_263\n        /* \"#utility.yul\":9772:9776   */\n      dup2\n        /* \"#utility.yul\":9646:9777   */\n      tag_144\n      jump\t// in\n    tag_263:\n        /* \"#utility.yul\":9638:9777   */\n      swap1\n      pop\n        /* \"#utility.yul\":9365:9784   */\n      swap2\n      swap1\n      pop\n      jump\t// out\n        /* \"#utility.yul\":9790:9957   */\n    tag_145:\n        /* \"#utility.yul\":9930:9949   */\n      0x72657175657374206e6f7420666f756e64000000000000000000000000000000\n        /* \"#utility.yul\":9926:9927   */\n      0x00\n        /* \"#utility.yul\":9918:9924   */\n      dup3\n        /* \"#utility.yul\":9914:9928   */\n      add\n        /* \"#utility.yul\":9907:9950   */\n      mstore\n        /* \"#utility.yul\":9790:9957   */\n      pop\n      jump\t// out\n        /* \"#utility.yul\":9963:10329   */\n    tag_146:\n        /* \"#utility.yul\":10105:10108   */\n      0x00\n        /* \"#utility.yul\":10126:10193   */\n      tag_266\n        /* \"#utility.yul\":10190:10192   */\n      0x11\n        /* \"#utility.yul\":10185:10188   */\n      dup4\n        /* \"#utility.yul\":10126:10193   */\n      tag_142\n      jump\t// in\n    tag_266:\n        /* \"#utility.yul\":10119:10193   */\n      swap2\n      pop\n        /* \"#utility.yul\":10202:10295   */\n      tag_267\n        /* \"#utility.yul\":10291:10294   */\n      dup3\n        /* \"#utility.yul\":10202:10295   */\n      tag_145\n      jump\t// in\n    tag_267:\n        /* \"#utility.yul\":10320:10322   */\n      0x20\n        /* \"#utility.yul\":10315:10318   */\n      dup3\n        /* \"#utility.yul\":10311:10323   */\n      add\n        /* \"#utility.yul\":10304:10323   */\n      swap1\n      pop\n        /* \"#utility.yul\":9963:10329   */\n      swap2\n      swap1\n      pop\n      jump\t// out\n        /* \"#utility.yul\":10335:10754   */\n    tag_65:\n        /* \"#utility.yul\":10501:10505   */\n      0x00\n        /* \"#utility.yul\":10539:10541   */\n      0x20\n        /* \"#utility.yul\":10528:10537   */\n      dup3\n        /* \"#utility.yul\":10524:10542   */\n      add\n        /* \"#utility.yul\":10516:10542   */\n      swap1\n      pop\n        /* \"#utility.yul\":10588:10597   */\n      dup2\n        /* \"#utility.yul\":10582:10586   */\n      dup2\n        /* \"#utility.yul\":10578:10598   */\n      sub\n        /* \"#utility.yul\":10574:10575   */\n      0x00\n        /* \"#utility.yul\":10563:10572   */\n      dup4\n        /* \"#utility.yul\":10559:10576   */\n      add\n        /* \"#utility.yul\":10552:10599   */\n      mstore\n        /* \"#utility.yul\":10616:10747   */\n      tag_269\n        /* \"#utility.yul\":10742:10746   */\n      dup2\n        /* \"#utility.yul\":10616:10747   */\n      tag_146\n      jump\t// in\n    tag_269:\n        /* \"#utility.yul\":10608:10747   */\n      swap1\n      pop\n        /* \"#utility.yul\":10335:10754   */\n      swap2\n      swap1\n      pop\n      jump\t// out\n        /* \"#utility.yul\":10760:10837   */\n    tag_147:\n        /* \"#utility.yul\":10797:10804   */\n      0x00\n        /* \"#utility.yul\":10826:10831   */\n      dup2\n        /* \"#utility.yul\":10815:10831   */\n      swap1\n      pop\n        /* \"#utility.yul\":10760:10837   */\n      swap2\n      swap1\n      pop\n      jump\t// out\n        /* \"#utility.yul\":10843:10961   */\n    tag_148:\n        /* \"#utility.yul\":10930:10954   */\n      tag_272\n        /* \"#utility.yul\":10948:10953   */\n      dup2\n        /* \"#utility.yul\":10930:10954   */\n      tag_147\n      jump\t// in\n    tag_272:\n        /* \"#utility.yul\":10925:10928   */\n      dup3\n        /* \"#utility.yul\":10918:10955   */\n      mstore\n        /* \"#utility.yul\":10843:10961   */\n      pop\n      pop\n      jump\t// out\n        /* \"#utility.yul\":10967:11068   */\n    tag_149:\n        /* \"#utility.yul\":11003:11010   */\n      0x00\n        /* \"#utility.yul\":11043:11061   */\n      0xffffffffffffffff\n        /* \"#utility.yul\":11036:11041   */\n      dup3\n        /* \"#utility.yul\":11032:11062   */\n      and\n        /* \"#utility.yul\":11021:11062   */\n      swap1\n      pop\n        /* \"#utility.yul\":10967:11068   */\n      swap2\n      swap1\n      pop\n      jump\t// out\n        /* \"#utility.yul\":11074:11189   */\n    tag_150:\n        /* \"#utility.yul\":11159:11182   */\n      tag_275\n        /* \"#utility.yul\":11176:11181   */\n      dup2\n        /* \"#utility.yul\":11159:11182   */\n      tag_149\n      jump\t// in\n    tag_275:\n        /* \"#utility.yul\":11154:11157   */\n      dup3\n        /* \"#utility.yul\":11147:11183   */\n      mstore\n        /* \"#utility.yul\":11074:11189   */\n      pop\n      pop\n      jump\t// out\n        /* \"#utility.yul\":11195:11284   */\n    tag_151:\n        /* \"#utility.yul\":11231:11238   */\n      0x00\n        /* \"#utility.yul\":11271:11277   */\n      0xffff\n        /* \"#utility.yul\":11264:11269   */\n      dup3\n        /* \"#utility.yul\":11260:11278   */\n      and\n        /* \"#utility.yul\":11249:11278   */\n      swap1\n      pop\n        /* \"#utility.yul\":11195:11284   */\n      swap2\n      swap1\n      pop\n      jump\t// out\n        /* \"#utility.yul\":11290:11405   */\n    tag_152:\n        /* \"#utility.yul\":11375:11398   */\n      tag_278\n        /* \"#utility.yul\":11392:11397   */\n      dup2\n        /* \"#utility.yul\":11375:11398   */\n      tag_151\n      jump\t// in\n    tag_278:\n        /* \"#utility.yul\":11370:11373   */\n      dup3\n        /* \"#utility.yul\":11363:11399   */\n      mstore\n        /* \"#utility.yul\":11290:11405   */\n      pop\n      pop\n      jump\t// out\n        /* \"#utility.yul\":11411:11504   */\n    tag_153:\n        /* \"#utility.yul\":11447:11454   */\n      0x00\n        /* \"#utility.yul\":11487:11497   */\n      0xffffffff\n        /* \"#utility.yul\":11480:11485   */\n      dup3\n        /* \"#utility.yul\":11476:11498   */\n      and\n        /* \"#utility.yul\":11465:11498   */\n      swap1\n      pop\n        /* \"#utility.yul\":11411:11504   */\n      swap2\n      swap1\n      pop\n      jump\t// out\n        /* \"#utility.yul\":11510:11625   */\n    tag_154:\n        /* \"#utility.yul\":11595:11618   */\n      tag_281\n        /* \"#utility.yul\":11612:11617   */\n      dup2\n        /* \"#utility.yul\":11595:11618   */\n      tag_153\n      jump\t// in\n    tag_281:\n        /* \"#utility.yul\":11590:11593   */\n      dup3\n        /* \"#utility.yul\":11583:11619   */\n      mstore\n        /* \"#utility.yul\":11510:11625   */\n      pop\n      pop\n      jump\t// out\n        /* \"#utility.yul\":11631:12279   */\n    tag_73:\n        /* \"#utility.yul\":11828:11832   */\n      0x00\n        /* \"#utility.yul\":11866:11869   */\n      0xa0\n        /* \"#utility.yul\":11855:11864   */\n      dup3\n        /* \"#utility.yul\":11851:11870   */\n      add\n        /* \"#utility.yul\":11843:11870   */\n      swap1\n      pop\n        /* \"#utility.yul\":11880:11951   */\n      tag_283\n        /* \"#utility.yul\":11948:11949   */\n      0x00\n        /* \"#utility.yul\":11937:11946   */\n      dup4\n        /* \"#utility.yul\":11933:11950   */\n      add\n        /* \"#utility.yul\":11924:11930   */\n      dup9\n        /* \"#utility.yul\":11880:11951   */\n      tag_148\n      jump\t// in\n    tag_283:\n        /* \"#utility.yul\":11961:12031   */\n      tag_284\n        /* \"#utility.yul\":12027:12029   */\n      0x20\n        /* \"#utility.yul\":12016:12025   */\n      dup4\n        /* \"#utility.yul\":12012:12030   */\n      add\n        /* \"#utility.yul\":12003:12009   */\n      dup8\n        /* \"#utility.yul\":11961:12031   */\n      tag_150\n      jump\t// in\n    tag_284:\n        /* \"#utility.yul\":12041:12111   */\n      tag_285\n        /* \"#utility.yul\":12107:12109   */\n      0x40\n        /* \"#utility.yul\":12096:12105   */\n      dup4\n        /* \"#utility.yul\":12092:12110   */\n      add\n        /* \"#utility.yul\":12083:12089   */\n      dup7\n        /* \"#utility.yul\":12041:12111   */\n      tag_152\n      jump\t// in\n    tag_285:\n        /* \"#utility.yul\":12121:12191   */\n      tag_286\n        /* \"#utility.yul\":12187:12189   */\n      0x60\n        /* \"#utility.yul\":12176:12185   */\n      dup4\n        /* \"#utility.yul\":12172:12190   */\n      add\n        /* \"#utility.yul\":12163:12169   */\n      dup6\n        /* \"#utility.yul\":12121:12191   */\n      tag_154\n      jump\t// in\n    tag_286:\n        /* \"#utility.yul\":12201:12272   */\n      tag_287\n        /* \"#utility.yul\":12267:12270   */\n      0x80\n        /* \"#utility.yul\":12256:12265   */\n      dup4\n        /* \"#utility.yul\":12252:12271   */\n      add\n        /* \"#utility.yul\":12243:12249   */\n      dup5\n        /* \"#utility.yul\":12201:12272   */\n      tag_154\n      jump\t// in\n    tag_287:\n        /* \"#utility.yul\":11631:12279   */\n      swap7\n      swap6\n      pop\n      pop\n      pop\n      pop\n      pop\n      pop\n      jump\t// out\n        /* \"#utility.yul\":12285:12428   */\n    tag_155:\n        /* \"#utility.yul\":12342:12347   */\n      0x00\n        /* \"#utility.yul\":12373:12379   */\n      dup2\n        /* \"#utility.yul\":12367:12380   */\n      mload\n        /* \"#utility.yul\":12358:12380   */\n      swap1\n      pop\n        /* \"#utility.yul\":12389:12422   */\n      tag_289\n        /* \"#utility.yul\":12416:12421   */\n      dup2\n        /* \"#utility.yul\":12389:12422   */\n      tag_117\n      jump\t// in\n    tag_289:\n        /* \"#utility.yul\":12285:12428   */\n      swap3\n      swap2\n      pop\n      pop\n      jump\t// out\n        /* \"#utility.yul\":12434:12785   */\n    tag_77:\n        /* \"#utility.yul\":12504:12510   */\n      0x00\n        /* \"#utility.yul\":12553:12555   */\n      0x20\n        /* \"#utility.yul\":12541:12550   */\n      dup3\n        /* \"#utility.yul\":12532:12539   */\n      dup5\n        /* \"#utility.yul\":12528:12551   */\n      sub\n        /* \"#utility.yul\":12524:12556   */\n      slt\n        /* \"#utility.yul\":12521:12640   */\n      iszero\n      tag_291\n      jumpi\n        /* \"#utility.yul\":12559:12638   */\n      tag_292\n      tag_114\n      jump\t// in\n    tag_292:\n        /* \"#utility.yul\":12521:12640   */\n    tag_291:\n        /* \"#utility.yul\":12679:12680   */\n      0x00\n        /* \"#utility.yul\":12704:12768   */\n      tag_293\n        /* \"#utility.yul\":12760:12767   */\n      dup5\n        /* \"#utility.yul\":12751:12757   */\n      dup3\n        /* \"#utility.yul\":12740:12749   */\n      dup6\n        /* \"#utility.yul\":12736:12758   */\n      add\n        /* \"#utility.yul\":12704:12768   */\n      tag_155\n      jump\t// in\n    tag_293:\n        /* \"#utility.yul\":12694:12768   */\n      swap2\n      pop\n        /* \"#utility.yul\":12650:12778   */\n      pop\n        /* \"#utility.yul\":12434:12785   */\n      swap3\n      swap2\n      pop\n      pop\n      jump\t// out\n        /* \"#utility.yul\":12791:13119   */\n    tag_86:\n        /* \"#utility.yul\":12910:12914   */\n      0x00\n        /* \"#utility.yul\":12948:12950   */\n      0x40\n        /* \"#utility.yul\":12937:12946   */\n      dup3\n        /* \"#utility.yul\":12933:12951   */\n      add\n        /* \"#utility.yul\":12925:12951   */\n      swap1\n      pop\n        /* \"#utility.yul\":12961:13032   */\n      tag_295\n        /* \"#utility.yul\":13029:13030   */\n      0x00\n        /* \"#utility.yul\":13018:13027   */\n      dup4\n        /* \"#utility.yul\":13014:13031   */\n      add\n        /* \"#utility.yul\":13005:13011   */\n      dup6\n        /* \"#utility.yul\":12961:13032   */\n      tag_127\n      jump\t// in\n    tag_295:\n        /* \"#utility.yul\":13042:13112   */\n      tag_296\n        /* \"#utility.yul\":13108:13110   */\n      0x20\n        /* \"#utility.yul\":13097:13106   */\n      dup4\n        /* \"#utility.yul\":13093:13111   */\n      add\n        /* \"#utility.yul\":13084:13090   */\n      dup5\n        /* \"#utility.yul\":13042:13112   */\n      tag_154\n      jump\t// in\n    tag_296:\n        /* \"#utility.yul\":12791:13119   */\n      swap4\n      swap3\n      pop\n      pop\n      pop\n      jump\t// out\n        /* \"#utility.yul\":13125:13608   */\n    tag_97:\n        /* \"#utility.yul\":13296:13300   */\n      0x00\n        /* \"#utility.yul\":13334:13336   */\n      0x40\n        /* \"#utility.yul\":13323:13332   */\n      dup3\n        /* \"#utility.yul\":13319:13337   */\n      add\n        /* \"#utility.yul\":13311:13337   */\n      swap1\n      pop\n        /* \"#utility.yul\":13347:13418   */\n      tag_298\n        /* \"#utility.yul\":13415:13416   */\n      0x00\n        /* \"#utility.yul\":13404:13413   */\n      dup4\n        /* \"#utility.yul\":13400:13417   */\n      add\n        /* \"#utility.yul\":13391:13397   */\n      dup6\n        /* \"#utility.yul\":13347:13418   */\n      tag_127\n      jump\t// in\n    tag_298:\n        /* \"#utility.yul\":13465:13474   */\n      dup2\n        /* \"#utility.yul\":13459:13463   */\n      dup2\n        /* \"#utility.yul\":13455:13475   */\n      sub\n        /* \"#utility.yul\":13450:13452   */\n      0x20\n        /* \"#utility.yul\":13439:13448   */\n      dup4\n        /* \"#utility.yul\":13435:13453   */\n      add\n        /* \"#utility.yul\":13428:13476   */\n      mstore\n        /* \"#utility.yul\":13493:13601   */\n      tag_299\n        /* \"#utility.yul\":13596:13600   */\n      dup2\n        /* \"#utility.yul\":13587:13593   */\n      dup5\n        /* \"#utility.yul\":13493:13601   */\n      tag_139\n      jump\t// in\n    tag_299:\n        /* \"#utility.yul\":13485:13601   */\n      swap1\n      pop\n        /* \"#utility.yul\":13125:13608   */\n      swap4\n      swap3\n      pop\n      pop\n      pop\n      jump\t// out\n        /* \"#utility.yul\":13614:13786   */\n    tag_156:\n        /* \"#utility.yul\":13754:13778   */\n      0x4f6e6c792063616c6c61626c65206279206f776e657200000000000000000000\n        /* \"#utility.yul\":13750:13751   */\n      0x00\n        /* \"#utility.yul\":13742:13748   */\n      dup3\n        /* \"#utility.yul\":13738:13752   */\n      add\n        /* \"#utility.yul\":13731:13779   */\n      mstore\n        /* \"#utility.yul\":13614:13786   */\n      pop\n      jump\t// out\n        /* \"#utility.yul\":13792:14158   */\n    tag_157:\n        /* \"#utility.yul\":13934:13937   */\n      0x00\n        /* \"#utility.yul\":13955:14022   */\n      tag_302\n        /* \"#utility.yul\":14019:14021   */\n      0x16\n        /* \"#utility.yul\":14014:14017   */\n      dup4\n        /* \"#utility.yul\":13955:14022   */\n      tag_142\n      jump\t// in\n    tag_302:\n        /* \"#utility.yul\":13948:14022   */\n      swap2\n      pop\n        /* \"#utility.yul\":14031:14124   */\n      tag_303\n        /* \"#utility.yul\":14120:14123   */\n      dup3\n        /* \"#utility.yul\":14031:14124   */\n      tag_156\n      jump\t// in\n    tag_303:\n        /* \"#utility.yul\":14149:14151   */\n      0x20\n        /* \"#utility.yul\":14144:14147   */\n      dup3\n        /* \"#utility.yul\":14140:14152   */\n      add\n        /* \"#utility.yul\":14133:14152   */\n      swap1\n      pop\n        /* \"#utility.yul\":13792:14158   */\n      swap2\n      swap1\n      pop\n      jump\t// out\n        /* \"#utility.yul\":14164:14583   */\n    tag_101:\n        /* \"#utility.yul\":14330:14334   */\n      0x00\n        /* \"#utility.yul\":14368:14370   */\n      0x20\n        /* \"#utility.yul\":14357:14366   */\n      dup3\n        /* \"#utility.yul\":14353:14371   */\n      add\n        /* \"#utility.yul\":14345:14371   */\n      swap1\n      pop\n        /* \"#utility.yul\":14417:14426   */\n      dup2\n        /* \"#utility.yul\":14411:14415   */\n      dup2\n        /* \"#utility.yul\":14407:14427   */\n      sub\n        /* \"#utility.yul\":14403:14404   */\n      0x00\n        /* \"#utility.yul\":14392:14401   */\n      dup4\n        /* \"#utility.yul\":14388:14405   */\n      add\n        /* \"#utility.yul\":14381:14428   */\n      mstore\n        /* \"#utility.yul\":14445:14576   */\n      tag_305\n        /* \"#utility.yul\":14571:14575   */\n      dup2\n        /* \"#utility.yul\":14445:14576   */\n      tag_157\n      jump\t// in\n    tag_305:\n        /* \"#utility.yul\":14437:14576   */\n      swap1\n      pop\n        /* \"#utility.yul\":14164:14583   */\n      swap2\n      swap1\n      pop\n      jump\t// out\n        /* \"#utility.yul\":14589:14762   */\n    tag_158:\n        /* \"#utility.yul\":14729:14754   */\n      0x43616e6e6f74207472616e7366657220746f2073656c66000000000000000000\n        /* \"#utility.yul\":14725:14726   */\n      0x00\n        /* \"#utility.yul\":14717:14723   */\n      dup3\n        /* \"#utility.yul\":14713:14727   */\n      add\n        /* \"#utility.yul\":14706:14755   */\n      mstore\n        /* \"#utility.yul\":14589:14762   */\n      pop\n      jump\t// out\n        /* \"#utility.yul\":14768:15134   */\n    tag_159:\n        /* \"#utility.yul\":14910:14913   */\n      0x00\n        /* \"#utility.yul\":14931:14998   */\n      tag_308\n        /* \"#utility.yul\":14995:14997   */\n      0x17\n        /* \"#utility.yul\":14990:14993   */\n      dup4\n        /* \"#utility.yul\":14931:14998   */\n      tag_142\n      jump\t// in\n    tag_308:\n        /* \"#utility.yul\":14924:14998   */\n      swap2\n      pop\n        /* \"#utility.yul\":15007:15100   */\n      tag_309\n        /* \"#utility.yul\":15096:15099   */\n      dup3\n        /* \"#utility.yul\":15007:15100   */\n      tag_158\n      jump\t// in\n    tag_309:\n        /* \"#utility.yul\":15125:15127   */\n      0x20\n        /* \"#utility.yul\":15120:15123   */\n      dup3\n        /* \"#utility.yul\":15116:15128   */\n      add\n        /* \"#utility.yul\":15109:15128   */\n      swap1\n      pop\n        /* \"#utility.yul\":14768:15134   */\n      swap2\n      swap1\n      pop\n      jump\t// out\n        /* \"#utility.yul\":15140:15559   */\n    tag_105:\n        /* \"#utility.yul\":15306:15310   */\n      0x00\n        /* \"#utility.yul\":15344:15346   */\n      0x20\n        /* \"#utility.yul\":15333:15342   */\n      dup3\n        /* \"#utility.yul\":15329:15347   */\n      add\n        /* \"#utility.yul\":15321:15347   */\n      swap1\n      pop\n        /* \"#utility.yul\":15393:15402   */\n      dup2\n        /* \"#utility.yul\":15387:15391   */\n      dup2\n        /* \"#utility.yul\":15383:15403   */\n      sub\n        /* \"#utility.yul\":15379:15380   */\n      0x00\n        /* \"#utility.yul\":15368:15377   */\n      dup4\n        /* \"#utility.yul\":15364:15381   */\n      add\n        /* \"#utility.yul\":15357:15404   */\n      mstore\n        /* \"#utility.yul\":15421:15552   */\n      tag_311\n        /* \"#utility.yul\":15547:15551   */\n      dup2\n        /* \"#utility.yul\":15421:15552   */\n      tag_159\n      jump\t// in\n    tag_311:\n        /* \"#utility.yul\":15413:15552   */\n      swap1\n      pop\n        /* \"#utility.yul\":15140:15559   */\n      swap2\n      swap1\n      pop\n      jump\t// out\n\n    auxdata: 0xa26469706673582212202391ed28685206b8ba6ae021ede45b8a0d95edc8962c6c2545516ae0550e3c2464736f6c63430008130033\n}\n",
				"bytecode": {
					"linkReferences": {},
					"object": "60a06040527f474e34a077df58807dbe9c96d3c009b23b3c6d0cce433e59bbf5b34f823bc56c60001b600655620186a0600760006101000a81548163ffffffff021916908363ffffffff1602179055506003600760046101000a81548161ffff021916908361ffff1602179055506001600760066101000a81548163ffffffff021916908363ffffffff1602179055503480156200009c57600080fd5b506040516200187b3803806200187b8339818101604052810190620000c291906200040a565b33806000738103b0a8a00be2ddc778e6e7eaa21791cd3646258073ffffffffffffffffffffffffffffffffffffffff1660808173ffffffffffffffffffffffffffffffffffffffff168152505050600073ffffffffffffffffffffffffffffffffffffffff168273ffffffffffffffffffffffffffffffffffffffff160362000182576040517f08c379a000000000000000000000000000000000000000000000000000000000815260040162000179906200049d565b60405180910390fd5b816000806101000a81548173ffffffffffffffffffffffffffffffffffffffff021916908373ffffffffffffffffffffffffffffffffffffffff160217905550600073ffffffffffffffffffffffffffffffffffffffff168173ffffffffffffffffffffffffffffffffffffffff1614620002095762000208816200029160201b60201c565b5b505050738103b0a8a00be2ddc778e6e7eaa21791cd364625600360006101000a81548173ffffffffffffffffffffffffffffffffffffffff021916908373ffffffffffffffffffffffffffffffffffffffff16021790555080600360146101000a81548167ffffffffffffffff021916908367ffffffffffffffff1602179055505062000531565b3373ffffffffffffffffffffffffffffffffffffffff168173ffffffffffffffffffffffffffffffffffffffff160362000302576040517f08c379a0000000000000000000000000000000000000000000000000000000008152600401620002f9906200050f565b60405180910390fd5b80600160006101000a81548173ffffffffffffffffffffffffffffffffffffffff021916908373ffffffffffffffffffffffffffffffffffffffff1602179055508073ffffffffffffffffffffffffffffffffffffffff1660008054906101000a900473ffffffffffffffffffffffffffffffffffffffff1673ffffffffffffffffffffffffffffffffffffffff167fed8889f560326eb138920d842192f0eb3dd22b4f139c87a2c57538e05bae127860405160405180910390a350565b600080fd5b600067ffffffffffffffff82169050919050565b620003e481620003c5565b8114620003f057600080fd5b50565b6000815190506200040481620003d9565b92915050565b600060208284031215620004235762000422620003c0565b5b60006200043384828501620003f3565b91505092915050565b600082825260208201905092915050565b7f43616e6e6f7420736574206f776e657220746f207a65726f0000000000000000600082015250565b6000620004856018836200043c565b915062000492826200044d565b602082019050919050565b60006020820190508181036000830152620004b88162000476565b9050919050565b7f43616e6e6f74207472616e7366657220746f2073656c66000000000000000000600082015250565b6000620004f76017836200043c565b91506200050482620004bf565b602082019050919050565b600060208201905081810360008301526200052a81620004e8565b9050919050565b60805161132762000554600039600081816101c8015261021c01526113276000f3fe608060405234801561001057600080fd5b50600436106100935760003560e01c8063a168fa8911610066578063a168fa891461010c578063d8a4676f1461013d578063e0c862891461016e578063f2fde38b1461018c578063fc2a88c3146101a857610093565b80631fe543e31461009857806379ba5097146100b45780638796ba8c146100be5780638da5cb5b146100ee575b600080fd5b6100b260048036038101906100ad9190610d07565b6101c6565b005b6100bc610286565b005b6100d860048036038101906100d39190610d63565b61041b565b6040516100e59190610d9f565b60405180910390f35b6100f661043f565b6040516101039190610dfb565b60405180910390f35b61012660048036038101906101219190610d63565b610468565b604051610134929190610e31565b60405180910390f35b61015760048036038101906101529190610d63565b6104a6565b604051610165929190610f18565b60405180910390f35b6101766105d1565b6040516101839190610d9f565b60405180910390f35b6101a660048036038101906101a19190610f74565b61082a565b005b6101b061083e565b6040516101bd9190610d9f565b60405180910390f35b7f000000000000000000000000000000000000000000000000000000000000000073ffffffffffffffffffffffffffffffffffffffff163373ffffffffffffffffffffffffffffffffffffffff161461027857337f00000000000000000000000000000000000000000000000000000000000000006040517f1cf993f400000000000000000000000000000000000000000000000000000000815260040161026f929190610fa1565b60405180910390fd5b6102828282610844565b5050565b600160009054906101000a900473ffffffffffffffffffffffffffffffffffffffff1673ffffffffffffffffffffffffffffffffffffffff163373ffffffffffffffffffffffffffffffffffffffff1614610316576040517f08c379a000000000000000000000000000000000000000000000000000000000815260040161030d90611027565b60405180910390fd5b60008060009054906101000a900473ffffffffffffffffffffffffffffffffffffffff169050336000806101000a81548173ffffffffffffffffffffffffffffffffffffffff021916908373ffffffffffffffffffffffffffffffffffffffff1602179055506000600160006101000a81548173ffffffffffffffffffffffffffffffffffffffff021916908373ffffffffffffffffffffffffffffffffffffffff1602179055503373ffffffffffffffffffffffffffffffffffffffff168173ffffffffffffffffffffffffffffffffffffffff167f8be0079c531659141344cd1fd0a4f28419497f9722a3daafe3b4186f6b6457e060405160405180910390a350565b6004818154811061042b57600080fd5b906000526020600020016000915090505481565b60008060009054906101000a900473ffffffffffffffffffffffffffffffffffffffff16905090565b60026020528060005260406000206000915090508060000160009054906101000a900460ff16908060000160019054906101000a900460ff16905082565b600060606002600084815260200190815260200160002060000160019054906101000a900460ff1661050d576040517f08c379a000000000000000000000000000000000000000000000000000000000815260040161050490611093565b60405180910390fd5b6000600260008581526020019081526020016000206040518060600160405290816000820160009054906101000a900460ff161515151581526020016000820160019054906101000a900460ff16151515158152602001600182018054806020026020016040519081016040528092919081815260200182805480156105b257602002820191906000526020600020905b81548152602001906001019080831161059e575b5050505050815250509050806000015181604001519250925050915091565b60006105db61093e565b600360009054906101000a900473ffffffffffffffffffffffffffffffffffffffff1673ffffffffffffffffffffffffffffffffffffffff16635d3b1d30600654600360149054906101000a900467ffffffffffffffff16600760049054906101000a900461ffff16600760009054906101000a900463ffffffff16600760069054906101000a900463ffffffff166040518663ffffffff1660e01b815260040161068a95949392919061112b565b6020604051808303816000875af11580156106a9573d6000803e3d6000fd5b505050506040513d601f19601f820116820180604052508101906106cd9190611193565b90506040518060600160405280600015158152602001600115158152602001600067ffffffffffffffff81111561070757610706610bc4565b5b6040519080825280602002602001820160405280156107355781602001602082028036833780820191505090505b508152506002600083815260200190815260200160002060008201518160000160006101000a81548160ff02191690831515021790555060208201518160000160016101000a81548160ff02191690831515021790555060408201518160010190805190602001906107a8929190610afa565b509050506004819080600181540180825580915050600190039060005260206000200160009091909190915055806005819055507fcc58b13ad3eab50626c6a6300b1d139cd6ebb1688a7cced9461c2f7e762665ee81600760069054906101000a900463ffffffff1660405161081f9291906111c0565b60405180910390a190565b61083261093e565b61083b816109ce565b50565b60055481565b6002600083815260200190815260200160002060000160019054906101000a900460ff166108a7576040517f08c379a000000000000000000000000000000000000000000000000000000000815260040161089e90611093565b60405180910390fd5b60016002600084815260200190815260200160002060000160006101000a81548160ff02191690831515021790555080600260008481526020019081526020016000206001019080519060200190610900929190610afa565b507ffe2e2d779dba245964d4e3ef9b994be63856fd568bf7d3ca9e224755cb1bd54d82826040516109329291906111e9565b60405180910390a15050565b60008054906101000a900473ffffffffffffffffffffffffffffffffffffffff1673ffffffffffffffffffffffffffffffffffffffff163373ffffffffffffffffffffffffffffffffffffffff16146109cc576040517f08c379a00000000000000000000000000000000000000000000000000000000081526004016109c390611265565b60405180910390fd5b565b3373ffffffffffffffffffffffffffffffffffffffff168173ffffffffffffffffffffffffffffffffffffffff1603610a3c576040517f08c379a0000000000000000000000000000000000000000000000000000000008152600401610a33906112d1565b60405180910390fd5b80600160006101000a81548173ffffffffffffffffffffffffffffffffffffffff021916908373ffffffffffffffffffffffffffffffffffffffff1602179055508073ffffffffffffffffffffffffffffffffffffffff1660008054906101000a900473ffffffffffffffffffffffffffffffffffffffff1673ffffffffffffffffffffffffffffffffffffffff167fed8889f560326eb138920d842192f0eb3dd22b4f139c87a2c57538e05bae127860405160405180910390a350565b828054828255906000526020600020908101928215610b36579160200282015b82811115610b35578251825591602001919060010190610b1a565b5b509050610b439190610b47565b5090565b5b80821115610b60576000816000905550600101610b48565b5090565b6000604051905090565b600080fd5b600080fd5b6000819050919050565b610b8b81610b78565b8114610b9657600080fd5b50565b600081359050610ba881610b82565b92915050565b600080fd5b6000601f19601f8301169050919050565b7f4e487b7100000000000000000000000000000000000000000000000000000000600052604160045260246000fd5b610bfc82610bb3565b810181811067ffffffffffffffff82111715610c1b57610c1a610bc4565b5b80604052505050565b6000610c2e610b64565b9050610c3a8282610bf3565b919050565b600067ffffffffffffffff821115610c5a57610c59610bc4565b5b602082029050602081019050919050565b600080fd5b6000610c83610c7e84610c3f565b610c24565b90508083825260208201905060208402830185811115610ca657610ca5610c6b565b5b835b81811015610ccf5780610cbb8882610b99565b845260208401935050602081019050610ca8565b5050509392505050565b600082601f830112610cee57610ced610bae565b5b8135610cfe848260208601610c70565b91505092915050565b60008060408385031215610d1e57610d1d610b6e565b5b6000610d2c85828601610b99565b925050602083013567ffffffffffffffff811115610d4d57610d4c610b73565b5b610d5985828601610cd9565b9150509250929050565b600060208284031215610d7957610d78610b6e565b5b6000610d8784828501610b99565b91505092915050565b610d9981610b78565b82525050565b6000602082019050610db46000830184610d90565b92915050565b600073ffffffffffffffffffffffffffffffffffffffff82169050919050565b6000610de582610dba565b9050919050565b610df581610dda565b82525050565b6000602082019050610e106000830184610dec565b92915050565b60008115159050919050565b610e2b81610e16565b82525050565b6000604082019050610e466000830185610e22565b610e536020830184610e22565b9392505050565b600081519050919050565b600082825260208201905092915050565b6000819050602082019050919050565b610e8f81610b78565b82525050565b6000610ea18383610e86565b60208301905092915050565b6000602082019050919050565b6000610ec582610e5a565b610ecf8185610e65565b9350610eda83610e76565b8060005b83811015610f0b578151610ef28882610e95565b9750610efd83610ead565b925050600181019050610ede565b5085935050505092915050565b6000604082019050610f2d6000830185610e22565b8181036020830152610f3f8184610eba565b90509392505050565b610f5181610dda565b8114610f5c57600080fd5b50565b600081359050610f6e81610f48565b92915050565b600060208284031215610f8a57610f89610b6e565b5b6000610f9884828501610f5f565b91505092915050565b6000604082019050610fb66000830185610dec565b610fc36020830184610dec565b9392505050565b600082825260208201905092915050565b7f4d7573742062652070726f706f736564206f776e657200000000000000000000600082015250565b6000611011601683610fca565b915061101c82610fdb565b602082019050919050565b6000602082019050818103600083015261104081611004565b9050919050565b7f72657175657374206e6f7420666f756e64000000000000000000000000000000600082015250565b600061107d601183610fca565b915061108882611047565b602082019050919050565b600060208201905081810360008301526110ac81611070565b9050919050565b6000819050919050565b6110c6816110b3565b82525050565b600067ffffffffffffffff82169050919050565b6110e9816110cc565b82525050565b600061ffff82169050919050565b611106816110ef565b82525050565b600063ffffffff82169050919050565b6111258161110c565b82525050565b600060a08201905061114060008301886110bd565b61114d60208301876110e0565b61115a60408301866110fd565b611167606083018561111c565b611174608083018461111c565b9695505050505050565b60008151905061118d81610b82565b92915050565b6000602082840312156111a9576111a8610b6e565b5b60006111b78482850161117e565b91505092915050565b60006040820190506111d56000830185610d90565b6111e2602083018461111c565b9392505050565b60006040820190506111fe6000830185610d90565b81810360208301526112108184610eba565b90509392505050565b7f4f6e6c792063616c6c61626c65206279206f776e657200000000000000000000600082015250565b600061124f601683610fca565b915061125a82611219565b602082019050919050565b6000602082019050818103600083015261127e81611242565b9050919050565b7f43616e6e6f74207472616e7366657220746f2073656c66000000000000000000600082015250565b60006112bb601783610fca565b91506112c682611285565b602082019050919050565b600060208201905081810360008301526112ea816112ae565b905091905056fea26469706673582212202391ed28685206b8ba6ae021ede45b8a0d95edc8962c6c2545516ae0550e3c2464736f6c63430008130033",
					"opcodes": "PUSH1 0xA0 PUSH1 0x40 MSTORE PUSH32 0x474E34A077DF58807DBE9C96D3C009B23B3C6D0CCE433E59BBF5B34F823BC56C PUSH1 0x0 SHL PUSH1 0x6 SSTORE PUSH3 0x186A0 PUSH1 0x7 PUSH1 0x0 PUSH2 0x100 EXP DUP2 SLOAD DUP2 PUSH4 0xFFFFFFFF MUL NOT AND SWAP1 DUP4 PUSH4 0xFFFFFFFF AND MUL OR SWAP1 SSTORE POP PUSH1 0x3 PUSH1 0x7 PUSH1 0x4 PUSH2 0x100 EXP DUP2 SLOAD DUP2 PUSH2 0xFFFF MUL NOT AND SWAP1 DUP4 PUSH2 0xFFFF AND MUL OR SWAP1 SSTORE POP PUSH1 0x1 PUSH1 0x7 PUSH1 0x6 PUSH2 0x100 EXP DUP2 SLOAD DUP2 PUSH4 0xFFFFFFFF MUL NOT AND SWAP1 DUP4 PUSH4 0xFFFFFFFF AND MUL OR SWAP1 SSTORE POP CALLVALUE DUP1 ISZERO PUSH3 0x9C JUMPI PUSH1 0x0 DUP1 REVERT JUMPDEST POP PUSH1 0x40 MLOAD PUSH3 0x187B CODESIZE SUB DUP1 PUSH3 0x187B DUP4 CODECOPY DUP2 DUP2 ADD PUSH1 0x40 MSTORE DUP2 ADD SWAP1 PUSH3 0xC2 SWAP2 SWAP1 PUSH3 0x40A JUMP JUMPDEST CALLER DUP1 PUSH1 0x0 PUSH20 0x8103B0A8A00BE2DDC778E6E7EAA21791CD364625 DUP1 PUSH20 0xFFFFFFFFFFFFFFFFFFFFFFFFFFFFFFFFFFFFFFFF AND PUSH1 0x80 DUP2 PUSH20 0xFFFFFFFFFFFFFFFFFFFFFFFFFFFFFFFFFFFFFFFF AND DUP2 MSTORE POP POP POP PUSH1 0x0 PUSH20 0xFFFFFFFFFFFFFFFFFFFFFFFFFFFFFFFFFFFFFFFF AND DUP3 PUSH20 0xFFFFFFFFFFFFFFFFFFFFFFFFFFFFFFFFFFFFFFFF AND SUB PUSH3 0x182 JUMPI PUSH1 0x40 MLOAD PUSH32 0x8C379A000000000000000000000000000000000000000000000000000000000 DUP2 MSTORE PUSH1 0x4 ADD PUSH3 0x179 SWAP1 PUSH3 0x49D JUMP JUMPDEST PUSH1 0x40 MLOAD DUP1 SWAP2 SUB SWAP1 REVERT JUMPDEST DUP2 PUSH1 0x0 DUP1 PUSH2 0x100 EXP DUP2 SLOAD DUP2 PUSH20 0xFFFFFFFFFFFFFFFFFFFFFFFFFFFFFFFFFFFFFFFF MUL NOT AND SWAP1 DUP4 PUSH20 0xFFFFFFFFFFFFFFFFFFFFFFFFFFFFFFFFFFFFFFFF AND MUL OR SWAP1 SSTORE POP PUSH1 0x0 PUSH20 0xFFFFFFFFFFFFFFFFFFFFFFFFFFFFFFFFFFFFFFFF AND DUP2 PUSH20 0xFFFFFFFFFFFFFFFFFFFFFFFFFFFFFFFFFFFFFFFF AND EQ PUSH3 0x209 JUMPI PUSH3 0x208 DUP2 PUSH3 0x291 PUSH1 0x20 SHL PUSH1 0x20 SHR JUMP JUMPDEST JUMPDEST POP POP POP PUSH20 0x8103B0A8A00BE2DDC778E6E7EAA21791CD364625 PUSH1 0x3 PUSH1 0x0 PUSH2 0x100 EXP DUP2 SLOAD DUP2 PUSH20 0xFFFFFFFFFFFFFFFFFFFFFFFFFFFFFFFFFFFFFFFF MUL NOT AND SWAP1 DUP4 PUSH20 0xFFFFFFFFFFFFFFFFFFFFFFFFFFFFFFFFFFFFFFFF AND MUL OR SWAP1 SSTORE POP DUP1 PUSH1 0x3 PUSH1 0x14 PUSH2 0x100 EXP DUP2 SLOAD DUP2 PUSH8 0xFFFFFFFFFFFFFFFF MUL NOT AND SWAP1 DUP4 PUSH8 0xFFFFFFFFFFFFFFFF AND MUL OR SWAP1 SSTORE POP POP PUSH3 0x531 JUMP JUMPDEST CALLER PUSH20 0xFFFFFFFFFFFFFFFFFFFFFFFFFFFFFFFFFFFFFFFF AND DUP2 PUSH20 0xFFFFFFFFFFFFFFFFFFFFFFFFFFFFFFFFFFFFFFFF AND SUB PUSH3 0x302 JUMPI PUSH1 0x40 MLOAD PUSH32 0x8C379A000000000000000000000000000000000000000000000000000000000 DUP2 MSTORE PUSH1 0x4 ADD PUSH3 0x2F9 SWAP1 PUSH3 0x50F JUMP JUMPDEST PUSH1 0x40 MLOAD DUP1 SWAP2 SUB SWAP1 REVERT JUMPDEST DUP1 PUSH1 0x1 PUSH1 0x0 PUSH2 0x100 EXP DUP2 SLOAD DUP2 PUSH20 0xFFFFFFFFFFFFFFFFFFFFFFFFFFFFFFFFFFFFFFFF MUL NOT AND SWAP1 DUP4 PUSH20 0xFFFFFFFFFFFFFFFFFFFFFFFFFFFFFFFFFFFFFFFF AND MUL OR SWAP1 SSTORE POP DUP1 PUSH20 0xFFFFFFFFFFFFFFFFFFFFFFFFFFFFFFFFFFFFFFFF AND PUSH1 0x0 DUP1 SLOAD SWAP1 PUSH2 0x100 EXP SWAP1 DIV PUSH20 0xFFFFFFFFFFFFFFFFFFFFFFFFFFFFFFFFFFFFFFFF AND PUSH20 0xFFFFFFFFFFFFFFFFFFFFFFFFFFFFFFFFFFFFFFFF AND PUSH32 0xED8889F560326EB138920D842192F0EB3DD22B4F139C87A2C57538E05BAE1278 PUSH1 0x40 MLOAD PUSH1 0x40 MLOAD DUP1 SWAP2 SUB SWAP1 LOG3 POP JUMP JUMPDEST PUSH1 0x0 DUP1 REVERT JUMPDEST PUSH1 0x0 PUSH8 0xFFFFFFFFFFFFFFFF DUP3 AND SWAP1 POP SWAP2 SWAP1 POP JUMP JUMPDEST PUSH3 0x3E4 DUP2 PUSH3 0x3C5 JUMP JUMPDEST DUP2 EQ PUSH3 0x3F0 JUMPI PUSH1 0x0 DUP1 REVERT JUMPDEST POP JUMP JUMPDEST PUSH1 0x0 DUP2 MLOAD SWAP1 POP PUSH3 0x404 DUP2 PUSH3 0x3D9 JUMP JUMPDEST SWAP3 SWAP2 POP POP JUMP JUMPDEST PUSH1 0x0 PUSH1 0x20 DUP3 DUP5 SUB SLT ISZERO PUSH3 0x423 JUMPI PUSH3 0x422 PUSH3 0x3C0 JUMP JUMPDEST JUMPDEST PUSH1 0x0 PUSH3 0x433 DUP5 DUP3 DUP6 ADD PUSH3 0x3F3 JUMP JUMPDEST SWAP2 POP POP SWAP3 SWAP2 POP POP JUMP JUMPDEST PUSH1 0x0 DUP3 DUP3 MSTORE PUSH1 0x20 DUP3 ADD SWAP1 POP SWAP3 SWAP2 POP POP JUMP JUMPDEST PUSH32 0x43616E6E6F7420736574206F776E657220746F207A65726F0000000000000000 PUSH1 0x0 DUP3 ADD MSTORE POP JUMP JUMPDEST PUSH1 0x0 PUSH3 0x485 PUSH1 0x18 DUP4 PUSH3 0x43C JUMP JUMPDEST SWAP2 POP PUSH3 0x492 DUP3 PUSH3 0x44D JUMP JUMPDEST PUSH1 0x20 DUP3 ADD SWAP1 POP SWAP2 SWAP1 POP JUMP JUMPDEST PUSH1 0x0 PUSH1 0x20 DUP3 ADD SWAP1 POP DUP2 DUP2 SUB PUSH1 0x0 DUP4 ADD MSTORE PUSH3 0x4B8 DUP2 PUSH3 0x476 JUMP JUMPDEST SWAP1 POP SWAP2 SWAP1 POP JUMP JUMPDEST PUSH32 0x43616E6E6F74207472616E7366657220746F2073656C66000000000000000000 PUSH1 0x0 DUP3 ADD MSTORE POP JUMP JUMPDEST PUSH1 0x0 PUSH3 0x4F7 PUSH1 0x17 DUP4 PUSH3 0x43C JUMP JUMPDEST SWAP2 POP PUSH3 0x504 DUP3 PUSH3 0x4BF JUMP JUMPDEST PUSH1 0x20 DUP3 ADD SWAP1 POP SWAP2 SWAP1 POP JUMP JUMPDEST PUSH1 0x0 PUSH1 0x20 DUP3 ADD SWAP1 POP DUP2 DUP2 SUB PUSH1 0x0 DUP4 ADD MSTORE PUSH3 0x52A DUP2 PUSH3 0x4E8 JUMP JUMPDEST SWAP1 POP SWAP2 SWAP1 POP JUMP JUMPDEST PUSH1 0x80 MLOAD PUSH2 0x1327 PUSH3 0x554 PUSH1 0x0 CODECOPY PUSH1 0x0 DUP2 DUP2 PUSH2 0x1C8 ADD MSTORE PUSH2 0x21C ADD MSTORE PUSH2 0x1327 PUSH1 0x0 RETURN INVALID PUSH1 0x80 PUSH1 0x40 MSTORE CALLVALUE DUP1 ISZERO PUSH2 0x10 JUMPI PUSH1 0x0 DUP1 REVERT JUMPDEST POP PUSH1 0x4 CALLDATASIZE LT PUSH2 0x93 JUMPI PUSH1 0x0 CALLDATALOAD PUSH1 0xE0 SHR DUP1 PUSH4 0xA168FA89 GT PUSH2 0x66 JUMPI DUP1 PUSH4 0xA168FA89 EQ PUSH2 0x10C JUMPI DUP1 PUSH4 0xD8A4676F EQ PUSH2 0x13D JUMPI DUP1 PUSH4 0xE0C86289 EQ PUSH2 0x16E JUMPI DUP1 PUSH4 0xF2FDE38B EQ PUSH2 0x18C JUMPI DUP1 PUSH4 0xFC2A88C3 EQ PUSH2 0x1A8 JUMPI PUSH2 0x93 JUMP JUMPDEST DUP1 PUSH4 0x1FE543E3 EQ PUSH2 0x98 JUMPI DUP1 PUSH4 0x79BA5097 EQ PUSH2 0xB4 JUMPI DUP1 PUSH4 0x8796BA8C EQ PUSH2 0xBE JUMPI DUP1 PUSH4 0x8DA5CB5B EQ PUSH2 0xEE JUMPI JUMPDEST PUSH1 0x0 DUP1 REVERT JUMPDEST PUSH2 0xB2 PUSH1 0x4 DUP1 CALLDATASIZE SUB DUP2 ADD SWAP1 PUSH2 0xAD SWAP2 SWAP1 PUSH2 0xD07 JUMP JUMPDEST PUSH2 0x1C6 JUMP JUMPDEST STOP JUMPDEST PUSH2 0xBC PUSH2 0x286 JUMP JUMPDEST STOP JUMPDEST PUSH2 0xD8 PUSH1 0x4 DUP1 CALLDATASIZE SUB DUP2 ADD SWAP1 PUSH2 0xD3 SWAP2 SWAP1 PUSH2 0xD63 JUMP JUMPDEST PUSH2 0x41B JUMP JUMPDEST PUSH1 0x40 MLOAD PUSH2 0xE5 SWAP2 SWAP1 PUSH2 0xD9F JUMP JUMPDEST PUSH1 0x40 MLOAD DUP1 SWAP2 SUB SWAP1 RETURN JUMPDEST PUSH2 0xF6 PUSH2 0x43F JUMP JUMPDEST PUSH1 0x40 MLOAD PUSH2 0x103 SWAP2 SWAP1 PUSH2 0xDFB JUMP JUMPDEST PUSH1 0x40 MLOAD DUP1 SWAP2 SUB SWAP1 RETURN JUMPDEST PUSH2 0x126 PUSH1 0x4 DUP1 CALLDATASIZE SUB DUP2 ADD SWAP1 PUSH2 0x121 SWAP2 SWAP1 PUSH2 0xD63 JUMP JUMPDEST PUSH2 0x468 JUMP JUMPDEST PUSH1 0x40 MLOAD PUSH2 0x134 SWAP3 SWAP2 SWAP1 PUSH2 0xE31 JUMP JUMPDEST PUSH1 0x40 MLOAD DUP1 SWAP2 SUB SWAP1 RETURN JUMPDEST PUSH2 0x157 PUSH1 0x4 DUP1 CALLDATASIZE SUB DUP2 ADD SWAP1 PUSH2 0x152 SWAP2 SWAP1 PUSH2 0xD63 JUMP JUMPDEST PUSH2 0x4A6 JUMP JUMPDEST PUSH1 0x40 MLOAD PUSH2 0x165 SWAP3 SWAP2 SWAP1 PUSH2 0xF18 JUMP JUMPDEST PUSH1 0x40 MLOAD DUP1 SWAP2 SUB SWAP1 RETURN JUMPDEST PUSH2 0x176 PUSH2 0x5D1 JUMP JUMPDEST PUSH1 0x40 MLOAD PUSH2 0x183 SWAP2 SWAP1 PUSH2 0xD9F JUMP JUMPDEST PUSH1 0x40 MLOAD DUP1 SWAP2 SUB SWAP1 RETURN JUMPDEST PUSH2 0x1A6 PUSH1 0x4 DUP1 CALLDATASIZE SUB DUP2 ADD SWAP1 PUSH2 0x1A1 SWAP2 SWAP1 PUSH2 0xF74 JUMP JUMPDEST PUSH2 0x82A JUMP JUMPDEST STOP JUMPDEST PUSH2 0x1B0 PUSH2 0x83E JUMP JUMPDEST PUSH1 0x40 MLOAD PUSH2 0x1BD SWAP2 SWAP1 PUSH2 0xD9F JUMP JUMPDEST PUSH1 0x40 MLOAD DUP1 SWAP2 SUB SWAP1 RETURN JUMPDEST PUSH32 0x0 PUSH20 0xFFFFFFFFFFFFFFFFFFFFFFFFFFFFFFFFFFFFFFFF AND CALLER PUSH20 0xFFFFFFFFFFFFFFFFFFFFFFFFFFFFFFFFFFFFFFFF AND EQ PUSH2 0x278 JUMPI CALLER PUSH32 0x0 PUSH1 0x40 MLOAD PUSH32 0x1CF993F400000000000000000000000000000000000000000000000000000000 DUP2 MSTORE PUSH1 0x4 ADD PUSH2 0x26F SWAP3 SWAP2 SWAP1 PUSH2 0xFA1 JUMP JUMPDEST PUSH1 0x40 MLOAD DUP1 SWAP2 SUB SWAP1 REVERT JUMPDEST PUSH2 0x282 DUP3 DUP3 PUSH2 0x844 JUMP JUMPDEST POP POP JUMP JUMPDEST PUSH1 0x1 PUSH1 0x0 SWAP1 SLOAD SWAP1 PUSH2 0x100 EXP SWAP1 DIV PUSH20 0xFFFFFFFFFFFFFFFFFFFFFFFFFFFFFFFFFFFFFFFF AND PUSH20 0xFFFFFFFFFFFFFFFFFFFFFFFFFFFFFFFFFFFFFFFF AND CALLER PUSH20 0xFFFFFFFFFFFFFFFFFFFFFFFFFFFFFFFFFFFFFFFF AND EQ PUSH2 0x316 JUMPI PUSH1 0x40 MLOAD PUSH32 0x8C379A000000000000000000000000000000000000000000000000000000000 DUP2 MSTORE PUSH1 0x4 ADD PUSH2 0x30D SWAP1 PUSH2 0x1027 JUMP JUMPDEST PUSH1 0x40 MLOAD DUP1 SWAP2 SUB SWAP1 REVERT JUMPDEST PUSH1 0x0 DUP1 PUSH1 0x0 SWAP1 SLOAD SWAP1 PUSH2 0x100 EXP SWAP1 DIV PUSH20 0xFFFFFFFFFFFFFFFFFFFFFFFFFFFFFFFFFFFFFFFF AND SWAP1 POP CALLER PUSH1 0x0 DUP1 PUSH2 0x100 EXP DUP2 SLOAD DUP2 PUSH20 0xFFFFFFFFFFFFFFFFFFFFFFFFFFFFFFFFFFFFFFFF MUL NOT AND SWAP1 DUP4 PUSH20 0xFFFFFFFFFFFFFFFFFFFFFFFFFFFFFFFFFFFFFFFF AND MUL OR SWAP1 SSTORE POP PUSH1 0x0 PUSH1 0x1 PUSH1 0x0 PUSH2 0x100 EXP DUP2 SLOAD DUP2 PUSH20 0xFFFFFFFFFFFFFFFFFFFFFFFFFFFFFFFFFFFFFFFF MUL NOT AND SWAP1 DUP4 PUSH20 0xFFFFFFFFFFFFFFFFFFFFFFFFFFFFFFFFFFFFFFFF AND MUL OR SWAP1 SSTORE POP CALLER PUSH20 0xFFFFFFFFFFFFFFFFFFFFFFFFFFFFFFFFFFFFFFFF AND DUP2 PUSH20 0xFFFFFFFFFFFFFFFFFFFFFFFFFFFFFFFFFFFFFFFF AND PUSH32 0x8BE0079C531659141344CD1FD0A4F28419497F9722A3DAAFE3B4186F6B6457E0 PUSH1 0x40 MLOAD PUSH1 0x40 MLOAD DUP1 SWAP2 SUB SWAP1 LOG3 POP JUMP JUMPDEST PUSH1 0x4 DUP2 DUP2 SLOAD DUP2 LT PUSH2 0x42B JUMPI PUSH1 0x0 DUP1 REVERT JUMPDEST SWAP1 PUSH1 0x0 MSTORE PUSH1 0x20 PUSH1 0x0 KECCAK256 ADD PUSH1 0x0 SWAP2 POP SWAP1 POP SLOAD DUP2 JUMP JUMPDEST PUSH1 0x0 DUP1 PUSH1 0x0 SWAP1 SLOAD SWAP1 PUSH2 0x100 EXP SWAP1 DIV PUSH20 0xFFFFFFFFFFFFFFFFFFFFFFFFFFFFFFFFFFFFFFFF AND SWAP1 POP SWAP1 JUMP JUMPDEST PUSH1 0x2 PUSH1 0x20 MSTORE DUP1 PUSH1 0x0 MSTORE PUSH1 0x40 PUSH1 0x0 KECCAK256 PUSH1 0x0 SWAP2 POP SWAP1 POP DUP1 PUSH1 0x0 ADD PUSH1 0x0 SWAP1 SLOAD SWAP1 PUSH2 0x100 EXP SWAP1 DIV PUSH1 0xFF AND SWAP1 DUP1 PUSH1 0x0 ADD PUSH1 0x1 SWAP1 SLOAD SWAP1 PUSH2 0x100 EXP SWAP1 DIV PUSH1 0xFF AND SWAP1 POP DUP3 JUMP JUMPDEST PUSH1 0x0 PUSH1 0x60 PUSH1 0x2 PUSH1 0x0 DUP5 DUP2 MSTORE PUSH1 0x20 ADD SWAP1 DUP2 MSTORE PUSH1 0x20 ADD PUSH1 0x0 KECCAK256 PUSH1 0x0 ADD PUSH1 0x1 SWAP1 SLOAD SWAP1 PUSH2 0x100 EXP SWAP1 DIV PUSH1 0xFF AND PUSH2 0x50D JUMPI PUSH1 0x40 MLOAD PUSH32 0x8C379A000000000000000000000000000000000000000000000000000000000 DUP2 MSTORE PUSH1 0x4 ADD PUSH2 0x504 SWAP1 PUSH2 0x1093 JUMP JUMPDEST PUSH1 0x40 MLOAD DUP1 SWAP2 SUB SWAP1 REVERT JUMPDEST PUSH1 0x0 PUSH1 0x2 PUSH1 0x0 DUP6 DUP2 MSTORE PUSH1 0x20 ADD SWAP1 DUP2 MSTORE PUSH1 0x20 ADD PUSH1 0x0 KECCAK256 PUSH1 0x40 MLOAD DUP1 PUSH1 0x60 ADD PUSH1 0x40 MSTORE SWAP1 DUP2 PUSH1 0x0 DUP3 ADD PUSH1 0x0 SWAP1 SLOAD SWAP1 PUSH2 0x100 EXP SWAP1 DIV PUSH1 0xFF AND ISZERO ISZERO ISZERO ISZERO DUP2 MSTORE PUSH1 0x20 ADD PUSH1 0x0 DUP3 ADD PUSH1 0x1 SWAP1 SLOAD SWAP1 PUSH2 0x100 EXP SWAP1 DIV PUSH1 0xFF AND ISZERO ISZERO ISZERO ISZERO DUP2 MSTORE PUSH1 0x20 ADD PUSH1 0x1 DUP3 ADD DUP1 SLOAD DUP1 PUSH1 0x20 MUL PUSH1 0x20 ADD PUSH1 0x40 MLOAD SWAP1 DUP2 ADD PUSH1 0x40 MSTORE DUP1 SWAP3 SWAP2 SWAP1 DUP2 DUP2 MSTORE PUSH1 0x20 ADD DUP3 DUP1 SLOAD DUP1 ISZERO PUSH2 0x5B2 JUMPI PUSH1 0x20 MUL DUP3 ADD SWAP2 SWAP1 PUSH1 0x0 MSTORE PUSH1 0x20 PUSH1 0x0 KECCAK256 SWAP1 JUMPDEST DUP2 SLOAD DUP2 MSTORE PUSH1 0x20 ADD SWAP1 PUSH1 0x1 ADD SWAP1 DUP1 DUP4 GT PUSH2 0x59E JUMPI JUMPDEST POP POP POP POP POP DUP2 MSTORE POP POP SWAP1 POP DUP1 PUSH1 0x0 ADD MLOAD DUP2 PUSH1 0x40 ADD MLOAD SWAP3 POP SWAP3 POP POP SWAP2 POP SWAP2 JUMP JUMPDEST PUSH1 0x0 PUSH2 0x5DB PUSH2 0x93E JUMP JUMPDEST PUSH1 0x3 PUSH1 0x0 SWAP1 SLOAD SWAP1 PUSH2 0x100 EXP SWAP1 DIV PUSH20 0xFFFFFFFFFFFFFFFFFFFFFFFFFFFFFFFFFFFFFFFF AND PUSH20 0xFFFFFFFFFFFFFFFFFFFFFFFFFFFFFFFFFFFFFFFF AND PUSH4 0x5D3B1D30 PUSH1 0x6 SLOAD PUSH1 0x3 PUSH1 0x14 SWAP1 SLOAD SWAP1 PUSH2 0x100 EXP SWAP1 DIV PUSH8 0xFFFFFFFFFFFFFFFF AND PUSH1 0x7 PUSH1 0x4 SWAP1 SLOAD SWAP1 PUSH2 0x100 EXP SWAP1 DIV PUSH2 0xFFFF AND PUSH1 0x7 PUSH1 0x0 SWAP1 SLOAD SWAP1 PUSH2 0x100 EXP SWAP1 DIV PUSH4 0xFFFFFFFF AND PUSH1 0x7 PUSH1 0x6 SWAP1 SLOAD SWAP1 PUSH2 0x100 EXP SWAP1 DIV PUSH4 0xFFFFFFFF AND PUSH1 0x40 MLOAD DUP7 PUSH4 0xFFFFFFFF AND PUSH1 0xE0 SHL DUP2 MSTORE PUSH1 0x4 ADD PUSH2 0x68A SWAP6 SWAP5 SWAP4 SWAP3 SWAP2 SWAP1 PUSH2 0x112B JUMP JUMPDEST PUSH1 0x20 PUSH1 0x40 MLOAD DUP1 DUP4 SUB DUP2 PUSH1 0x0 DUP8 GAS CALL ISZERO DUP1 ISZERO PUSH2 0x6A9 JUMPI RETURNDATASIZE PUSH1 0x0 DUP1 RETURNDATACOPY RETURNDATASIZE PUSH1 0x0 REVERT JUMPDEST POP POP POP POP PUSH1 0x40 MLOAD RETURNDATASIZE PUSH1 0x1F NOT PUSH1 0x1F DUP3 ADD AND DUP3 ADD DUP1 PUSH1 0x40 MSTORE POP DUP2 ADD SWAP1 PUSH2 0x6CD SWAP2 SWAP1 PUSH2 0x1193 JUMP JUMPDEST SWAP1 POP PUSH1 0x40 MLOAD DUP1 PUSH1 0x60 ADD PUSH1 0x40 MSTORE DUP1 PUSH1 0x0 ISZERO ISZERO DUP2 MSTORE PUSH1 0x20 ADD PUSH1 0x1 ISZERO ISZERO DUP2 MSTORE PUSH1 0x20 ADD PUSH1 0x0 PUSH8 0xFFFFFFFFFFFFFFFF DUP2 GT ISZERO PUSH2 0x707 JUMPI PUSH2 0x706 PUSH2 0xBC4 JUMP JUMPDEST JUMPDEST PUSH1 0x40 MLOAD SWAP1 DUP1 DUP3 MSTORE DUP1 PUSH1 0x20 MUL PUSH1 0x20 ADD DUP3 ADD PUSH1 0x40 MSTORE DUP1 ISZERO PUSH2 0x735 JUMPI DUP2 PUSH1 0x20 ADD PUSH1 0x20 DUP3 MUL DUP1 CALLDATASIZE DUP4 CALLDATACOPY DUP1 DUP3 ADD SWAP2 POP POP SWAP1 POP JUMPDEST POP DUP2 MSTORE POP PUSH1 0x2 PUSH1 0x0 DUP4 DUP2 MSTORE PUSH1 0x20 ADD SWAP1 DUP2 MSTORE PUSH1 0x20 ADD PUSH1 0x0 KECCAK256 PUSH1 0x0 DUP3 ADD MLOAD DUP2 PUSH1 0x0 ADD PUSH1 0x0 PUSH2 0x100 EXP DUP2 SLOAD DUP2 PUSH1 0xFF MUL NOT AND SWAP1 DUP4 ISZERO ISZERO MUL OR SWAP1 SSTORE POP PUSH1 0x20 DUP3 ADD MLOAD DUP2 PUSH1 0x0 ADD PUSH1 0x1 PUSH2 0x100 EXP DUP2 SLOAD DUP2 PUSH1 0xFF MUL NOT AND SWAP1 DUP4 ISZERO ISZERO MUL OR SWAP1 SSTORE POP PUSH1 0x40 DUP3 ADD MLOAD DUP2 PUSH1 0x1 ADD SWAP1 DUP1 MLOAD SWAP1 PUSH1 0x20 ADD SWAP1 PUSH2 0x7A8 SWAP3 SWAP2 SWAP1 PUSH2 0xAFA JUMP JUMPDEST POP SWAP1 POP POP PUSH1 0x4 DUP2 SWAP1 DUP1 PUSH1 0x1 DUP2 SLOAD ADD DUP1 DUP3 SSTORE DUP1 SWAP2 POP POP PUSH1 0x1 SWAP1 SUB SWAP1 PUSH1 0x0 MSTORE PUSH1 0x20 PUSH1 0x0 KECCAK256 ADD PUSH1 0x0 SWAP1 SWAP2 SWAP1 SWAP2 SWAP1 SWAP2 POP SSTORE DUP1 PUSH1 0x5 DUP2 SWAP1 SSTORE POP PUSH32 0xCC58B13AD3EAB50626C6A6300B1D139CD6EBB1688A7CCED9461C2F7E762665EE DUP2 PUSH1 0x7 PUSH1 0x6 SWAP1 SLOAD SWAP1 PUSH2 0x100 EXP SWAP1 DIV PUSH4 0xFFFFFFFF AND PUSH1 0x40 MLOAD PUSH2 0x81F SWAP3 SWAP2 SWAP1 PUSH2 0x11C0 JUMP JUMPDEST PUSH1 0x40 MLOAD DUP1 SWAP2 SUB SWAP1 LOG1 SWAP1 JUMP JUMPDEST PUSH2 0x832 PUSH2 0x93E JUMP JUMPDEST PUSH2 0x83B DUP2 PUSH2 0x9CE JUMP JUMPDEST POP JUMP JUMPDEST PUSH1 0x5 SLOAD DUP2 JUMP JUMPDEST PUSH1 0x2 PUSH1 0x0 DUP4 DUP2 MSTORE PUSH1 0x20 ADD SWAP1 DUP2 MSTORE PUSH1 0x20 ADD PUSH1 0x0 KECCAK256 PUSH1 0x0 ADD PUSH1 0x1 SWAP1 SLOAD SWAP1 PUSH2 0x100 EXP SWAP1 DIV PUSH1 0xFF AND PUSH2 0x8A7 JUMPI PUSH1 0x40 MLOAD PUSH32 0x8C379A000000000000000000000000000000000000000000000000000000000 DUP2 MSTORE PUSH1 0x4 ADD PUSH2 0x89E SWAP1 PUSH2 0x1093 JUMP JUMPDEST PUSH1 0x40 MLOAD DUP1 SWAP2 SUB SWAP1 REVERT JUMPDEST PUSH1 0x1 PUSH1 0x2 PUSH1 0x0 DUP5 DUP2 MSTORE PUSH1 0x20 ADD SWAP1 DUP2 MSTORE PUSH1 0x20 ADD PUSH1 0x0 KECCAK256 PUSH1 0x0 ADD PUSH1 0x0 PUSH2 0x100 EXP DUP2 SLOAD DUP2 PUSH1 0xFF MUL NOT AND SWAP1 DUP4 ISZERO ISZERO MUL OR SWAP1 SSTORE POP DUP1 PUSH1 0x2 PUSH1 0x0 DUP5 DUP2 MSTORE PUSH1 0x20 ADD SWAP1 DUP2 MSTORE PUSH1 0x20 ADD PUSH1 0x0 KECCAK256 PUSH1 0x1 ADD SWAP1 DUP1 MLOAD SWAP1 PUSH1 0x20 ADD SWAP1 PUSH2 0x900 SWAP3 SWAP2 SWAP1 PUSH2 0xAFA JUMP JUMPDEST POP PUSH32 0xFE2E2D779DBA245964D4E3EF9B994BE63856FD568BF7D3CA9E224755CB1BD54D DUP3 DUP3 PUSH1 0x40 MLOAD PUSH2 0x932 SWAP3 SWAP2 SWAP1 PUSH2 0x11E9 JUMP JUMPDEST PUSH1 0x40 MLOAD DUP1 SWAP2 SUB SWAP1 LOG1 POP POP JUMP JUMPDEST PUSH1 0x0 DUP1 SLOAD SWAP1 PUSH2 0x100 EXP SWAP1 DIV PUSH20 0xFFFFFFFFFFFFFFFFFFFFFFFFFFFFFFFFFFFFFFFF AND PUSH20 0xFFFFFFFFFFFFFFFFFFFFFFFFFFFFFFFFFFFFFFFF AND CALLER PUSH20 0xFFFFFFFFFFFFFFFFFFFFFFFFFFFFFFFFFFFFFFFF AND EQ PUSH2 0x9CC JUMPI PUSH1 0x40 MLOAD PUSH32 0x8C379A000000000000000000000000000000000000000000000000000000000 DUP2 MSTORE PUSH1 0x4 ADD PUSH2 0x9C3 SWAP1 PUSH2 0x1265 JUMP JUMPDEST PUSH1 0x40 MLOAD DUP1 SWAP2 SUB SWAP1 REVERT JUMPDEST JUMP JUMPDEST CALLER PUSH20 0xFFFFFFFFFFFFFFFFFFFFFFFFFFFFFFFFFFFFFFFF AND DUP2 PUSH20 0xFFFFFFFFFFFFFFFFFFFFFFFFFFFFFFFFFFFFFFFF AND SUB PUSH2 0xA3C JUMPI PUSH1 0x40 MLOAD PUSH32 0x8C379A000000000000000000000000000000000000000000000000000000000 DUP2 MSTORE PUSH1 0x4 ADD PUSH2 0xA33 SWAP1 PUSH2 0x12D1 JUMP JUMPDEST PUSH1 0x40 MLOAD DUP1 SWAP2 SUB SWAP1 REVERT JUMPDEST DUP1 PUSH1 0x1 PUSH1 0x0 PUSH2 0x100 EXP DUP2 SLOAD DUP2 PUSH20 0xFFFFFFFFFFFFFFFFFFFFFFFFFFFFFFFFFFFFFFFF MUL NOT AND SWAP1 DUP4 PUSH20 0xFFFFFFFFFFFFFFFFFFFFFFFFFFFFFFFFFFFFFFFF AND MUL OR SWAP1 SSTORE POP DUP1 PUSH20 0xFFFFFFFFFFFFFFFFFFFFFFFFFFFFFFFFFFFFFFFF AND PUSH1 0x0 DUP1 SLOAD SWAP1 PUSH2 0x100 EXP SWAP1 DIV PUSH20 0xFFFFFFFFFFFFFFFFFFFFFFFFFFFFFFFFFFFFFFFF AND PUSH20 0xFFFFFFFFFFFFFFFFFFFFFFFFFFFFFFFFFFFFFFFF AND PUSH32 0xED8889F560326EB138920D842192F0EB3DD22B4F139C87A2C57538E05BAE1278 PUSH1 0x40 MLOAD PUSH1 0x40 MLOAD DUP1 SWAP2 SUB SWAP1 LOG3 POP JUMP JUMPDEST DUP3 DUP1 SLOAD DUP3 DUP3 SSTORE SWAP1 PUSH1 0x0 MSTORE PUSH1 0x20 PUSH1 0x0 KECCAK256 SWAP1 DUP2 ADD SWAP3 DUP3 ISZERO PUSH2 0xB36 JUMPI SWAP2 PUSH1 0x20 MUL DUP3 ADD JUMPDEST DUP3 DUP2 GT ISZERO PUSH2 0xB35 JUMPI DUP3 MLOAD DUP3 SSTORE SWAP2 PUSH1 0x20 ADD SWAP2 SWAP1 PUSH1 0x1 ADD SWAP1 PUSH2 0xB1A JUMP JUMPDEST JUMPDEST POP SWAP1 POP PUSH2 0xB43 SWAP2 SWAP1 PUSH2 0xB47 JUMP JUMPDEST POP SWAP1 JUMP JUMPDEST JUMPDEST DUP1 DUP3 GT ISZERO PUSH2 0xB60 JUMPI PUSH1 0x0 DUP2 PUSH1 0x0 SWAP1 SSTORE POP PUSH1 0x1 ADD PUSH2 0xB48 JUMP JUMPDEST POP SWAP1 JUMP JUMPDEST PUSH1 0x0 PUSH1 0x40 MLOAD SWAP1 POP SWAP1 JUMP JUMPDEST PUSH1 0x0 DUP1 REVERT JUMPDEST PUSH1 0x0 DUP1 REVERT JUMPDEST PUSH1 0x0 DUP2 SWAP1 POP SWAP2 SWAP1 POP JUMP JUMPDEST PUSH2 0xB8B DUP2 PUSH2 0xB78 JUMP JUMPDEST DUP2 EQ PUSH2 0xB96 JUMPI PUSH1 0x0 DUP1 REVERT JUMPDEST POP JUMP JUMPDEST PUSH1 0x0 DUP2 CALLDATALOAD SWAP1 POP PUSH2 0xBA8 DUP2 PUSH2 0xB82 JUMP JUMPDEST SWAP3 SWAP2 POP POP JUMP JUMPDEST PUSH1 0x0 DUP1 REVERT JUMPDEST PUSH1 0x0 PUSH1 0x1F NOT PUSH1 0x1F DUP4 ADD AND SWAP1 POP SWAP2 SWAP1 POP JUMP JUMPDEST PUSH32 0x4E487B7100000000000000000000000000000000000000000000000000000000 PUSH1 0x0 MSTORE PUSH1 0x41 PUSH1 0x4 MSTORE PUSH1 0x24 PUSH1 0x0 REVERT JUMPDEST PUSH2 0xBFC DUP3 PUSH2 0xBB3 JUMP JUMPDEST DUP2 ADD DUP2 DUP2 LT PUSH8 0xFFFFFFFFFFFFFFFF DUP3 GT OR ISZERO PUSH2 0xC1B JUMPI PUSH2 0xC1A PUSH2 0xBC4 JUMP JUMPDEST JUMPDEST DUP1 PUSH1 0x40 MSTORE POP POP POP JUMP JUMPDEST PUSH1 0x0 PUSH2 0xC2E PUSH2 0xB64 JUMP JUMPDEST SWAP1 POP PUSH2 0xC3A DUP3 DUP3 PUSH2 0xBF3 JUMP JUMPDEST SWAP2 SWAP1 POP JUMP JUMPDEST PUSH1 0x0 PUSH8 0xFFFFFFFFFFFFFFFF DUP3 GT ISZERO PUSH2 0xC5A JUMPI PUSH2 0xC59 PUSH2 0xBC4 JUMP JUMPDEST JUMPDEST PUSH1 0x20 DUP3 MUL SWAP1 POP PUSH1 0x20 DUP2 ADD SWAP1 POP SWAP2 SWAP1 POP JUMP JUMPDEST PUSH1 0x0 DUP1 REVERT JUMPDEST PUSH1 0x0 PUSH2 0xC83 PUSH2 0xC7E DUP5 PUSH2 0xC3F JUMP JUMPDEST PUSH2 0xC24 JUMP JUMPDEST SWAP1 POP DUP1 DUP4 DUP3 MSTORE PUSH1 0x20 DUP3 ADD SWAP1 POP PUSH1 0x20 DUP5 MUL DUP4 ADD DUP6 DUP2 GT ISZERO PUSH2 0xCA6 JUMPI PUSH2 0xCA5 PUSH2 0xC6B JUMP JUMPDEST JUMPDEST DUP4 JUMPDEST DUP2 DUP2 LT ISZERO PUSH2 0xCCF JUMPI DUP1 PUSH2 0xCBB DUP9 DUP3 PUSH2 0xB99 JUMP JUMPDEST DUP5 MSTORE PUSH1 0x20 DUP5 ADD SWAP4 POP POP PUSH1 0x20 DUP2 ADD SWAP1 POP PUSH2 0xCA8 JUMP JUMPDEST POP POP POP SWAP4 SWAP3 POP POP POP JUMP JUMPDEST PUSH1 0x0 DUP3 PUSH1 0x1F DUP4 ADD SLT PUSH2 0xCEE JUMPI PUSH2 0xCED PUSH2 0xBAE JUMP JUMPDEST JUMPDEST DUP2 CALLDATALOAD PUSH2 0xCFE DUP5 DUP3 PUSH1 0x20 DUP7 ADD PUSH2 0xC70 JUMP JUMPDEST SWAP2 POP POP SWAP3 SWAP2 POP POP JUMP JUMPDEST PUSH1 0x0 DUP1 PUSH1 0x40 DUP4 DUP6 SUB SLT ISZERO PUSH2 0xD1E JUMPI PUSH2 0xD1D PUSH2 0xB6E JUMP JUMPDEST JUMPDEST PUSH1 0x0 PUSH2 0xD2C DUP6 DUP3 DUP7 ADD PUSH2 0xB99 JUMP JUMPDEST SWAP3 POP POP PUSH1 0x20 DUP4 ADD CALLDATALOAD PUSH8 0xFFFFFFFFFFFFFFFF DUP2 GT ISZERO PUSH2 0xD4D JUMPI PUSH2 0xD4C PUSH2 0xB73 JUMP JUMPDEST JUMPDEST PUSH2 0xD59 DUP6 DUP3 DUP7 ADD PUSH2 0xCD9 JUMP JUMPDEST SWAP2 POP POP SWAP3 POP SWAP3 SWAP1 POP JUMP JUMPDEST PUSH1 0x0 PUSH1 0x20 DUP3 DUP5 SUB SLT ISZERO PUSH2 0xD79 JUMPI PUSH2 0xD78 PUSH2 0xB6E JUMP JUMPDEST JUMPDEST PUSH1 0x0 PUSH2 0xD87 DUP5 DUP3 DUP6 ADD PUSH2 0xB99 JUMP JUMPDEST SWAP2 POP POP SWAP3 SWAP2 POP POP JUMP JUMPDEST PUSH2 0xD99 DUP2 PUSH2 0xB78 JUMP JUMPDEST DUP3 MSTORE POP POP JUMP JUMPDEST PUSH1 0x0 PUSH1 0x20 DUP3 ADD SWAP1 POP PUSH2 0xDB4 PUSH1 0x0 DUP4 ADD DUP5 PUSH2 0xD90 JUMP JUMPDEST SWAP3 SWAP2 POP POP JUMP JUMPDEST PUSH1 0x0 PUSH20 0xFFFFFFFFFFFFFFFFFFFFFFFFFFFFFFFFFFFFFFFF DUP3 AND SWAP1 POP SWAP2 SWAP1 POP JUMP JUMPDEST PUSH1 0x0 PUSH2 0xDE5 DUP3 PUSH2 0xDBA JUMP JUMPDEST SWAP1 POP SWAP2 SWAP1 POP JUMP JUMPDEST PUSH2 0xDF5 DUP2 PUSH2 0xDDA JUMP JUMPDEST DUP3 MSTORE POP POP JUMP JUMPDEST PUSH1 0x0 PUSH1 0x20 DUP3 ADD SWAP1 POP PUSH2 0xE10 PUSH1 0x0 DUP4 ADD DUP5 PUSH2 0xDEC JUMP JUMPDEST SWAP3 SWAP2 POP POP JUMP JUMPDEST PUSH1 0x0 DUP2 ISZERO ISZERO SWAP1 POP SWAP2 SWAP1 POP JUMP JUMPDEST PUSH2 0xE2B DUP2 PUSH2 0xE16 JUMP JUMPDEST DUP3 MSTORE POP POP JUMP JUMPDEST PUSH1 0x0 PUSH1 0x40 DUP3 ADD SWAP1 POP PUSH2 0xE46 PUSH1 0x0 DUP4 ADD DUP6 PUSH2 0xE22 JUMP JUMPDEST PUSH2 0xE53 PUSH1 0x20 DUP4 ADD DUP5 PUSH2 0xE22 JUMP JUMPDEST SWAP4 SWAP3 POP POP POP JUMP JUMPDEST PUSH1 0x0 DUP2 MLOAD SWAP1 POP SWAP2 SWAP1 POP JUMP JUMPDEST PUSH1 0x0 DUP3 DUP3 MSTORE PUSH1 0x20 DUP3 ADD SWAP1 POP SWAP3 SWAP2 POP POP JUMP JUMPDEST PUSH1 0x0 DUP2 SWAP1 POP PUSH1 0x20 DUP3 ADD SWAP1 POP SWAP2 SWAP1 POP JUMP JUMPDEST PUSH2 0xE8F DUP2 PUSH2 0xB78 JUMP JUMPDEST DUP3 MSTORE POP POP JUMP JUMPDEST PUSH1 0x0 PUSH2 0xEA1 DUP4 DUP4 PUSH2 0xE86 JUMP JUMPDEST PUSH1 0x20 DUP4 ADD SWAP1 POP SWAP3 SWAP2 POP POP JUMP JUMPDEST PUSH1 0x0 PUSH1 0x20 DUP3 ADD SWAP1 POP SWAP2 SWAP1 POP JUMP JUMPDEST PUSH1 0x0 PUSH2 0xEC5 DUP3 PUSH2 0xE5A JUMP JUMPDEST PUSH2 0xECF DUP2 DUP6 PUSH2 0xE65 JUMP JUMPDEST SWAP4 POP PUSH2 0xEDA DUP4 PUSH2 0xE76 JUMP JUMPDEST DUP1 PUSH1 0x0 JUMPDEST DUP4 DUP2 LT ISZERO PUSH2 0xF0B JUMPI DUP2 MLOAD PUSH2 0xEF2 DUP9 DUP3 PUSH2 0xE95 JUMP JUMPDEST SWAP8 POP PUSH2 0xEFD DUP4 PUSH2 0xEAD JUMP JUMPDEST SWAP3 POP POP PUSH1 0x1 DUP2 ADD SWAP1 POP PUSH2 0xEDE JUMP JUMPDEST POP DUP6 SWAP4 POP POP POP POP SWAP3 SWAP2 POP POP JUMP JUMPDEST PUSH1 0x0 PUSH1 0x40 DUP3 ADD SWAP1 POP PUSH2 0xF2D PUSH1 0x0 DUP4 ADD DUP6 PUSH2 0xE22 JUMP JUMPDEST DUP2 DUP2 SUB PUSH1 0x20 DUP4 ADD MSTORE PUSH2 0xF3F DUP2 DUP5 PUSH2 0xEBA JUMP JUMPDEST SWAP1 POP SWAP4 SWAP3 POP POP POP JUMP JUMPDEST PUSH2 0xF51 DUP2 PUSH2 0xDDA JUMP JUMPDEST DUP2 EQ PUSH2 0xF5C JUMPI PUSH1 0x0 DUP1 REVERT JUMPDEST POP JUMP JUMPDEST PUSH1 0x0 DUP2 CALLDATALOAD SWAP1 POP PUSH2 0xF6E DUP2 PUSH2 0xF48 JUMP JUMPDEST SWAP3 SWAP2 POP POP JUMP JUMPDEST PUSH1 0x0 PUSH1 0x20 DUP3 DUP5 SUB SLT ISZERO PUSH2 0xF8A JUMPI PUSH2 0xF89 PUSH2 0xB6E JUMP JUMPDEST JUMPDEST PUSH1 0x0 PUSH2 0xF98 DUP5 DUP3 DUP6 ADD PUSH2 0xF5F JUMP JUMPDEST SWAP2 POP POP SWAP3 SWAP2 POP POP JUMP JUMPDEST PUSH1 0x0 PUSH1 0x40 DUP3 ADD SWAP1 POP PUSH2 0xFB6 PUSH1 0x0 DUP4 ADD DUP6 PUSH2 0xDEC JUMP JUMPDEST PUSH2 0xFC3 PUSH1 0x20 DUP4 ADD DUP5 PUSH2 0xDEC JUMP JUMPDEST SWAP4 SWAP3 POP POP POP JUMP JUMPDEST PUSH1 0x0 DUP3 DUP3 MSTORE PUSH1 0x20 DUP3 ADD SWAP1 POP SWAP3 SWAP2 POP POP JUMP JUMPDEST PUSH32 0x4D7573742062652070726F706F736564206F776E657200000000000000000000 PUSH1 0x0 DUP3 ADD MSTORE POP JUMP JUMPDEST PUSH1 0x0 PUSH2 0x1011 PUSH1 0x16 DUP4 PUSH2 0xFCA JUMP JUMPDEST SWAP2 POP PUSH2 0x101C DUP3 PUSH2 0xFDB JUMP JUMPDEST PUSH1 0x20 DUP3 ADD SWAP1 POP SWAP2 SWAP1 POP JUMP JUMPDEST PUSH1 0x0 PUSH1 0x20 DUP3 ADD SWAP1 POP DUP2 DUP2 SUB PUSH1 0x0 DUP4 ADD MSTORE PUSH2 0x1040 DUP2 PUSH2 0x1004 JUMP JUMPDEST SWAP1 POP SWAP2 SWAP1 POP JUMP JUMPDEST PUSH32 0x72657175657374206E6F7420666F756E64000000000000000000000000000000 PUSH1 0x0 DUP3 ADD MSTORE POP JUMP JUMPDEST PUSH1 0x0 PUSH2 0x107D PUSH1 0x11 DUP4 PUSH2 0xFCA JUMP JUMPDEST SWAP2 POP PUSH2 0x1088 DUP3 PUSH2 0x1047 JUMP JUMPDEST PUSH1 0x20 DUP3 ADD SWAP1 POP SWAP2 SWAP1 POP JUMP JUMPDEST PUSH1 0x0 PUSH1 0x20 DUP3 ADD SWAP1 POP DUP2 DUP2 SUB PUSH1 0x0 DUP4 ADD MSTORE PUSH2 0x10AC DUP2 PUSH2 0x1070 JUMP JUMPDEST SWAP1 POP SWAP2 SWAP1 POP JUMP JUMPDEST PUSH1 0x0 DUP2 SWAP1 POP SWAP2 SWAP1 POP JUMP JUMPDEST PUSH2 0x10C6 DUP2 PUSH2 0x10B3 JUMP JUMPDEST DUP3 MSTORE POP POP JUMP JUMPDEST PUSH1 0x0 PUSH8 0xFFFFFFFFFFFFFFFF DUP3 AND SWAP1 POP SWAP2 SWAP1 POP JUMP JUMPDEST PUSH2 0x10E9 DUP2 PUSH2 0x10CC JUMP JUMPDEST DUP3 MSTORE POP POP JUMP JUMPDEST PUSH1 0x0 PUSH2 0xFFFF DUP3 AND SWAP1 POP SWAP2 SWAP1 POP JUMP JUMPDEST PUSH2 0x1106 DUP2 PUSH2 0x10EF JUMP JUMPDEST DUP3 MSTORE POP POP JUMP JUMPDEST PUSH1 0x0 PUSH4 0xFFFFFFFF DUP3 AND SWAP1 POP SWAP2 SWAP1 POP JUMP JUMPDEST PUSH2 0x1125 DUP2 PUSH2 0x110C JUMP JUMPDEST DUP3 MSTORE POP POP JUMP JUMPDEST PUSH1 0x0 PUSH1 0xA0 DUP3 ADD SWAP1 POP PUSH2 0x1140 PUSH1 0x0 DUP4 ADD DUP9 PUSH2 0x10BD JUMP JUMPDEST PUSH2 0x114D PUSH1 0x20 DUP4 ADD DUP8 PUSH2 0x10E0 JUMP JUMPDEST PUSH2 0x115A PUSH1 0x40 DUP4 ADD DUP7 PUSH2 0x10FD JUMP JUMPDEST PUSH2 0x1167 PUSH1 0x60 DUP4 ADD DUP6 PUSH2 0x111C JUMP JUMPDEST PUSH2 0x1174 PUSH1 0x80 DUP4 ADD DUP5 PUSH2 0x111C JUMP JUMPDEST SWAP7 SWAP6 POP POP POP POP POP POP JUMP JUMPDEST PUSH1 0x0 DUP2 MLOAD SWAP1 POP PUSH2 0x118D DUP2 PUSH2 0xB82 JUMP JUMPDEST SWAP3 SWAP2 POP POP JUMP JUMPDEST PUSH1 0x0 PUSH1 0x20 DUP3 DUP5 SUB SLT ISZERO PUSH2 0x11A9 JUMPI PUSH2 0x11A8 PUSH2 0xB6E JUMP JUMPDEST JUMPDEST PUSH1 0x0 PUSH2 0x11B7 DUP5 DUP3 DUP6 ADD PUSH2 0x117E JUMP JUMPDEST SWAP2 POP POP SWAP3 SWAP2 POP POP JUMP JUMPDEST PUSH1 0x0 PUSH1 0x40 DUP3 ADD SWAP1 POP PUSH2 0x11D5 PUSH1 0x0 DUP4 ADD DUP6 PUSH2 0xD90 JUMP JUMPDEST PUSH2 0x11E2 PUSH1 0x20 DUP4 ADD DUP5 PUSH2 0x111C JUMP JUMPDEST SWAP4 SWAP3 POP POP POP JUMP JUMPDEST PUSH1 0x0 PUSH1 0x40 DUP3 ADD SWAP1 POP PUSH2 0x11FE PUSH1 0x0 DUP4 ADD DUP6 PUSH2 0xD90 JUMP JUMPDEST DUP2 DUP2 SUB PUSH1 0x20 DUP4 ADD MSTORE PUSH2 0x1210 DUP2 DUP5 PUSH2 0xEBA JUMP JUMPDEST SWAP1 POP SWAP4 SWAP3 POP POP POP JUMP JUMPDEST PUSH32 0x4F6E6C792063616C6C61626C65206279206F776E657200000000000000000000 PUSH1 0x0 DUP3 ADD MSTORE POP JUMP JUMPDEST PUSH1 0x0 PUSH2 0x124F PUSH1 0x16 DUP4 PUSH2 0xFCA JUMP JUMPDEST SWAP2 POP PUSH2 0x125A DUP3 PUSH2 0x1219 JUMP JUMPDEST PUSH1 0x20 DUP3 ADD SWAP1 POP SWAP2 SWAP1 POP JUMP JUMPDEST PUSH1 0x0 PUSH1 0x20 DUP3 ADD SWAP1 POP DUP2 DUP2 SUB PUSH1 0x0 DUP4 ADD MSTORE PUSH2 0x127E DUP2 PUSH2 0x1242 JUMP JUMPDEST SWAP1 POP SWAP2 SWAP1 POP JUMP JUMPDEST PUSH32 0x43616E6E6F74207472616E7366657220746F2073656C66000000000000000000 PUSH1 0x0 DUP3 ADD MSTORE POP JUMP JUMPDEST PUSH1 0x0 PUSH2 0x12BB PUSH1 0x17 DUP4 PUSH2 0xFCA JUMP JUMPDEST SWAP2 POP PUSH2 0x12C6 DUP3 PUSH2 0x1285 JUMP JUMPDEST PUSH1 0x20 DUP3 ADD SWAP1 POP SWAP2 SWAP1 POP JUMP JUMPDEST PUSH1 0x0 PUSH1 0x20 DUP3 ADD SWAP1 POP DUP2 DUP2 SUB PUSH1 0x0 DUP4 ADD MSTORE PUSH2 0x12EA DUP2 PUSH2 0x12AE JUMP JUMPDEST SWAP1 POP SWAP2 SWAP1 POP JUMP INVALID LOG2 PUSH5 0x6970667358 0x22 SLT KECCAK256 0x23 SWAP2 0xED 0x28 PUSH9 0x5206B8BA6AE021EDE4 JUMPDEST DUP11 0xD SWAP6 0xED 0xC8 SWAP7 0x2C PUSH13 0x2545516AE0550E3C2464736F6C PUSH4 0x43000813 STOP CALLER "
				},
				"gasEstimates": {
					"creation": {
						"codeDepositCost": "980600",
						"executionCost": "infinite",
						"totalCost": "infinite"
					},
					"external": {
						"acceptOwnership()": "54563",
						"getRequestStatus(uint256)": "infinite",
						"lastRequestId()": "2517",
						"owner()": "2589",
						"rawFulfillRandomWords(uint256,uint256[])": "infinite",
						"requestIds(uint256)": "infinite",
						"requestRandomWords()": "infinite",
						"s_requests(uint256)": "infinite",
						"transferOwnership(address)": "30720"
					},
					"internal": {
						"fulfillRandomWords(uint256,uint256[] memory)": "infinite"
					}
				},
				"methodIdentifiers": {
					"acceptOwnership()": "79ba5097",
					"getRequestStatus(uint256)": "d8a4676f",
					"lastRequestId()": "fc2a88c3",
					"owner()": "8da5cb5b",
					"rawFulfillRandomWords(uint256,uint256[])": "1fe543e3",
					"requestIds(uint256)": "8796ba8c",
					"requestRandomWords()": "e0c86289",
					"s_requests(uint256)": "a168fa89",
					"transferOwnership(address)": "f2fde38b"
				}
			},
			"storageLayout": {
				"storage": [
					{
						"astId": 27,
						"contract": "LinkBin/giveaway.sol:VRFv2Consumer",
						"label": "s_owner",
						"offset": 0,
						"slot": "0",
						"type": "t_address"
					},
					{
						"astId": 29,
						"contract": "LinkBin/giveaway.sol:VRFv2Consumer",
						"label": "s_pendingOwner",
						"offset": 0,
						"slot": "1",
						"type": "t_address"
					},
					{
						"astId": 387,
						"contract": "LinkBin/giveaway.sol:VRFv2Consumer",
						"label": "s_requests",
						"offset": 0,
						"slot": "2",
						"type": "t_mapping(t_uint256,t_struct(RequestStatus)382_storage)"
					},
					{
						"astId": 390,
						"contract": "LinkBin/giveaway.sol:VRFv2Consumer",
						"label": "COORDINATOR",
						"offset": 0,
						"slot": "3",
						"type": "t_contract(VRFCoordinatorV2Interface)351"
					},
					{
						"astId": 392,
						"contract": "LinkBin/giveaway.sol:VRFv2Consumer",
						"label": "s_subscriptionId",
						"offset": 20,
						"slot": "3",
						"type": "t_uint64"
					},
					{
						"astId": 395,
						"contract": "LinkBin/giveaway.sol:VRFv2Consumer",
						"label": "requestIds",
						"offset": 0,
						"slot": "4",
						"type": "t_array(t_uint256)dyn_storage"
					},
					{
						"astId": 397,
						"contract": "LinkBin/giveaway.sol:VRFv2Consumer",
						"label": "lastRequestId",
						"offset": 0,
						"slot": "5",
						"type": "t_uint256"
					},
					{
						"astId": 400,
						"contract": "LinkBin/giveaway.sol:VRFv2Consumer",
						"label": "keyHash",
						"offset": 0,
						"slot": "6",
						"type": "t_bytes32"
					},
					{
						"astId": 403,
						"contract": "LinkBin/giveaway.sol:VRFv2Consumer",
						"label": "callbackGasLimit",
						"offset": 0,
						"slot": "7",
						"type": "t_uint32"
					},
					{
						"astId": 406,
						"contract": "LinkBin/giveaway.sol:VRFv2Consumer",
						"label": "requestConfirmations",
						"offset": 4,
						"slot": "7",
						"type": "t_uint16"
					},
					{
						"astId": 409,
						"contract": "LinkBin/giveaway.sol:VRFv2Consumer",
						"label": "numWords",
						"offset": 6,
						"slot": "7",
						"type": "t_uint32"
					}
				],
				"types": {
					"t_address": {
						"encoding": "inplace",
						"label": "address",
						"numberOfBytes": "20"
					},
					"t_array(t_uint256)dyn_storage": {
						"base": "t_uint256",
						"encoding": "dynamic_array",
						"label": "uint256[]",
						"numberOfBytes": "32"
					},
					"t_bool": {
						"encoding": "inplace",
						"label": "bool",
						"numberOfBytes": "1"
					},
					"t_bytes32": {
						"encoding": "inplace",
						"label": "bytes32",
						"numberOfBytes": "32"
					},
					"t_contract(VRFCoordinatorV2Interface)351": {
						"encoding": "inplace",
						"label": "contract VRFCoordinatorV2Interface",
						"numberOfBytes": "20"
					},
					"t_mapping(t_uint256,t_struct(RequestStatus)382_storage)": {
						"encoding": "mapping",
						"key": "t_uint256",
						"label": "mapping(uint256 => struct VRFv2Consumer.RequestStatus)",
						"numberOfBytes": "32",
						"value": "t_struct(RequestStatus)382_storage"
					},
					"t_struct(RequestStatus)382_storage": {
						"encoding": "inplace",
						"label": "struct VRFv2Consumer.RequestStatus",
						"members": [
							{
								"astId": 376,
								"contract": "LinkBin/giveaway.sol:VRFv2Consumer",
								"label": "fulfilled",
								"offset": 0,
								"slot": "0",
								"type": "t_bool"
							},
							{
								"astId": 378,
								"contract": "LinkBin/giveaway.sol:VRFv2Consumer",
								"label": "exists",
								"offset": 1,
								"slot": "0",
								"type": "t_bool"
							},
							{
								"astId": 381,
								"contract": "LinkBin/giveaway.sol:VRFv2Consumer",
								"label": "randomWords",
								"offset": 0,
								"slot": "1",
								"type": "t_array(t_uint256)dyn_storage"
							}
						],
						"numberOfBytes": "64"
					},
					"t_uint16": {
						"encoding": "inplace",
						"label": "uint16",
						"numberOfBytes": "2"
					},
					"t_uint256": {
						"encoding": "inplace",
						"label": "uint256",
						"numberOfBytes": "32"
					},
					"t_uint32": {
						"encoding": "inplace",
						"label": "uint32",
						"numberOfBytes": "4"
					},
					"t_uint64": {
						"encoding": "inplace",
						"label": "uint64",
						"numberOfBytes": "8"
					}
				}
			},
			"userdoc": {
				"kind": "user",
				"methods": {
					"acceptOwnership()": {
						"notice": "Allows an ownership transfer to be completed by the recipient."
					},
					"constructor": {
						"notice": "HARDCODED FOR SEPOLIA COORDINATOR: 0x8103B0A8A00be2DDC778e6e7eaa21791Cd364625"
					},
					"owner()": {
						"notice": "Get the current owner"
					},
					"transferOwnership(address)": {
						"notice": "Allows an owner to begin transferring ownership to a new address, pending."
					}
				},
				"notice": "THIS IS AN EXAMPLE CONTRACT THAT USES HARDCODED VALUES FOR CLARITY. THIS IS AN EXAMPLE CONTRACT THAT USES UN-AUDITED CODE. DO NOT USE THIS CODE IN PRODUCTION.",
				"version": 1
			}
		}
	}
}